{"contracts/Job.sol":{"Job":{"abi":[{"inputs":[{"internalType":"address","name":"_owner","type":"address"},{"internalType":"string","name":"_description","type":"string"},{"internalType":"uint256","name":"_price","type":"uint256"},{"internalType":"uint256","name":"_numberOfDays","type":"uint256"}],"stateMutability":"nonpayable","type":"constructor"},{"anonymous":false,"inputs":[{"indexed":false,"internalType":"address","name":"applicant","type":"address"}],"name":"ApplicantSelected","type":"event"},{"anonymous":false,"inputs":[{"indexed":false,"internalType":"address","name":"applicant","type":"address"}],"name":"Applied","type":"event"},{"anonymous":false,"inputs":[{"indexed":false,"internalType":"address","name":"applicant","type":"address"}],"name":"JobCompleted","type":"event"},{"anonymous":false,"inputs":[{"indexed":false,"internalType":"address","name":"to","type":"address"},{"indexed":false,"internalType":"uint256","name":"amount","type":"uint256"}],"name":"PaymentWithdrawn","type":"event"},{"inputs":[],"name":"applyForJob","outputs":[],"stateMutability":"nonpayable","type":"function"},{"inputs":[],"name":"completeJob","outputs":[],"stateMutability":"nonpayable","type":"function"},{"inputs":[],"name":"fundJob","outputs":[],"stateMutability":"payable","type":"function"},{"inputs":[],"name":"getApplicants","outputs":[{"internalType":"address[]","name":"","type":"address[]"}],"stateMutability":"view","type":"function"},{"inputs":[],"name":"getDescription","outputs":[{"internalType":"string","name":"","type":"string"}],"stateMutability":"view","type":"function"},{"inputs":[],"name":"getNumberOfDays","outputs":[{"internalType":"uint256","name":"","type":"uint256"}],"stateMutability":"view","type":"function"},{"inputs":[],"name":"getOwner","outputs":[{"internalType":"address","name":"","type":"address"}],"stateMutability":"view","type":"function"},{"inputs":[],"name":"getPrice","outputs":[{"internalType":"uint256","name":"","type":"uint256"}],"stateMutability":"view","type":"function"},{"inputs":[],"name":"getSelectedApplicant","outputs":[{"internalType":"address","name":"","type":"address"}],"stateMutability":"view","type":"function"},{"inputs":[],"name":"getStatus","outputs":[{"internalType":"enum Job.Status","name":"","type":"uint8"}],"stateMutability":"view","type":"function"},{"inputs":[],"name":"isPaymentWithdrawn","outputs":[{"internalType":"bool","name":"","type":"bool"}],"stateMutability":"view","type":"function"},{"inputs":[{"internalType":"address","name":"applicant","type":"address"}],"name":"selectApplicant","outputs":[],"stateMutability":"nonpayable","type":"function"},{"inputs":[],"name":"withdrawPayment","outputs":[],"stateMutability":"nonpayable","type":"function"}],"evm":{"bytecode":{"linkReferences":{},"object":"60806040523480156200001157600080fd5b5060405162000fcb38038062000fcb83398101604081905262000034916200008f565b600080546001600160a01b0319166001600160a01b03861617905560016200005d848262000226565b5060029190915560035550506004805460ff19169055620002f2565b634e487b7160e01b600052604160045260246000fd5b60008060008060808587031215620000a657600080fd5b84516001600160a01b0381168114620000be57600080fd5b602086810151919550906001600160401b0380821115620000de57600080fd5b818801915088601f830112620000f357600080fd5b81518181111562000108576200010862000079565b604051601f8201601f19908116603f0116810190838211818310171562000133576200013362000079565b816040528281528b868487010111156200014c57600080fd5b600093505b8284101562000170578484018601518185018701529285019262000151565b6000928101909501919091525050506040860151606090960151949790965092505050565b600181811c90821680620001aa57607f821691505b602082108103620001cb57634e487b7160e01b600052602260045260246000fd5b50919050565b601f82111562000221576000816000526020600020601f850160051c81016020861015620001fc5750805b601f850160051c820191505b818110156200021d5782815560010162000208565b5050505b505050565b81516001600160401b0381111562000242576200024262000079565b6200025a8162000253845462000195565b84620001d1565b602080601f831160018114620002925760008415620002795750858301515b600019600386901b1c1916600185901b1785556200021d565b600085815260208120601f198616915b82811015620002c357888601518255948401946001909101908401620002a2565b5085821015620002e25787850151600019600388901b60f8161c191681555b5050505050600190811b01905550565b610cc980620003026000396000f3fe6080604052600436106100c25760003560e01c8063893d20e81161007f578063a118babd11610059578063a118babd146101e5578063bfd1a5f6146101fa578063dd3f1b551461021a578063ef47243d1461023f57600080fd5b8063893d20e81461017b57806398d5fdca146101ad5780639c9f2052146101c257600080fd5b806310f34602146100c75780631a092541146100eb5780633086848f1461010d578063455772d2146101245780634e69d56014610146578063755d7bbd14610166575b600080fd5b3480156100d357600080fd5b506003545b6040519081526020015b60405180910390f35b3480156100f757600080fd5b50610100610247565b6040516100e29190610af7565b34801561011957600080fd5b506101226102d9565b005b34801561013057600080fd5b50610139610478565b6040516100e29190610b46565b34801561015257600080fd5b5060045460ff166040516100e29190610ba9565b34801561017257600080fd5b506101226104d9565b34801561018757600080fd5b506000546001600160a01b03165b6040516001600160a01b0390911681526020016100e2565b3480156101b957600080fd5b506002546100d8565b3480156101ce57600080fd5b5060045461010090046001600160a01b0316610195565b3480156101f157600080fd5b50610122610655565b34801561020657600080fd5b50610122610215366004610bd1565b61083f565b34801561022657600080fd5b5061022f610990565b60405190151581526020016100e2565b6101226109b0565b60606001805461025690610c01565b80601f016020809104026020016040519081016040528092919081815260200182805461028290610c01565b80156102cf5780601f106102a4576101008083540402835291602001916102cf565b820191906000526020600020905b8154815290600101906020018083116102b257829003601f168201915b5050505050905090565b6000546001600160a01b0316331461030c5760405162461bcd60e51b815260040161030390610c3b565b60405180910390fd5b60036004805460ff169081111561032557610325610b93565b036103725760405162461bcd60e51b815260206004820152601c60248201527f546865206a6f6220697320616c726561647920636f6d706c65746564000000006044820152606401610303565b60026004805460ff169081111561038b5761038b610b93565b146103d05760405162461bcd60e51b8152602060048201526015602482015274139bc8185c1c1b1a58d85b9d081cd95b1958dd1959605a1b6044820152606401610303565b60045461010090046001600160a01b03166104255760405162461bcd60e51b8152602060048201526015602482015274139bc8185c1c1b1a58d85b9d081cd95b1958dd1959605a1b6044820152606401610303565b6004805460ff1916600317908190556040516101009091046001600160a01b031681527fa7ce9489b811cd79bb8695d6ad4051484c96aea68805ffa76eea626f7121f800906020015b60405180910390a1565b606060058054806020026020016040519081016040528092919081815260200182805480156102cf57602002820191906000526020600020905b81546001600160a01b031681526001909101906020018083116104b2575050505050905090565b6000546001600160a01b031633036105285760405162461bcd60e51b81526020600482015260126024820152714f776e65722063616e6e6f74206170706c7960701b6044820152606401610303565b60016004805460ff169081111561054157610541610b93565b146105985760405162461bcd60e51b815260206004820152602160248201527f4a6f62206973206e6f7420616363657074696e67206170706c69636174696f6e6044820152607360f81b6064820152608401610303565b6105a133610a98565b156105e05760405162461bcd60e51b815260206004820152600f60248201526e105b1c9958591e48185c1c1b1a5959608a1b6044820152606401610303565b600580546001810182556000919091527f036b6384b5eca791c62761152d0c79bb0604c104a5fb6f4eb0703f3154bb3db00180546001600160a01b031916339081179091556040519081527f83f970044e0c4e2d8a4922431cb57df4cd6dc71f67b619eb184d105e3b6d917a9060200161046e565b60045461010090046001600160a01b031633146106d05760405162461bcd60e51b815260206004820152603360248201527f4f6e6c79207468652073656c6563746564206170706c6963616e742063616e206044820152723832b93337b936903a3434b99030b1ba34b7b760691b6064820152608401610303565b6004805460ff16818111156106e7576106e7610b93565b0361074a5760405162461bcd60e51b815260206004820152602d60248201527f546865207061796d656e7420666f722074686973206a6f6220697320616c726560448201526c30b23c903bb4ba34323930bbb760991b6064820152608401610303565b60036004805460ff169081111561076357610763610b93565b146107a45760405162461bcd60e51b8152602060048201526011602482015270129bd8881b9bdd0818dbdb5c1b195d1959607a1b6044820152606401610303565b6002546004546040516101009091046001600160a01b0316906108fc8315029083906000818181858888f193505050501580156107e5573d6000803e3d6000fd5b506004805460ff1916811790819055604080516101009092046001600160a01b03168252602082018390527f84511ecc081974f18e7f3e0dcc19db078b55bbd3852ddd0dd85b3aebb7bf94c291015b60405180910390a150565b6000546001600160a01b031633146108695760405162461bcd60e51b815260040161030390610c3b565b60016004805460ff169081111561088257610882610b93565b146108db5760405162461bcd60e51b8152602060048201526024808201527f43616e27742073656c656374206170706c6963616e74206174207468697320736044820152637461676560e01b6064820152608401610303565b6108e481610a98565b6109305760405162461bcd60e51b815260206004820152601760248201527f4164647265737320686173206e6f74206170706c6965640000000000000000006044820152606401610303565b6004805460ff196001600160a01b0384166101008102919091166001600160a81b0319909216919091176002179091556040519081527f0d889ef5b807d75aff859dfda4c0a241a96844b7254effbcc4769891ca9c9a2290602001610834565b6000600480805460ff16908111156109aa576109aa610b93565b14905090565b6000546001600160a01b031633146109da5760405162461bcd60e51b815260040161030390610c3b565b6002543414610a2b5760405162461bcd60e51b815260206004820152601e60248201527f4d7573742066756e64206a6f62207769746820657861637420707269636500006044820152606401610303565b60006004805460ff1690811115610a4457610a44610b93565b14610a895760405162461bcd60e51b8152602060048201526015602482015274129bd8881a5cc8185b1c9958591e48199d5b991959605a1b6044820152606401610303565b6004805460ff19166001179055565b6000805b600554811015610aee57826001600160a01b031660058281548110610ac357610ac3610c7d565b6000918252602090912001546001600160a01b031603610ae65750600192915050565b600101610a9c565b50600092915050565b60006020808352835180602085015260005b81811015610b2557858101830151858201604001528201610b09565b506000604082860101526040601f19601f8301168501019250505092915050565b6020808252825182820181905260009190848201906040850190845b81811015610b875783516001600160a01b031683529284019291840191600101610b62565b50909695505050505050565b634e487b7160e01b600052602160045260246000fd5b6020810160058310610bcb57634e487b7160e01b600052602160045260246000fd5b91905290565b600060208284031215610be357600080fd5b81356001600160a01b0381168114610bfa57600080fd5b9392505050565b600181811c90821680610c1557607f821691505b602082108103610c3557634e487b7160e01b600052602260045260246000fd5b50919050565b60208082526022908201527f4f6e6c79206f776e65722063616e20706572666f726d2074686973206163746960408201526137b760f11b606082015260800190565b634e487b7160e01b600052603260045260246000fdfea26469706673582212205b4eeb6cbb7c2f5437b66e5b3d6e455eef98ede53e153fbb6b1cadcc5564338f64736f6c63430008180033","opcodes":"PUSH1 0x80 PUSH1 0x40 MSTORE CALLVALUE DUP1 ISZERO PUSH3 0x11 JUMPI PUSH1 0x0 DUP1 REVERT JUMPDEST POP PUSH1 0x40 MLOAD PUSH3 0xFCB CODESIZE SUB DUP1 PUSH3 0xFCB DUP4 CODECOPY DUP2 ADD PUSH1 0x40 DUP2 SWAP1 MSTORE PUSH3 0x34 SWAP2 PUSH3 0x8F JUMP JUMPDEST PUSH1 0x0 DUP1 SLOAD PUSH1 0x1 PUSH1 0x1 PUSH1 0xA0 SHL SUB NOT AND PUSH1 0x1 PUSH1 0x1 PUSH1 0xA0 SHL SUB DUP7 AND OR SWAP1 SSTORE PUSH1 0x1 PUSH3 0x5D DUP5 DUP3 PUSH3 0x226 JUMP JUMPDEST POP PUSH1 0x2 SWAP2 SWAP1 SWAP2 SSTORE PUSH1 0x3 SSTORE POP POP PUSH1 0x4 DUP1 SLOAD PUSH1 0xFF NOT AND SWAP1 SSTORE PUSH3 0x2F2 JUMP JUMPDEST PUSH4 0x4E487B71 PUSH1 0xE0 SHL PUSH1 0x0 MSTORE PUSH1 0x41 PUSH1 0x4 MSTORE PUSH1 0x24 PUSH1 0x0 REVERT JUMPDEST PUSH1 0x0 DUP1 PUSH1 0x0 DUP1 PUSH1 0x80 DUP6 DUP8 SUB SLT ISZERO PUSH3 0xA6 JUMPI PUSH1 0x0 DUP1 REVERT JUMPDEST DUP5 MLOAD PUSH1 0x1 PUSH1 0x1 PUSH1 0xA0 SHL SUB DUP2 AND DUP2 EQ PUSH3 0xBE JUMPI PUSH1 0x0 DUP1 REVERT JUMPDEST PUSH1 0x20 DUP7 DUP2 ADD MLOAD SWAP2 SWAP6 POP SWAP1 PUSH1 0x1 PUSH1 0x1 PUSH1 0x40 SHL SUB DUP1 DUP3 GT ISZERO PUSH3 0xDE JUMPI PUSH1 0x0 DUP1 REVERT JUMPDEST DUP2 DUP9 ADD SWAP2 POP DUP9 PUSH1 0x1F DUP4 ADD SLT PUSH3 0xF3 JUMPI PUSH1 0x0 DUP1 REVERT JUMPDEST DUP2 MLOAD DUP2 DUP2 GT ISZERO PUSH3 0x108 JUMPI PUSH3 0x108 PUSH3 0x79 JUMP JUMPDEST PUSH1 0x40 MLOAD PUSH1 0x1F DUP3 ADD PUSH1 0x1F NOT SWAP1 DUP2 AND PUSH1 0x3F ADD AND DUP2 ADD SWAP1 DUP4 DUP3 GT DUP2 DUP4 LT OR ISZERO PUSH3 0x133 JUMPI PUSH3 0x133 PUSH3 0x79 JUMP JUMPDEST DUP2 PUSH1 0x40 MSTORE DUP3 DUP2 MSTORE DUP12 DUP7 DUP5 DUP8 ADD ADD GT ISZERO PUSH3 0x14C JUMPI PUSH1 0x0 DUP1 REVERT JUMPDEST PUSH1 0x0 SWAP4 POP JUMPDEST DUP3 DUP5 LT ISZERO PUSH3 0x170 JUMPI DUP5 DUP5 ADD DUP7 ADD MLOAD DUP2 DUP6 ADD DUP8 ADD MSTORE SWAP3 DUP6 ADD SWAP3 PUSH3 0x151 JUMP JUMPDEST PUSH1 0x0 SWAP3 DUP2 ADD SWAP1 SWAP6 ADD SWAP2 SWAP1 SWAP2 MSTORE POP POP POP PUSH1 0x40 DUP7 ADD MLOAD PUSH1 0x60 SWAP1 SWAP7 ADD MLOAD SWAP5 SWAP8 SWAP1 SWAP7 POP SWAP3 POP POP POP JUMP JUMPDEST PUSH1 0x1 DUP2 DUP2 SHR SWAP1 DUP3 AND DUP1 PUSH3 0x1AA JUMPI PUSH1 0x7F DUP3 AND SWAP2 POP JUMPDEST PUSH1 0x20 DUP3 LT DUP2 SUB PUSH3 0x1CB JUMPI PUSH4 0x4E487B71 PUSH1 0xE0 SHL PUSH1 0x0 MSTORE PUSH1 0x22 PUSH1 0x4 MSTORE PUSH1 0x24 PUSH1 0x0 REVERT JUMPDEST POP SWAP2 SWAP1 POP JUMP JUMPDEST PUSH1 0x1F DUP3 GT ISZERO PUSH3 0x221 JUMPI PUSH1 0x0 DUP2 PUSH1 0x0 MSTORE PUSH1 0x20 PUSH1 0x0 KECCAK256 PUSH1 0x1F DUP6 ADD PUSH1 0x5 SHR DUP2 ADD PUSH1 0x20 DUP7 LT ISZERO PUSH3 0x1FC JUMPI POP DUP1 JUMPDEST PUSH1 0x1F DUP6 ADD PUSH1 0x5 SHR DUP3 ADD SWAP2 POP JUMPDEST DUP2 DUP2 LT ISZERO PUSH3 0x21D JUMPI DUP3 DUP2 SSTORE PUSH1 0x1 ADD PUSH3 0x208 JUMP JUMPDEST POP POP POP JUMPDEST POP POP POP JUMP JUMPDEST DUP2 MLOAD PUSH1 0x1 PUSH1 0x1 PUSH1 0x40 SHL SUB DUP2 GT ISZERO PUSH3 0x242 JUMPI PUSH3 0x242 PUSH3 0x79 JUMP JUMPDEST PUSH3 0x25A DUP2 PUSH3 0x253 DUP5 SLOAD PUSH3 0x195 JUMP JUMPDEST DUP5 PUSH3 0x1D1 JUMP JUMPDEST PUSH1 0x20 DUP1 PUSH1 0x1F DUP4 GT PUSH1 0x1 DUP2 EQ PUSH3 0x292 JUMPI PUSH1 0x0 DUP5 ISZERO PUSH3 0x279 JUMPI POP DUP6 DUP4 ADD MLOAD JUMPDEST PUSH1 0x0 NOT PUSH1 0x3 DUP7 SWAP1 SHL SHR NOT AND PUSH1 0x1 DUP6 SWAP1 SHL OR DUP6 SSTORE PUSH3 0x21D JUMP JUMPDEST PUSH1 0x0 DUP6 DUP2 MSTORE PUSH1 0x20 DUP2 KECCAK256 PUSH1 0x1F NOT DUP7 AND SWAP2 JUMPDEST DUP3 DUP2 LT ISZERO PUSH3 0x2C3 JUMPI DUP9 DUP7 ADD MLOAD DUP3 SSTORE SWAP5 DUP5 ADD SWAP5 PUSH1 0x1 SWAP1 SWAP2 ADD SWAP1 DUP5 ADD PUSH3 0x2A2 JUMP JUMPDEST POP DUP6 DUP3 LT ISZERO PUSH3 0x2E2 JUMPI DUP8 DUP6 ADD MLOAD PUSH1 0x0 NOT PUSH1 0x3 DUP9 SWAP1 SHL PUSH1 0xF8 AND SHR NOT AND DUP2 SSTORE JUMPDEST POP POP POP POP POP PUSH1 0x1 SWAP1 DUP2 SHL ADD SWAP1 SSTORE POP JUMP JUMPDEST PUSH2 0xCC9 DUP1 PUSH3 0x302 PUSH1 0x0 CODECOPY PUSH1 0x0 RETURN INVALID PUSH1 0x80 PUSH1 0x40 MSTORE PUSH1 0x4 CALLDATASIZE LT PUSH2 0xC2 JUMPI PUSH1 0x0 CALLDATALOAD PUSH1 0xE0 SHR DUP1 PUSH4 0x893D20E8 GT PUSH2 0x7F JUMPI DUP1 PUSH4 0xA118BABD GT PUSH2 0x59 JUMPI DUP1 PUSH4 0xA118BABD EQ PUSH2 0x1E5 JUMPI DUP1 PUSH4 0xBFD1A5F6 EQ PUSH2 0x1FA JUMPI DUP1 PUSH4 0xDD3F1B55 EQ PUSH2 0x21A JUMPI DUP1 PUSH4 0xEF47243D EQ PUSH2 0x23F JUMPI PUSH1 0x0 DUP1 REVERT JUMPDEST DUP1 PUSH4 0x893D20E8 EQ PUSH2 0x17B JUMPI DUP1 PUSH4 0x98D5FDCA EQ PUSH2 0x1AD JUMPI DUP1 PUSH4 0x9C9F2052 EQ PUSH2 0x1C2 JUMPI PUSH1 0x0 DUP1 REVERT JUMPDEST DUP1 PUSH4 0x10F34602 EQ PUSH2 0xC7 JUMPI DUP1 PUSH4 0x1A092541 EQ PUSH2 0xEB JUMPI DUP1 PUSH4 0x3086848F EQ PUSH2 0x10D JUMPI DUP1 PUSH4 0x455772D2 EQ PUSH2 0x124 JUMPI DUP1 PUSH4 0x4E69D560 EQ PUSH2 0x146 JUMPI DUP1 PUSH4 0x755D7BBD EQ PUSH2 0x166 JUMPI JUMPDEST PUSH1 0x0 DUP1 REVERT JUMPDEST CALLVALUE DUP1 ISZERO PUSH2 0xD3 JUMPI PUSH1 0x0 DUP1 REVERT JUMPDEST POP PUSH1 0x3 SLOAD JUMPDEST PUSH1 0x40 MLOAD SWAP1 DUP2 MSTORE PUSH1 0x20 ADD JUMPDEST PUSH1 0x40 MLOAD DUP1 SWAP2 SUB SWAP1 RETURN JUMPDEST CALLVALUE DUP1 ISZERO PUSH2 0xF7 JUMPI PUSH1 0x0 DUP1 REVERT JUMPDEST POP PUSH2 0x100 PUSH2 0x247 JUMP JUMPDEST PUSH1 0x40 MLOAD PUSH2 0xE2 SWAP2 SWAP1 PUSH2 0xAF7 JUMP JUMPDEST CALLVALUE DUP1 ISZERO PUSH2 0x119 JUMPI PUSH1 0x0 DUP1 REVERT JUMPDEST POP PUSH2 0x122 PUSH2 0x2D9 JUMP JUMPDEST STOP JUMPDEST CALLVALUE DUP1 ISZERO PUSH2 0x130 JUMPI PUSH1 0x0 DUP1 REVERT JUMPDEST POP PUSH2 0x139 PUSH2 0x478 JUMP JUMPDEST PUSH1 0x40 MLOAD PUSH2 0xE2 SWAP2 SWAP1 PUSH2 0xB46 JUMP JUMPDEST CALLVALUE DUP1 ISZERO PUSH2 0x152 JUMPI PUSH1 0x0 DUP1 REVERT JUMPDEST POP PUSH1 0x4 SLOAD PUSH1 0xFF AND PUSH1 0x40 MLOAD PUSH2 0xE2 SWAP2 SWAP1 PUSH2 0xBA9 JUMP JUMPDEST CALLVALUE DUP1 ISZERO PUSH2 0x172 JUMPI PUSH1 0x0 DUP1 REVERT JUMPDEST POP PUSH2 0x122 PUSH2 0x4D9 JUMP JUMPDEST CALLVALUE DUP1 ISZERO PUSH2 0x187 JUMPI PUSH1 0x0 DUP1 REVERT JUMPDEST POP PUSH1 0x0 SLOAD PUSH1 0x1 PUSH1 0x1 PUSH1 0xA0 SHL SUB AND JUMPDEST PUSH1 0x40 MLOAD PUSH1 0x1 PUSH1 0x1 PUSH1 0xA0 SHL SUB SWAP1 SWAP2 AND DUP2 MSTORE PUSH1 0x20 ADD PUSH2 0xE2 JUMP JUMPDEST CALLVALUE DUP1 ISZERO PUSH2 0x1B9 JUMPI PUSH1 0x0 DUP1 REVERT JUMPDEST POP PUSH1 0x2 SLOAD PUSH2 0xD8 JUMP JUMPDEST CALLVALUE DUP1 ISZERO PUSH2 0x1CE JUMPI PUSH1 0x0 DUP1 REVERT JUMPDEST POP PUSH1 0x4 SLOAD PUSH2 0x100 SWAP1 DIV PUSH1 0x1 PUSH1 0x1 PUSH1 0xA0 SHL SUB AND PUSH2 0x195 JUMP JUMPDEST CALLVALUE DUP1 ISZERO PUSH2 0x1F1 JUMPI PUSH1 0x0 DUP1 REVERT JUMPDEST POP PUSH2 0x122 PUSH2 0x655 JUMP JUMPDEST CALLVALUE DUP1 ISZERO PUSH2 0x206 JUMPI PUSH1 0x0 DUP1 REVERT JUMPDEST POP PUSH2 0x122 PUSH2 0x215 CALLDATASIZE PUSH1 0x4 PUSH2 0xBD1 JUMP JUMPDEST PUSH2 0x83F JUMP JUMPDEST CALLVALUE DUP1 ISZERO PUSH2 0x226 JUMPI PUSH1 0x0 DUP1 REVERT JUMPDEST POP PUSH2 0x22F PUSH2 0x990 JUMP JUMPDEST PUSH1 0x40 MLOAD SWAP1 ISZERO ISZERO DUP2 MSTORE PUSH1 0x20 ADD PUSH2 0xE2 JUMP JUMPDEST PUSH2 0x122 PUSH2 0x9B0 JUMP JUMPDEST PUSH1 0x60 PUSH1 0x1 DUP1 SLOAD PUSH2 0x256 SWAP1 PUSH2 0xC01 JUMP JUMPDEST DUP1 PUSH1 0x1F ADD PUSH1 0x20 DUP1 SWAP2 DIV MUL PUSH1 0x20 ADD PUSH1 0x40 MLOAD SWAP1 DUP2 ADD PUSH1 0x40 MSTORE DUP1 SWAP3 SWAP2 SWAP1 DUP2 DUP2 MSTORE PUSH1 0x20 ADD DUP3 DUP1 SLOAD PUSH2 0x282 SWAP1 PUSH2 0xC01 JUMP JUMPDEST DUP1 ISZERO PUSH2 0x2CF JUMPI DUP1 PUSH1 0x1F LT PUSH2 0x2A4 JUMPI PUSH2 0x100 DUP1 DUP4 SLOAD DIV MUL DUP4 MSTORE SWAP2 PUSH1 0x20 ADD SWAP2 PUSH2 0x2CF JUMP JUMPDEST DUP3 ADD SWAP2 SWAP1 PUSH1 0x0 MSTORE PUSH1 0x20 PUSH1 0x0 KECCAK256 SWAP1 JUMPDEST DUP2 SLOAD DUP2 MSTORE SWAP1 PUSH1 0x1 ADD SWAP1 PUSH1 0x20 ADD DUP1 DUP4 GT PUSH2 0x2B2 JUMPI DUP3 SWAP1 SUB PUSH1 0x1F AND DUP3 ADD SWAP2 JUMPDEST POP POP POP POP POP SWAP1 POP SWAP1 JUMP JUMPDEST PUSH1 0x0 SLOAD PUSH1 0x1 PUSH1 0x1 PUSH1 0xA0 SHL SUB AND CALLER EQ PUSH2 0x30C JUMPI PUSH1 0x40 MLOAD PUSH3 0x461BCD PUSH1 0xE5 SHL DUP2 MSTORE PUSH1 0x4 ADD PUSH2 0x303 SWAP1 PUSH2 0xC3B JUMP JUMPDEST PUSH1 0x40 MLOAD DUP1 SWAP2 SUB SWAP1 REVERT JUMPDEST PUSH1 0x3 PUSH1 0x4 DUP1 SLOAD PUSH1 0xFF AND SWAP1 DUP2 GT ISZERO PUSH2 0x325 JUMPI PUSH2 0x325 PUSH2 0xB93 JUMP JUMPDEST SUB PUSH2 0x372 JUMPI PUSH1 0x40 MLOAD PUSH3 0x461BCD PUSH1 0xE5 SHL DUP2 MSTORE PUSH1 0x20 PUSH1 0x4 DUP3 ADD MSTORE PUSH1 0x1C PUSH1 0x24 DUP3 ADD MSTORE PUSH32 0x546865206A6F6220697320616C726561647920636F6D706C6574656400000000 PUSH1 0x44 DUP3 ADD MSTORE PUSH1 0x64 ADD PUSH2 0x303 JUMP JUMPDEST PUSH1 0x2 PUSH1 0x4 DUP1 SLOAD PUSH1 0xFF AND SWAP1 DUP2 GT ISZERO PUSH2 0x38B JUMPI PUSH2 0x38B PUSH2 0xB93 JUMP JUMPDEST EQ PUSH2 0x3D0 JUMPI PUSH1 0x40 MLOAD PUSH3 0x461BCD PUSH1 0xE5 SHL DUP2 MSTORE PUSH1 0x20 PUSH1 0x4 DUP3 ADD MSTORE PUSH1 0x15 PUSH1 0x24 DUP3 ADD MSTORE PUSH21 0x139BC8185C1C1B1A58D85B9D081CD95B1958DD1959 PUSH1 0x5A SHL PUSH1 0x44 DUP3 ADD MSTORE PUSH1 0x64 ADD PUSH2 0x303 JUMP JUMPDEST PUSH1 0x4 SLOAD PUSH2 0x100 SWAP1 DIV PUSH1 0x1 PUSH1 0x1 PUSH1 0xA0 SHL SUB AND PUSH2 0x425 JUMPI PUSH1 0x40 MLOAD PUSH3 0x461BCD PUSH1 0xE5 SHL DUP2 MSTORE PUSH1 0x20 PUSH1 0x4 DUP3 ADD MSTORE PUSH1 0x15 PUSH1 0x24 DUP3 ADD MSTORE PUSH21 0x139BC8185C1C1B1A58D85B9D081CD95B1958DD1959 PUSH1 0x5A SHL PUSH1 0x44 DUP3 ADD MSTORE PUSH1 0x64 ADD PUSH2 0x303 JUMP JUMPDEST PUSH1 0x4 DUP1 SLOAD PUSH1 0xFF NOT AND PUSH1 0x3 OR SWAP1 DUP2 SWAP1 SSTORE PUSH1 0x40 MLOAD PUSH2 0x100 SWAP1 SWAP2 DIV PUSH1 0x1 PUSH1 0x1 PUSH1 0xA0 SHL SUB AND DUP2 MSTORE PUSH32 0xA7CE9489B811CD79BB8695D6AD4051484C96AEA68805FFA76EEA626F7121F800 SWAP1 PUSH1 0x20 ADD JUMPDEST PUSH1 0x40 MLOAD DUP1 SWAP2 SUB SWAP1 LOG1 JUMP JUMPDEST PUSH1 0x60 PUSH1 0x5 DUP1 SLOAD DUP1 PUSH1 0x20 MUL PUSH1 0x20 ADD PUSH1 0x40 MLOAD SWAP1 DUP2 ADD PUSH1 0x40 MSTORE DUP1 SWAP3 SWAP2 SWAP1 DUP2 DUP2 MSTORE PUSH1 0x20 ADD DUP3 DUP1 SLOAD DUP1 ISZERO PUSH2 0x2CF JUMPI PUSH1 0x20 MUL DUP3 ADD SWAP2 SWAP1 PUSH1 0x0 MSTORE PUSH1 0x20 PUSH1 0x0 KECCAK256 SWAP1 JUMPDEST DUP2 SLOAD PUSH1 0x1 PUSH1 0x1 PUSH1 0xA0 SHL SUB AND DUP2 MSTORE PUSH1 0x1 SWAP1 SWAP2 ADD SWAP1 PUSH1 0x20 ADD DUP1 DUP4 GT PUSH2 0x4B2 JUMPI POP POP POP POP POP SWAP1 POP SWAP1 JUMP JUMPDEST PUSH1 0x0 SLOAD PUSH1 0x1 PUSH1 0x1 PUSH1 0xA0 SHL SUB AND CALLER SUB PUSH2 0x528 JUMPI PUSH1 0x40 MLOAD PUSH3 0x461BCD PUSH1 0xE5 SHL DUP2 MSTORE PUSH1 0x20 PUSH1 0x4 DUP3 ADD MSTORE PUSH1 0x12 PUSH1 0x24 DUP3 ADD MSTORE PUSH18 0x4F776E65722063616E6E6F74206170706C79 PUSH1 0x70 SHL PUSH1 0x44 DUP3 ADD MSTORE PUSH1 0x64 ADD PUSH2 0x303 JUMP JUMPDEST PUSH1 0x1 PUSH1 0x4 DUP1 SLOAD PUSH1 0xFF AND SWAP1 DUP2 GT ISZERO PUSH2 0x541 JUMPI PUSH2 0x541 PUSH2 0xB93 JUMP JUMPDEST EQ PUSH2 0x598 JUMPI PUSH1 0x40 MLOAD PUSH3 0x461BCD PUSH1 0xE5 SHL DUP2 MSTORE PUSH1 0x20 PUSH1 0x4 DUP3 ADD MSTORE PUSH1 0x21 PUSH1 0x24 DUP3 ADD MSTORE PUSH32 0x4A6F62206973206E6F7420616363657074696E67206170706C69636174696F6E PUSH1 0x44 DUP3 ADD MSTORE PUSH1 0x73 PUSH1 0xF8 SHL PUSH1 0x64 DUP3 ADD MSTORE PUSH1 0x84 ADD PUSH2 0x303 JUMP JUMPDEST PUSH2 0x5A1 CALLER PUSH2 0xA98 JUMP JUMPDEST ISZERO PUSH2 0x5E0 JUMPI PUSH1 0x40 MLOAD PUSH3 0x461BCD PUSH1 0xE5 SHL DUP2 MSTORE PUSH1 0x20 PUSH1 0x4 DUP3 ADD MSTORE PUSH1 0xF PUSH1 0x24 DUP3 ADD MSTORE PUSH15 0x105B1C9958591E48185C1C1B1A5959 PUSH1 0x8A SHL PUSH1 0x44 DUP3 ADD MSTORE PUSH1 0x64 ADD PUSH2 0x303 JUMP JUMPDEST PUSH1 0x5 DUP1 SLOAD PUSH1 0x1 DUP2 ADD DUP3 SSTORE PUSH1 0x0 SWAP2 SWAP1 SWAP2 MSTORE PUSH32 0x36B6384B5ECA791C62761152D0C79BB0604C104A5FB6F4EB0703F3154BB3DB0 ADD DUP1 SLOAD PUSH1 0x1 PUSH1 0x1 PUSH1 0xA0 SHL SUB NOT AND CALLER SWAP1 DUP2 OR SWAP1 SWAP2 SSTORE PUSH1 0x40 MLOAD SWAP1 DUP2 MSTORE PUSH32 0x83F970044E0C4E2D8A4922431CB57DF4CD6DC71F67B619EB184D105E3B6D917A SWAP1 PUSH1 0x20 ADD PUSH2 0x46E JUMP JUMPDEST PUSH1 0x4 SLOAD PUSH2 0x100 SWAP1 DIV PUSH1 0x1 PUSH1 0x1 PUSH1 0xA0 SHL SUB AND CALLER EQ PUSH2 0x6D0 JUMPI PUSH1 0x40 MLOAD PUSH3 0x461BCD PUSH1 0xE5 SHL DUP2 MSTORE PUSH1 0x20 PUSH1 0x4 DUP3 ADD MSTORE PUSH1 0x33 PUSH1 0x24 DUP3 ADD MSTORE PUSH32 0x4F6E6C79207468652073656C6563746564206170706C6963616E742063616E20 PUSH1 0x44 DUP3 ADD MSTORE PUSH19 0x3832B93337B936903A3434B99030B1BA34B7B7 PUSH1 0x69 SHL PUSH1 0x64 DUP3 ADD MSTORE PUSH1 0x84 ADD PUSH2 0x303 JUMP JUMPDEST PUSH1 0x4 DUP1 SLOAD PUSH1 0xFF AND DUP2 DUP2 GT ISZERO PUSH2 0x6E7 JUMPI PUSH2 0x6E7 PUSH2 0xB93 JUMP JUMPDEST SUB PUSH2 0x74A JUMPI PUSH1 0x40 MLOAD PUSH3 0x461BCD PUSH1 0xE5 SHL DUP2 MSTORE PUSH1 0x20 PUSH1 0x4 DUP3 ADD MSTORE PUSH1 0x2D PUSH1 0x24 DUP3 ADD MSTORE PUSH32 0x546865207061796D656E7420666F722074686973206A6F6220697320616C7265 PUSH1 0x44 DUP3 ADD MSTORE PUSH13 0x30B23C903BB4BA34323930BBB7 PUSH1 0x99 SHL PUSH1 0x64 DUP3 ADD MSTORE PUSH1 0x84 ADD PUSH2 0x303 JUMP JUMPDEST PUSH1 0x3 PUSH1 0x4 DUP1 SLOAD PUSH1 0xFF AND SWAP1 DUP2 GT ISZERO PUSH2 0x763 JUMPI PUSH2 0x763 PUSH2 0xB93 JUMP JUMPDEST EQ PUSH2 0x7A4 JUMPI PUSH1 0x40 MLOAD PUSH3 0x461BCD PUSH1 0xE5 SHL DUP2 MSTORE PUSH1 0x20 PUSH1 0x4 DUP3 ADD MSTORE PUSH1 0x11 PUSH1 0x24 DUP3 ADD MSTORE PUSH17 0x129BD8881B9BDD0818DBDB5C1B195D1959 PUSH1 0x7A SHL PUSH1 0x44 DUP3 ADD MSTORE PUSH1 0x64 ADD PUSH2 0x303 JUMP JUMPDEST PUSH1 0x2 SLOAD PUSH1 0x4 SLOAD PUSH1 0x40 MLOAD PUSH2 0x100 SWAP1 SWAP2 DIV PUSH1 0x1 PUSH1 0x1 PUSH1 0xA0 SHL SUB AND SWAP1 PUSH2 0x8FC DUP4 ISZERO MUL SWAP1 DUP4 SWAP1 PUSH1 0x0 DUP2 DUP2 DUP2 DUP6 DUP9 DUP9 CALL SWAP4 POP POP POP POP ISZERO DUP1 ISZERO PUSH2 0x7E5 JUMPI RETURNDATASIZE PUSH1 0x0 DUP1 RETURNDATACOPY RETURNDATASIZE PUSH1 0x0 REVERT JUMPDEST POP PUSH1 0x4 DUP1 SLOAD PUSH1 0xFF NOT AND DUP2 OR SWAP1 DUP2 SWAP1 SSTORE PUSH1 0x40 DUP1 MLOAD PUSH2 0x100 SWAP1 SWAP3 DIV PUSH1 0x1 PUSH1 0x1 PUSH1 0xA0 SHL SUB AND DUP3 MSTORE PUSH1 0x20 DUP3 ADD DUP4 SWAP1 MSTORE PUSH32 0x84511ECC081974F18E7F3E0DCC19DB078B55BBD3852DDD0DD85B3AEBB7BF94C2 SWAP2 ADD JUMPDEST PUSH1 0x40 MLOAD DUP1 SWAP2 SUB SWAP1 LOG1 POP JUMP JUMPDEST PUSH1 0x0 SLOAD PUSH1 0x1 PUSH1 0x1 PUSH1 0xA0 SHL SUB AND CALLER EQ PUSH2 0x869 JUMPI PUSH1 0x40 MLOAD PUSH3 0x461BCD PUSH1 0xE5 SHL DUP2 MSTORE PUSH1 0x4 ADD PUSH2 0x303 SWAP1 PUSH2 0xC3B JUMP JUMPDEST PUSH1 0x1 PUSH1 0x4 DUP1 SLOAD PUSH1 0xFF AND SWAP1 DUP2 GT ISZERO PUSH2 0x882 JUMPI PUSH2 0x882 PUSH2 0xB93 JUMP JUMPDEST EQ PUSH2 0x8DB JUMPI PUSH1 0x40 MLOAD PUSH3 0x461BCD PUSH1 0xE5 SHL DUP2 MSTORE PUSH1 0x20 PUSH1 0x4 DUP3 ADD MSTORE PUSH1 0x24 DUP1 DUP3 ADD MSTORE PUSH32 0x43616E27742073656C656374206170706C6963616E7420617420746869732073 PUSH1 0x44 DUP3 ADD MSTORE PUSH4 0x74616765 PUSH1 0xE0 SHL PUSH1 0x64 DUP3 ADD MSTORE PUSH1 0x84 ADD PUSH2 0x303 JUMP JUMPDEST PUSH2 0x8E4 DUP2 PUSH2 0xA98 JUMP JUMPDEST PUSH2 0x930 JUMPI PUSH1 0x40 MLOAD PUSH3 0x461BCD PUSH1 0xE5 SHL DUP2 MSTORE PUSH1 0x20 PUSH1 0x4 DUP3 ADD MSTORE PUSH1 0x17 PUSH1 0x24 DUP3 ADD MSTORE PUSH32 0x4164647265737320686173206E6F74206170706C696564000000000000000000 PUSH1 0x44 DUP3 ADD MSTORE PUSH1 0x64 ADD PUSH2 0x303 JUMP JUMPDEST PUSH1 0x4 DUP1 SLOAD PUSH1 0xFF NOT PUSH1 0x1 PUSH1 0x1 PUSH1 0xA0 SHL SUB DUP5 AND PUSH2 0x100 DUP2 MUL SWAP2 SWAP1 SWAP2 AND PUSH1 0x1 PUSH1 0x1 PUSH1 0xA8 SHL SUB NOT SWAP1 SWAP3 AND SWAP2 SWAP1 SWAP2 OR PUSH1 0x2 OR SWAP1 SWAP2 SSTORE PUSH1 0x40 MLOAD SWAP1 DUP2 MSTORE PUSH32 0xD889EF5B807D75AFF859DFDA4C0A241A96844B7254EFFBCC4769891CA9C9A22 SWAP1 PUSH1 0x20 ADD PUSH2 0x834 JUMP JUMPDEST PUSH1 0x0 PUSH1 0x4 DUP1 DUP1 SLOAD PUSH1 0xFF AND SWAP1 DUP2 GT ISZERO PUSH2 0x9AA JUMPI PUSH2 0x9AA PUSH2 0xB93 JUMP JUMPDEST EQ SWAP1 POP SWAP1 JUMP JUMPDEST PUSH1 0x0 SLOAD PUSH1 0x1 PUSH1 0x1 PUSH1 0xA0 SHL SUB AND CALLER EQ PUSH2 0x9DA JUMPI PUSH1 0x40 MLOAD PUSH3 0x461BCD PUSH1 0xE5 SHL DUP2 MSTORE PUSH1 0x4 ADD PUSH2 0x303 SWAP1 PUSH2 0xC3B JUMP JUMPDEST PUSH1 0x2 SLOAD CALLVALUE EQ PUSH2 0xA2B JUMPI PUSH1 0x40 MLOAD PUSH3 0x461BCD PUSH1 0xE5 SHL DUP2 MSTORE PUSH1 0x20 PUSH1 0x4 DUP3 ADD MSTORE PUSH1 0x1E PUSH1 0x24 DUP3 ADD MSTORE PUSH32 0x4D7573742066756E64206A6F6220776974682065786163742070726963650000 PUSH1 0x44 DUP3 ADD MSTORE PUSH1 0x64 ADD PUSH2 0x303 JUMP JUMPDEST PUSH1 0x0 PUSH1 0x4 DUP1 SLOAD PUSH1 0xFF AND SWAP1 DUP2 GT ISZERO PUSH2 0xA44 JUMPI PUSH2 0xA44 PUSH2 0xB93 JUMP JUMPDEST EQ PUSH2 0xA89 JUMPI PUSH1 0x40 MLOAD PUSH3 0x461BCD PUSH1 0xE5 SHL DUP2 MSTORE PUSH1 0x20 PUSH1 0x4 DUP3 ADD MSTORE PUSH1 0x15 PUSH1 0x24 DUP3 ADD MSTORE PUSH21 0x129BD8881A5CC8185B1C9958591E48199D5B991959 PUSH1 0x5A SHL PUSH1 0x44 DUP3 ADD MSTORE PUSH1 0x64 ADD PUSH2 0x303 JUMP JUMPDEST PUSH1 0x4 DUP1 SLOAD PUSH1 0xFF NOT AND PUSH1 0x1 OR SWAP1 SSTORE JUMP JUMPDEST PUSH1 0x0 DUP1 JUMPDEST PUSH1 0x5 SLOAD DUP2 LT ISZERO PUSH2 0xAEE JUMPI DUP3 PUSH1 0x1 PUSH1 0x1 PUSH1 0xA0 SHL SUB AND PUSH1 0x5 DUP3 DUP2 SLOAD DUP2 LT PUSH2 0xAC3 JUMPI PUSH2 0xAC3 PUSH2 0xC7D JUMP JUMPDEST PUSH1 0x0 SWAP2 DUP3 MSTORE PUSH1 0x20 SWAP1 SWAP2 KECCAK256 ADD SLOAD PUSH1 0x1 PUSH1 0x1 PUSH1 0xA0 SHL SUB AND SUB PUSH2 0xAE6 JUMPI POP PUSH1 0x1 SWAP3 SWAP2 POP POP JUMP JUMPDEST PUSH1 0x1 ADD PUSH2 0xA9C JUMP JUMPDEST POP PUSH1 0x0 SWAP3 SWAP2 POP POP JUMP JUMPDEST PUSH1 0x0 PUSH1 0x20 DUP1 DUP4 MSTORE DUP4 MLOAD DUP1 PUSH1 0x20 DUP6 ADD MSTORE PUSH1 0x0 JUMPDEST DUP2 DUP2 LT ISZERO PUSH2 0xB25 JUMPI DUP6 DUP2 ADD DUP4 ADD MLOAD DUP6 DUP3 ADD PUSH1 0x40 ADD MSTORE DUP3 ADD PUSH2 0xB09 JUMP JUMPDEST POP PUSH1 0x0 PUSH1 0x40 DUP3 DUP7 ADD ADD MSTORE PUSH1 0x40 PUSH1 0x1F NOT PUSH1 0x1F DUP4 ADD AND DUP6 ADD ADD SWAP3 POP POP POP SWAP3 SWAP2 POP POP JUMP JUMPDEST PUSH1 0x20 DUP1 DUP3 MSTORE DUP3 MLOAD DUP3 DUP3 ADD DUP2 SWAP1 MSTORE PUSH1 0x0 SWAP2 SWAP1 DUP5 DUP3 ADD SWAP1 PUSH1 0x40 DUP6 ADD SWAP1 DUP5 JUMPDEST DUP2 DUP2 LT ISZERO PUSH2 0xB87 JUMPI DUP4 MLOAD PUSH1 0x1 PUSH1 0x1 PUSH1 0xA0 SHL SUB AND DUP4 MSTORE SWAP3 DUP5 ADD SWAP3 SWAP2 DUP5 ADD SWAP2 PUSH1 0x1 ADD PUSH2 0xB62 JUMP JUMPDEST POP SWAP1 SWAP7 SWAP6 POP POP POP POP POP POP JUMP JUMPDEST PUSH4 0x4E487B71 PUSH1 0xE0 SHL PUSH1 0x0 MSTORE PUSH1 0x21 PUSH1 0x4 MSTORE PUSH1 0x24 PUSH1 0x0 REVERT JUMPDEST PUSH1 0x20 DUP2 ADD PUSH1 0x5 DUP4 LT PUSH2 0xBCB JUMPI PUSH4 0x4E487B71 PUSH1 0xE0 SHL PUSH1 0x0 MSTORE PUSH1 0x21 PUSH1 0x4 MSTORE PUSH1 0x24 PUSH1 0x0 REVERT JUMPDEST SWAP2 SWAP1 MSTORE SWAP1 JUMP JUMPDEST PUSH1 0x0 PUSH1 0x20 DUP3 DUP5 SUB SLT ISZERO PUSH2 0xBE3 JUMPI PUSH1 0x0 DUP1 REVERT JUMPDEST DUP2 CALLDATALOAD PUSH1 0x1 PUSH1 0x1 PUSH1 0xA0 SHL SUB DUP2 AND DUP2 EQ PUSH2 0xBFA JUMPI PUSH1 0x0 DUP1 REVERT JUMPDEST SWAP4 SWAP3 POP POP POP JUMP JUMPDEST PUSH1 0x1 DUP2 DUP2 SHR SWAP1 DUP3 AND DUP1 PUSH2 0xC15 JUMPI PUSH1 0x7F DUP3 AND SWAP2 POP JUMPDEST PUSH1 0x20 DUP3 LT DUP2 SUB PUSH2 0xC35 JUMPI PUSH4 0x4E487B71 PUSH1 0xE0 SHL PUSH1 0x0 MSTORE PUSH1 0x22 PUSH1 0x4 MSTORE PUSH1 0x24 PUSH1 0x0 REVERT JUMPDEST POP SWAP2 SWAP1 POP JUMP JUMPDEST PUSH1 0x20 DUP1 DUP3 MSTORE PUSH1 0x22 SWAP1 DUP3 ADD MSTORE PUSH32 0x4F6E6C79206F776E65722063616E20706572666F726D20746869732061637469 PUSH1 0x40 DUP3 ADD MSTORE PUSH2 0x37B7 PUSH1 0xF1 SHL PUSH1 0x60 DUP3 ADD MSTORE PUSH1 0x80 ADD SWAP1 JUMP JUMPDEST PUSH4 0x4E487B71 PUSH1 0xE0 SHL PUSH1 0x0 MSTORE PUSH1 0x32 PUSH1 0x4 MSTORE PUSH1 0x24 PUSH1 0x0 REVERT INVALID LOG2 PUSH5 0x6970667358 0x22 SLT KECCAK256 JUMPDEST 0x4E 0xEB PUSH13 0xBB7C2F5437B66E5B3D6E455EEF SWAP9 0xED 0xE5 RETURNDATACOPY ISZERO EXTCODEHASH 0xBB PUSH12 0x1CADCC5564338F64736F6C63 NUMBER STOP ADDMOD XOR STOP CALLER "},"methodIdentifiers":{"applyForJob()":"755d7bbd","completeJob()":"3086848f","fundJob()":"ef47243d","getApplicants()":"455772d2","getDescription()":"1a092541","getNumberOfDays()":"10f34602","getOwner()":"893d20e8","getPrice()":"98d5fdca","getSelectedApplicant()":"9c9f2052","getStatus()":"4e69d560","isPaymentWithdrawn()":"dd3f1b55","selectApplicant(address)":"bfd1a5f6","withdrawPayment()":"a118babd"}}}}}