{"contracts/Job.sol":{"Job":{"abi":[{"inputs":[{"internalType":"address","name":"_owner","type":"address"},{"internalType":"string","name":"_description","type":"string"},{"internalType":"uint256","name":"_price","type":"uint256"},{"internalType":"uint256","name":"_numberOfDays","type":"uint256"}],"stateMutability":"payable","type":"constructor"},{"anonymous":false,"inputs":[{"indexed":false,"internalType":"address","name":"applicant","type":"address"}],"name":"ApplicantSelected","type":"event"},{"anonymous":false,"inputs":[{"indexed":false,"internalType":"address","name":"applicant","type":"address"}],"name":"Applied","type":"event"},{"anonymous":false,"inputs":[{"indexed":false,"internalType":"address","name":"applicant","type":"address"}],"name":"JobCompleted","type":"event"},{"anonymous":false,"inputs":[{"indexed":false,"internalType":"address","name":"to","type":"address"},{"indexed":false,"internalType":"uint256","name":"amount","type":"uint256"}],"name":"PaymentWithdrawn","type":"event"},{"inputs":[{"internalType":"uint256","name":"","type":"uint256"}],"name":"applicants","outputs":[{"internalType":"address","name":"","type":"address"}],"stateMutability":"view","type":"function"},{"inputs":[],"name":"applyForJob","outputs":[],"stateMutability":"nonpayable","type":"function"},{"inputs":[],"name":"completeJob","outputs":[],"stateMutability":"nonpayable","type":"function"},{"inputs":[],"name":"description","outputs":[{"internalType":"string","name":"","type":"string"}],"stateMutability":"view","type":"function"},{"inputs":[],"name":"getApplicants","outputs":[{"internalType":"address[]","name":"","type":"address[]"}],"stateMutability":"view","type":"function"},{"inputs":[],"name":"numberOfDays","outputs":[{"internalType":"uint256","name":"","type":"uint256"}],"stateMutability":"view","type":"function"},{"inputs":[],"name":"owner","outputs":[{"internalType":"address","name":"","type":"address"}],"stateMutability":"view","type":"function"},{"inputs":[],"name":"price","outputs":[{"internalType":"uint256","name":"","type":"uint256"}],"stateMutability":"view","type":"function"},{"inputs":[{"internalType":"address","name":"applicant","type":"address"}],"name":"selectApplicant","outputs":[],"stateMutability":"nonpayable","type":"function"},{"inputs":[],"name":"selectedApplicant","outputs":[{"internalType":"address","name":"","type":"address"}],"stateMutability":"view","type":"function"},{"inputs":[],"name":"status","outputs":[{"internalType":"enum Job.Status","name":"","type":"uint8"}],"stateMutability":"view","type":"function"},{"inputs":[],"name":"withdrawPayment","outputs":[],"stateMutability":"nonpayable","type":"function"}],"evm":{"bytecode":{"linkReferences":{},"object":"608060405260405162001d1838038062001d18833981810160405281019062000029919062000339565b8134146200006e576040517f08c379a000000000000000000000000000000000000000000000000000000000815260040162000065906200042b565b60405180910390fd5b836000806101000a81548173ffffffffffffffffffffffffffffffffffffffff021916908373ffffffffffffffffffffffffffffffffffffffff1602179055508260019081620000bf91906200068e565b5081600281905550806003819055506000600460006101000a81548160ff02191690836002811115620000f757620000f662000775565b5b021790555050505050620007a4565b6000604051905090565b600080fd5b600080fd5b600073ffffffffffffffffffffffffffffffffffffffff82169050919050565b600062000147826200011a565b9050919050565b62000159816200013a565b81146200016557600080fd5b50565b60008151905062000179816200014e565b92915050565b600080fd5b600080fd5b6000601f19601f8301169050919050565b7f4e487b7100000000000000000000000000000000000000000000000000000000600052604160045260246000fd5b620001d48262000189565b810181811067ffffffffffffffff82111715620001f657620001f56200019a565b5b80604052505050565b60006200020b62000106565b9050620002198282620001c9565b919050565b600067ffffffffffffffff8211156200023c576200023b6200019a565b5b620002478262000189565b9050602081019050919050565b60005b838110156200027457808201518184015260208101905062000257565b60008484015250505050565b60006200029762000291846200021e565b620001ff565b905082815260208101848484011115620002b657620002b562000184565b5b620002c384828562000254565b509392505050565b600082601f830112620002e357620002e26200017f565b5b8151620002f584826020860162000280565b91505092915050565b6000819050919050565b6200031381620002fe565b81146200031f57600080fd5b50565b600081519050620003338162000308565b92915050565b6000806000806080858703121562000356576200035562000110565b5b6000620003668782880162000168565b945050602085015167ffffffffffffffff8111156200038a576200038962000115565b5b6200039887828801620002cb565b9350506040620003ab8782880162000322565b9250506060620003be8782880162000322565b91505092959194509250565b600082825260208201905092915050565b7f4d7573742066756e64206a6f6220776974682065786163742070726963650000600082015250565b600062000413601e83620003ca565b91506200042082620003db565b602082019050919050565b60006020820190508181036000830152620004468162000404565b9050919050565b600081519050919050565b7f4e487b7100000000000000000000000000000000000000000000000000000000600052602260045260246000fd5b60006002820490506001821680620004a057607f821691505b602082108103620004b657620004b562000458565b5b50919050565b60008190508160005260206000209050919050565b60006020601f8301049050919050565b600082821b905092915050565b600060088302620005207fffffffffffffffffffffffffffffffffffffffffffffffffffffffffffffffff82620004e1565b6200052c8683620004e1565b95508019841693508086168417925050509392505050565b6000819050919050565b60006200056f620005696200056384620002fe565b62000544565b620002fe565b9050919050565b6000819050919050565b6200058b836200054e565b620005a36200059a8262000576565b848454620004ee565b825550505050565b600090565b620005ba620005ab565b620005c781848462000580565b505050565b5b81811015620005ef57620005e3600082620005b0565b600181019050620005cd565b5050565b601f8211156200063e576200060881620004bc565b6200061384620004d1565b8101602085101562000623578190505b6200063b6200063285620004d1565b830182620005cc565b50505b505050565b600082821c905092915050565b6000620006636000198460080262000643565b1980831691505092915050565b60006200067e838362000650565b9150826002028217905092915050565b62000699826200044d565b67ffffffffffffffff811115620006b557620006b46200019a565b5b620006c1825462000487565b620006ce828285620005f3565b600060209050601f831160018114620007065760008415620006f1578287015190505b620006fd858262000670565b8655506200076d565b601f1984166200071686620004bc565b60005b82811015620007405784890151825560018201915060208501945060208101905062000719565b868310156200076057848901516200075c601f89168262000650565b8355505b6001600288020188555050505b505050505050565b7f4e487b7100000000000000000000000000000000000000000000000000000000600052602160045260246000fd5b61156480620007b46000396000f3fe608060405234801561001057600080fd5b50600436106100b45760003560e01c8063755d7bbd11610071578063755d7bbd1461016b5780638da5cb5b14610175578063a035b1fe14610193578063a118babd146101b1578063bfd1a5f6146101bb578063e9f6bd0b146101d7576100b4565b806304707a16146100b9578063200d2ed2146100d75780633086848f146100f5578063455772d2146100ff57806363de53231461011d5780637284e4161461014d575b600080fd5b6100c16101f5565b6040516100ce9190610c71565b60405180910390f35b6100df61021b565b6040516100ec9190610d03565b60405180910390f35b6100fd61022e565b005b610107610449565b6040516101149190610ddc565b60405180910390f35b61013760048036038101906101329190610e39565b6104d7565b6040516101449190610c71565b60405180910390f35b610155610516565b6040516101629190610ef6565b60405180910390f35b6101736105a4565b005b61017d61078d565b60405161018a9190610c71565b60405180910390f35b61019b6107b1565b6040516101a89190610f27565b60405180910390f35b6101b96107b7565b005b6101d560048036038101906101d09190610f6e565b61098a565b005b6101df610b7c565b6040516101ec9190610f27565b60405180910390f35b600460019054906101000a900473ffffffffffffffffffffffffffffffffffffffff1681565b600460009054906101000a900460ff1681565b60008054906101000a900473ffffffffffffffffffffffffffffffffffffffff1673ffffffffffffffffffffffffffffffffffffffff163373ffffffffffffffffffffffffffffffffffffffff16146102bc576040517f08c379a00000000000000000000000000000000000000000000000000000000081526004016102b39061100d565b60405180910390fd5b600160028111156102d0576102cf610c8c565b5b600460009054906101000a900460ff1660028111156102f2576102f1610c8c565b5b14610332576040517f08c379a000000000000000000000000000000000000000000000000000000000815260040161032990611079565b60405180910390fd5b600073ffffffffffffffffffffffffffffffffffffffff16600460019054906101000a900473ffffffffffffffffffffffffffffffffffffffff1673ffffffffffffffffffffffffffffffffffffffff16036103c3576040517f08c379a00000000000000000000000000000000000000000000000000000000081526004016103ba90611079565b60405180910390fd5b6002600460006101000a81548160ff021916908360028111156103e9576103e8610c8c565b5b02179055507fa7ce9489b811cd79bb8695d6ad4051484c96aea68805ffa76eea626f7121f800600460019054906101000a900473ffffffffffffffffffffffffffffffffffffffff1660405161043f9190610c71565b60405180910390a1565b606060058054806020026020016040519081016040528092919081815260200182805480156104cd57602002820191906000526020600020905b8160009054906101000a900473ffffffffffffffffffffffffffffffffffffffff1673ffffffffffffffffffffffffffffffffffffffff1681526020019060010190808311610483575b5050505050905090565b600581815481106104e757600080fd5b906000526020600020016000915054906101000a900473ffffffffffffffffffffffffffffffffffffffff1681565b60018054610523906110c8565b80601f016020809104026020016040519081016040528092919081815260200182805461054f906110c8565b801561059c5780601f106105715761010080835404028352916020019161059c565b820191906000526020600020905b81548152906001019060200180831161057f57829003601f168201915b505050505081565b60008054906101000a900473ffffffffffffffffffffffffffffffffffffffff1673ffffffffffffffffffffffffffffffffffffffff163373ffffffffffffffffffffffffffffffffffffffff1603610632576040517f08c379a000000000000000000000000000000000000000000000000000000000815260040161062990611145565b60405180910390fd5b6000600281111561064657610645610c8c565b5b600460009054906101000a900460ff16600281111561066857610667610c8c565b5b146106a8576040517f08c379a000000000000000000000000000000000000000000000000000000000815260040161069f906111d7565b60405180910390fd5b6106b133610b82565b156106f1576040517f08c379a00000000000000000000000000000000000000000000000000000000081526004016106e890611243565b60405180910390fd5b6005339080600181540180825580915050600190039060005260206000200160009091909190916101000a81548173ffffffffffffffffffffffffffffffffffffffff021916908373ffffffffffffffffffffffffffffffffffffffff1602179055507f83f970044e0c4e2d8a4922431cb57df4cd6dc71f67b619eb184d105e3b6d917a336040516107839190610c71565b60405180910390a1565b60008054906101000a900473ffffffffffffffffffffffffffffffffffffffff1681565b60025481565b600460019054906101000a900473ffffffffffffffffffffffffffffffffffffffff1673ffffffffffffffffffffffffffffffffffffffff163373ffffffffffffffffffffffffffffffffffffffff1614610847576040517f08c379a000000000000000000000000000000000000000000000000000000000815260040161083e906112d5565b60405180910390fd5b60028081111561085a57610859610c8c565b5b600460009054906101000a900460ff16600281111561087c5761087b610c8c565b5b146108bc576040517f08c379a00000000000000000000000000000000000000000000000000000000081526004016108b390611341565b60405180910390fd5b60006002549050600460019054906101000a900473ffffffffffffffffffffffffffffffffffffffff1673ffffffffffffffffffffffffffffffffffffffff166108fc829081150290604051600060405180830381858888f1935050505015801561092b573d6000803e3d6000fd5b507f84511ecc081974f18e7f3e0dcc19db078b55bbd3852ddd0dd85b3aebb7bf94c2600460019054906101000a900473ffffffffffffffffffffffffffffffffffffffff168260405161097f929190611361565b60405180910390a150565b60008054906101000a900473ffffffffffffffffffffffffffffffffffffffff1673ffffffffffffffffffffffffffffffffffffffff163373ffffffffffffffffffffffffffffffffffffffff1614610a18576040517f08c379a0000000000000000000000000000000000000000000000000000000008152600401610a0f9061100d565b60405180910390fd5b60006002811115610a2c57610a2b610c8c565b5b600460009054906101000a900460ff166002811115610a4e57610a4d610c8c565b5b14610a8e576040517f08c379a0000000000000000000000000000000000000000000000000000000008152600401610a85906113fc565b60405180910390fd5b610a9781610b82565b610ad6576040517f08c379a0000000000000000000000000000000000000000000000000000000008152600401610acd90611468565b60405180910390fd5b80600460016101000a81548173ffffffffffffffffffffffffffffffffffffffff021916908373ffffffffffffffffffffffffffffffffffffffff1602179055506001600460006101000a81548160ff02191690836002811115610b3d57610b3c610c8c565b5b02179055507f0d889ef5b807d75aff859dfda4c0a241a96844b7254effbcc4769891ca9c9a2281604051610b719190610c71565b60405180910390a150565b60035481565b600080600090505b600580549050811015610c25578273ffffffffffffffffffffffffffffffffffffffff1660058281548110610bc257610bc1611488565b5b9060005260206000200160009054906101000a900473ffffffffffffffffffffffffffffffffffffffff1673ffffffffffffffffffffffffffffffffffffffff1603610c12576001915050610c2b565b8080610c1d906114e6565b915050610b8a565b50600090505b919050565b600073ffffffffffffffffffffffffffffffffffffffff82169050919050565b6000610c5b82610c30565b9050919050565b610c6b81610c50565b82525050565b6000602082019050610c866000830184610c62565b92915050565b7f4e487b7100000000000000000000000000000000000000000000000000000000600052602160045260246000fd5b60038110610ccc57610ccb610c8c565b5b50565b6000819050610cdd82610cbb565b919050565b6000610ced82610ccf565b9050919050565b610cfd81610ce2565b82525050565b6000602082019050610d186000830184610cf4565b92915050565b600081519050919050565b600082825260208201905092915050565b6000819050602082019050919050565b610d5381610c50565b82525050565b6000610d658383610d4a565b60208301905092915050565b6000602082019050919050565b6000610d8982610d1e565b610d938185610d29565b9350610d9e83610d3a565b8060005b83811015610dcf578151610db68882610d59565b9750610dc183610d71565b925050600181019050610da2565b5085935050505092915050565b60006020820190508181036000830152610df68184610d7e565b905092915050565b600080fd5b6000819050919050565b610e1681610e03565b8114610e2157600080fd5b50565b600081359050610e3381610e0d565b92915050565b600060208284031215610e4f57610e4e610dfe565b5b6000610e5d84828501610e24565b91505092915050565b600081519050919050565b600082825260208201905092915050565b60005b83811015610ea0578082015181840152602081019050610e85565b60008484015250505050565b6000601f19601f8301169050919050565b6000610ec882610e66565b610ed28185610e71565b9350610ee2818560208601610e82565b610eeb81610eac565b840191505092915050565b60006020820190508181036000830152610f108184610ebd565b905092915050565b610f2181610e03565b82525050565b6000602082019050610f3c6000830184610f18565b92915050565b610f4b81610c50565b8114610f5657600080fd5b50565b600081359050610f6881610f42565b92915050565b600060208284031215610f8457610f83610dfe565b5b6000610f9284828501610f59565b91505092915050565b7f4f6e6c79206f776e65722063616e20706572666f726d2074686973206163746960008201527f6f6e000000000000000000000000000000000000000000000000000000000000602082015250565b6000610ff7602283610e71565b915061100282610f9b565b604082019050919050565b6000602082019050818103600083015261102681610fea565b9050919050565b7f4e6f206170706c6963616e742073656c65637465640000000000000000000000600082015250565b6000611063601583610e71565b915061106e8261102d565b602082019050919050565b6000602082019050818103600083015261109281611056565b9050919050565b7f4e487b7100000000000000000000000000000000000000000000000000000000600052602260045260246000fd5b600060028204905060018216806110e057607f821691505b6020821081036110f3576110f2611099565b5b50919050565b7f4f776e65722063616e6e6f74206170706c790000000000000000000000000000600082015250565b600061112f601283610e71565b915061113a826110f9565b602082019050919050565b6000602082019050818103600083015261115e81611122565b9050919050565b7f4a6f62206973206e6f7420616363657074696e67206170706c69636174696f6e60008201527f7300000000000000000000000000000000000000000000000000000000000000602082015250565b60006111c1602183610e71565b91506111cc82611165565b604082019050919050565b600060208201905081810360008301526111f0816111b4565b9050919050565b7f416c7265616479206170706c6965640000000000000000000000000000000000600082015250565b600061122d600f83610e71565b9150611238826111f7565b602082019050919050565b6000602082019050818103600083015261125c81611220565b9050919050565b7f4f6e6c79207468652073656c6563746564206170706c6963616e742063616e2060008201527f706572666f726d207468697320616374696f6e00000000000000000000000000602082015250565b60006112bf603383610e71565b91506112ca82611263565b604082019050919050565b600060208201905081810360008301526112ee816112b2565b9050919050565b7f4a6f62206e6f7420636f6d706c65746564000000000000000000000000000000600082015250565b600061132b601183610e71565b9150611336826112f5565b602082019050919050565b6000602082019050818103600083015261135a8161131e565b9050919050565b60006040820190506113766000830185610c62565b6113836020830184610f18565b9392505050565b7f43616e27742073656c656374206170706c6963616e742061742074686973207360008201527f7461676500000000000000000000000000000000000000000000000000000000602082015250565b60006113e6602483610e71565b91506113f18261138a565b604082019050919050565b60006020820190508181036000830152611415816113d9565b9050919050565b7f4164647265737320686173206e6f74206170706c696564000000000000000000600082015250565b6000611452601783610e71565b915061145d8261141c565b602082019050919050565b6000602082019050818103600083015261148181611445565b9050919050565b7f4e487b7100000000000000000000000000000000000000000000000000000000600052603260045260246000fd5b7f4e487b7100000000000000000000000000000000000000000000000000000000600052601160045260246000fd5b60006114f182610e03565b91507fffffffffffffffffffffffffffffffffffffffffffffffffffffffffffffffff8203611523576115226114b7565b5b60018201905091905056fea2646970667358221220c9c2da45c2191d530802d7085dc64d4f1890babd0e70570440333e761960edf964736f6c63430008130033","opcodes":"PUSH1 0x80 PUSH1 0x40 MSTORE PUSH1 0x40 MLOAD PUSH3 0x1D18 CODESIZE SUB DUP1 PUSH3 0x1D18 DUP4 CODECOPY DUP2 DUP2 ADD PUSH1 0x40 MSTORE DUP2 ADD SWAP1 PUSH3 0x29 SWAP2 SWAP1 PUSH3 0x339 JUMP JUMPDEST DUP2 CALLVALUE EQ PUSH3 0x6E JUMPI PUSH1 0x40 MLOAD PUSH32 0x8C379A000000000000000000000000000000000000000000000000000000000 DUP2 MSTORE PUSH1 0x4 ADD PUSH3 0x65 SWAP1 PUSH3 0x42B JUMP JUMPDEST PUSH1 0x40 MLOAD DUP1 SWAP2 SUB SWAP1 REVERT JUMPDEST DUP4 PUSH1 0x0 DUP1 PUSH2 0x100 EXP DUP2 SLOAD DUP2 PUSH20 0xFFFFFFFFFFFFFFFFFFFFFFFFFFFFFFFFFFFFFFFF MUL NOT AND SWAP1 DUP4 PUSH20 0xFFFFFFFFFFFFFFFFFFFFFFFFFFFFFFFFFFFFFFFF AND MUL OR SWAP1 SSTORE POP DUP3 PUSH1 0x1 SWAP1 DUP2 PUSH3 0xBF SWAP2 SWAP1 PUSH3 0x68E JUMP JUMPDEST POP DUP2 PUSH1 0x2 DUP2 SWAP1 SSTORE POP DUP1 PUSH1 0x3 DUP2 SWAP1 SSTORE POP PUSH1 0x0 PUSH1 0x4 PUSH1 0x0 PUSH2 0x100 EXP DUP2 SLOAD DUP2 PUSH1 0xFF MUL NOT AND SWAP1 DUP4 PUSH1 0x2 DUP2 GT ISZERO PUSH3 0xF7 JUMPI PUSH3 0xF6 PUSH3 0x775 JUMP JUMPDEST JUMPDEST MUL OR SWAP1 SSTORE POP POP POP POP POP PUSH3 0x7A4 JUMP JUMPDEST PUSH1 0x0 PUSH1 0x40 MLOAD SWAP1 POP SWAP1 JUMP JUMPDEST PUSH1 0x0 DUP1 REVERT JUMPDEST PUSH1 0x0 DUP1 REVERT JUMPDEST PUSH1 0x0 PUSH20 0xFFFFFFFFFFFFFFFFFFFFFFFFFFFFFFFFFFFFFFFF DUP3 AND SWAP1 POP SWAP2 SWAP1 POP JUMP JUMPDEST PUSH1 0x0 PUSH3 0x147 DUP3 PUSH3 0x11A JUMP JUMPDEST SWAP1 POP SWAP2 SWAP1 POP JUMP JUMPDEST PUSH3 0x159 DUP2 PUSH3 0x13A JUMP JUMPDEST DUP2 EQ PUSH3 0x165 JUMPI PUSH1 0x0 DUP1 REVERT JUMPDEST POP JUMP JUMPDEST PUSH1 0x0 DUP2 MLOAD SWAP1 POP PUSH3 0x179 DUP2 PUSH3 0x14E JUMP JUMPDEST SWAP3 SWAP2 POP POP JUMP JUMPDEST PUSH1 0x0 DUP1 REVERT JUMPDEST PUSH1 0x0 DUP1 REVERT JUMPDEST PUSH1 0x0 PUSH1 0x1F NOT PUSH1 0x1F DUP4 ADD AND SWAP1 POP SWAP2 SWAP1 POP JUMP JUMPDEST PUSH32 0x4E487B7100000000000000000000000000000000000000000000000000000000 PUSH1 0x0 MSTORE PUSH1 0x41 PUSH1 0x4 MSTORE PUSH1 0x24 PUSH1 0x0 REVERT JUMPDEST PUSH3 0x1D4 DUP3 PUSH3 0x189 JUMP JUMPDEST DUP2 ADD DUP2 DUP2 LT PUSH8 0xFFFFFFFFFFFFFFFF DUP3 GT OR ISZERO PUSH3 0x1F6 JUMPI PUSH3 0x1F5 PUSH3 0x19A JUMP JUMPDEST JUMPDEST DUP1 PUSH1 0x40 MSTORE POP POP POP JUMP JUMPDEST PUSH1 0x0 PUSH3 0x20B PUSH3 0x106 JUMP JUMPDEST SWAP1 POP PUSH3 0x219 DUP3 DUP3 PUSH3 0x1C9 JUMP JUMPDEST SWAP2 SWAP1 POP JUMP JUMPDEST PUSH1 0x0 PUSH8 0xFFFFFFFFFFFFFFFF DUP3 GT ISZERO PUSH3 0x23C JUMPI PUSH3 0x23B PUSH3 0x19A JUMP JUMPDEST JUMPDEST PUSH3 0x247 DUP3 PUSH3 0x189 JUMP JUMPDEST SWAP1 POP PUSH1 0x20 DUP2 ADD SWAP1 POP SWAP2 SWAP1 POP JUMP JUMPDEST PUSH1 0x0 JUMPDEST DUP4 DUP2 LT ISZERO PUSH3 0x274 JUMPI DUP1 DUP3 ADD MLOAD DUP2 DUP5 ADD MSTORE PUSH1 0x20 DUP2 ADD SWAP1 POP PUSH3 0x257 JUMP JUMPDEST PUSH1 0x0 DUP5 DUP5 ADD MSTORE POP POP POP POP JUMP JUMPDEST PUSH1 0x0 PUSH3 0x297 PUSH3 0x291 DUP5 PUSH3 0x21E JUMP JUMPDEST PUSH3 0x1FF JUMP JUMPDEST SWAP1 POP DUP3 DUP2 MSTORE PUSH1 0x20 DUP2 ADD DUP5 DUP5 DUP5 ADD GT ISZERO PUSH3 0x2B6 JUMPI PUSH3 0x2B5 PUSH3 0x184 JUMP JUMPDEST JUMPDEST PUSH3 0x2C3 DUP5 DUP3 DUP6 PUSH3 0x254 JUMP JUMPDEST POP SWAP4 SWAP3 POP POP POP JUMP JUMPDEST PUSH1 0x0 DUP3 PUSH1 0x1F DUP4 ADD SLT PUSH3 0x2E3 JUMPI PUSH3 0x2E2 PUSH3 0x17F JUMP JUMPDEST JUMPDEST DUP2 MLOAD PUSH3 0x2F5 DUP5 DUP3 PUSH1 0x20 DUP7 ADD PUSH3 0x280 JUMP JUMPDEST SWAP2 POP POP SWAP3 SWAP2 POP POP JUMP JUMPDEST PUSH1 0x0 DUP2 SWAP1 POP SWAP2 SWAP1 POP JUMP JUMPDEST PUSH3 0x313 DUP2 PUSH3 0x2FE JUMP JUMPDEST DUP2 EQ PUSH3 0x31F JUMPI PUSH1 0x0 DUP1 REVERT JUMPDEST POP JUMP JUMPDEST PUSH1 0x0 DUP2 MLOAD SWAP1 POP PUSH3 0x333 DUP2 PUSH3 0x308 JUMP JUMPDEST SWAP3 SWAP2 POP POP JUMP JUMPDEST PUSH1 0x0 DUP1 PUSH1 0x0 DUP1 PUSH1 0x80 DUP6 DUP8 SUB SLT ISZERO PUSH3 0x356 JUMPI PUSH3 0x355 PUSH3 0x110 JUMP JUMPDEST JUMPDEST PUSH1 0x0 PUSH3 0x366 DUP8 DUP3 DUP9 ADD PUSH3 0x168 JUMP JUMPDEST SWAP5 POP POP PUSH1 0x20 DUP6 ADD MLOAD PUSH8 0xFFFFFFFFFFFFFFFF DUP2 GT ISZERO PUSH3 0x38A JUMPI PUSH3 0x389 PUSH3 0x115 JUMP JUMPDEST JUMPDEST PUSH3 0x398 DUP8 DUP3 DUP9 ADD PUSH3 0x2CB JUMP JUMPDEST SWAP4 POP POP PUSH1 0x40 PUSH3 0x3AB DUP8 DUP3 DUP9 ADD PUSH3 0x322 JUMP JUMPDEST SWAP3 POP POP PUSH1 0x60 PUSH3 0x3BE DUP8 DUP3 DUP9 ADD PUSH3 0x322 JUMP JUMPDEST SWAP2 POP POP SWAP3 SWAP6 SWAP2 SWAP5 POP SWAP3 POP JUMP JUMPDEST PUSH1 0x0 DUP3 DUP3 MSTORE PUSH1 0x20 DUP3 ADD SWAP1 POP SWAP3 SWAP2 POP POP JUMP JUMPDEST PUSH32 0x4D7573742066756E64206A6F6220776974682065786163742070726963650000 PUSH1 0x0 DUP3 ADD MSTORE POP JUMP JUMPDEST PUSH1 0x0 PUSH3 0x413 PUSH1 0x1E DUP4 PUSH3 0x3CA JUMP JUMPDEST SWAP2 POP PUSH3 0x420 DUP3 PUSH3 0x3DB JUMP JUMPDEST PUSH1 0x20 DUP3 ADD SWAP1 POP SWAP2 SWAP1 POP JUMP JUMPDEST PUSH1 0x0 PUSH1 0x20 DUP3 ADD SWAP1 POP DUP2 DUP2 SUB PUSH1 0x0 DUP4 ADD MSTORE PUSH3 0x446 DUP2 PUSH3 0x404 JUMP JUMPDEST SWAP1 POP SWAP2 SWAP1 POP JUMP JUMPDEST PUSH1 0x0 DUP2 MLOAD SWAP1 POP SWAP2 SWAP1 POP JUMP JUMPDEST PUSH32 0x4E487B7100000000000000000000000000000000000000000000000000000000 PUSH1 0x0 MSTORE PUSH1 0x22 PUSH1 0x4 MSTORE PUSH1 0x24 PUSH1 0x0 REVERT JUMPDEST PUSH1 0x0 PUSH1 0x2 DUP3 DIV SWAP1 POP PUSH1 0x1 DUP3 AND DUP1 PUSH3 0x4A0 JUMPI PUSH1 0x7F DUP3 AND SWAP2 POP JUMPDEST PUSH1 0x20 DUP3 LT DUP2 SUB PUSH3 0x4B6 JUMPI PUSH3 0x4B5 PUSH3 0x458 JUMP JUMPDEST JUMPDEST POP SWAP2 SWAP1 POP JUMP JUMPDEST PUSH1 0x0 DUP2 SWAP1 POP DUP2 PUSH1 0x0 MSTORE PUSH1 0x20 PUSH1 0x0 KECCAK256 SWAP1 POP SWAP2 SWAP1 POP JUMP JUMPDEST PUSH1 0x0 PUSH1 0x20 PUSH1 0x1F DUP4 ADD DIV SWAP1 POP SWAP2 SWAP1 POP JUMP JUMPDEST PUSH1 0x0 DUP3 DUP3 SHL SWAP1 POP SWAP3 SWAP2 POP POP JUMP JUMPDEST PUSH1 0x0 PUSH1 0x8 DUP4 MUL PUSH3 0x520 PUSH32 0xFFFFFFFFFFFFFFFFFFFFFFFFFFFFFFFFFFFFFFFFFFFFFFFFFFFFFFFFFFFFFFFF DUP3 PUSH3 0x4E1 JUMP JUMPDEST PUSH3 0x52C DUP7 DUP4 PUSH3 0x4E1 JUMP JUMPDEST SWAP6 POP DUP1 NOT DUP5 AND SWAP4 POP DUP1 DUP7 AND DUP5 OR SWAP3 POP POP POP SWAP4 SWAP3 POP POP POP JUMP JUMPDEST PUSH1 0x0 DUP2 SWAP1 POP SWAP2 SWAP1 POP JUMP JUMPDEST PUSH1 0x0 PUSH3 0x56F PUSH3 0x569 PUSH3 0x563 DUP5 PUSH3 0x2FE JUMP JUMPDEST PUSH3 0x544 JUMP JUMPDEST PUSH3 0x2FE JUMP JUMPDEST SWAP1 POP SWAP2 SWAP1 POP JUMP JUMPDEST PUSH1 0x0 DUP2 SWAP1 POP SWAP2 SWAP1 POP JUMP JUMPDEST PUSH3 0x58B DUP4 PUSH3 0x54E JUMP JUMPDEST PUSH3 0x5A3 PUSH3 0x59A DUP3 PUSH3 0x576 JUMP JUMPDEST DUP5 DUP5 SLOAD PUSH3 0x4EE JUMP JUMPDEST DUP3 SSTORE POP POP POP POP JUMP JUMPDEST PUSH1 0x0 SWAP1 JUMP JUMPDEST PUSH3 0x5BA PUSH3 0x5AB JUMP JUMPDEST PUSH3 0x5C7 DUP2 DUP5 DUP5 PUSH3 0x580 JUMP JUMPDEST POP POP POP JUMP JUMPDEST JUMPDEST DUP2 DUP2 LT ISZERO PUSH3 0x5EF JUMPI PUSH3 0x5E3 PUSH1 0x0 DUP3 PUSH3 0x5B0 JUMP JUMPDEST PUSH1 0x1 DUP2 ADD SWAP1 POP PUSH3 0x5CD JUMP JUMPDEST POP POP JUMP JUMPDEST PUSH1 0x1F DUP3 GT ISZERO PUSH3 0x63E JUMPI PUSH3 0x608 DUP2 PUSH3 0x4BC JUMP JUMPDEST PUSH3 0x613 DUP5 PUSH3 0x4D1 JUMP JUMPDEST DUP2 ADD PUSH1 0x20 DUP6 LT ISZERO PUSH3 0x623 JUMPI DUP2 SWAP1 POP JUMPDEST PUSH3 0x63B PUSH3 0x632 DUP6 PUSH3 0x4D1 JUMP JUMPDEST DUP4 ADD DUP3 PUSH3 0x5CC JUMP JUMPDEST POP POP JUMPDEST POP POP POP JUMP JUMPDEST PUSH1 0x0 DUP3 DUP3 SHR SWAP1 POP SWAP3 SWAP2 POP POP JUMP JUMPDEST PUSH1 0x0 PUSH3 0x663 PUSH1 0x0 NOT DUP5 PUSH1 0x8 MUL PUSH3 0x643 JUMP JUMPDEST NOT DUP1 DUP4 AND SWAP2 POP POP SWAP3 SWAP2 POP POP JUMP JUMPDEST PUSH1 0x0 PUSH3 0x67E DUP4 DUP4 PUSH3 0x650 JUMP JUMPDEST SWAP2 POP DUP3 PUSH1 0x2 MUL DUP3 OR SWAP1 POP SWAP3 SWAP2 POP POP JUMP JUMPDEST PUSH3 0x699 DUP3 PUSH3 0x44D JUMP JUMPDEST PUSH8 0xFFFFFFFFFFFFFFFF DUP2 GT ISZERO PUSH3 0x6B5 JUMPI PUSH3 0x6B4 PUSH3 0x19A JUMP JUMPDEST JUMPDEST PUSH3 0x6C1 DUP3 SLOAD PUSH3 0x487 JUMP JUMPDEST PUSH3 0x6CE DUP3 DUP3 DUP6 PUSH3 0x5F3 JUMP JUMPDEST PUSH1 0x0 PUSH1 0x20 SWAP1 POP PUSH1 0x1F DUP4 GT PUSH1 0x1 DUP2 EQ PUSH3 0x706 JUMPI PUSH1 0x0 DUP5 ISZERO PUSH3 0x6F1 JUMPI DUP3 DUP8 ADD MLOAD SWAP1 POP JUMPDEST PUSH3 0x6FD DUP6 DUP3 PUSH3 0x670 JUMP JUMPDEST DUP7 SSTORE POP PUSH3 0x76D JUMP JUMPDEST PUSH1 0x1F NOT DUP5 AND PUSH3 0x716 DUP7 PUSH3 0x4BC JUMP JUMPDEST PUSH1 0x0 JUMPDEST DUP3 DUP2 LT ISZERO PUSH3 0x740 JUMPI DUP5 DUP10 ADD MLOAD DUP3 SSTORE PUSH1 0x1 DUP3 ADD SWAP2 POP PUSH1 0x20 DUP6 ADD SWAP5 POP PUSH1 0x20 DUP2 ADD SWAP1 POP PUSH3 0x719 JUMP JUMPDEST DUP7 DUP4 LT ISZERO PUSH3 0x760 JUMPI DUP5 DUP10 ADD MLOAD PUSH3 0x75C PUSH1 0x1F DUP10 AND DUP3 PUSH3 0x650 JUMP JUMPDEST DUP4 SSTORE POP JUMPDEST PUSH1 0x1 PUSH1 0x2 DUP9 MUL ADD DUP9 SSTORE POP POP POP JUMPDEST POP POP POP POP POP POP JUMP JUMPDEST PUSH32 0x4E487B7100000000000000000000000000000000000000000000000000000000 PUSH1 0x0 MSTORE PUSH1 0x21 PUSH1 0x4 MSTORE PUSH1 0x24 PUSH1 0x0 REVERT JUMPDEST PUSH2 0x1564 DUP1 PUSH3 0x7B4 PUSH1 0x0 CODECOPY PUSH1 0x0 RETURN INVALID PUSH1 0x80 PUSH1 0x40 MSTORE CALLVALUE DUP1 ISZERO PUSH2 0x10 JUMPI PUSH1 0x0 DUP1 REVERT JUMPDEST POP PUSH1 0x4 CALLDATASIZE LT PUSH2 0xB4 JUMPI PUSH1 0x0 CALLDATALOAD PUSH1 0xE0 SHR DUP1 PUSH4 0x755D7BBD GT PUSH2 0x71 JUMPI DUP1 PUSH4 0x755D7BBD EQ PUSH2 0x16B JUMPI DUP1 PUSH4 0x8DA5CB5B EQ PUSH2 0x175 JUMPI DUP1 PUSH4 0xA035B1FE EQ PUSH2 0x193 JUMPI DUP1 PUSH4 0xA118BABD EQ PUSH2 0x1B1 JUMPI DUP1 PUSH4 0xBFD1A5F6 EQ PUSH2 0x1BB JUMPI DUP1 PUSH4 0xE9F6BD0B EQ PUSH2 0x1D7 JUMPI PUSH2 0xB4 JUMP JUMPDEST DUP1 PUSH4 0x4707A16 EQ PUSH2 0xB9 JUMPI DUP1 PUSH4 0x200D2ED2 EQ PUSH2 0xD7 JUMPI DUP1 PUSH4 0x3086848F EQ PUSH2 0xF5 JUMPI DUP1 PUSH4 0x455772D2 EQ PUSH2 0xFF JUMPI DUP1 PUSH4 0x63DE5323 EQ PUSH2 0x11D JUMPI DUP1 PUSH4 0x7284E416 EQ PUSH2 0x14D JUMPI JUMPDEST PUSH1 0x0 DUP1 REVERT JUMPDEST PUSH2 0xC1 PUSH2 0x1F5 JUMP JUMPDEST PUSH1 0x40 MLOAD PUSH2 0xCE SWAP2 SWAP1 PUSH2 0xC71 JUMP JUMPDEST PUSH1 0x40 MLOAD DUP1 SWAP2 SUB SWAP1 RETURN JUMPDEST PUSH2 0xDF PUSH2 0x21B JUMP JUMPDEST PUSH1 0x40 MLOAD PUSH2 0xEC SWAP2 SWAP1 PUSH2 0xD03 JUMP JUMPDEST PUSH1 0x40 MLOAD DUP1 SWAP2 SUB SWAP1 RETURN JUMPDEST PUSH2 0xFD PUSH2 0x22E JUMP JUMPDEST STOP JUMPDEST PUSH2 0x107 PUSH2 0x449 JUMP JUMPDEST PUSH1 0x40 MLOAD PUSH2 0x114 SWAP2 SWAP1 PUSH2 0xDDC JUMP JUMPDEST PUSH1 0x40 MLOAD DUP1 SWAP2 SUB SWAP1 RETURN JUMPDEST PUSH2 0x137 PUSH1 0x4 DUP1 CALLDATASIZE SUB DUP2 ADD SWAP1 PUSH2 0x132 SWAP2 SWAP1 PUSH2 0xE39 JUMP JUMPDEST PUSH2 0x4D7 JUMP JUMPDEST PUSH1 0x40 MLOAD PUSH2 0x144 SWAP2 SWAP1 PUSH2 0xC71 JUMP JUMPDEST PUSH1 0x40 MLOAD DUP1 SWAP2 SUB SWAP1 RETURN JUMPDEST PUSH2 0x155 PUSH2 0x516 JUMP JUMPDEST PUSH1 0x40 MLOAD PUSH2 0x162 SWAP2 SWAP1 PUSH2 0xEF6 JUMP JUMPDEST PUSH1 0x40 MLOAD DUP1 SWAP2 SUB SWAP1 RETURN JUMPDEST PUSH2 0x173 PUSH2 0x5A4 JUMP JUMPDEST STOP JUMPDEST PUSH2 0x17D PUSH2 0x78D JUMP JUMPDEST PUSH1 0x40 MLOAD PUSH2 0x18A SWAP2 SWAP1 PUSH2 0xC71 JUMP JUMPDEST PUSH1 0x40 MLOAD DUP1 SWAP2 SUB SWAP1 RETURN JUMPDEST PUSH2 0x19B PUSH2 0x7B1 JUMP JUMPDEST PUSH1 0x40 MLOAD PUSH2 0x1A8 SWAP2 SWAP1 PUSH2 0xF27 JUMP JUMPDEST PUSH1 0x40 MLOAD DUP1 SWAP2 SUB SWAP1 RETURN JUMPDEST PUSH2 0x1B9 PUSH2 0x7B7 JUMP JUMPDEST STOP JUMPDEST PUSH2 0x1D5 PUSH1 0x4 DUP1 CALLDATASIZE SUB DUP2 ADD SWAP1 PUSH2 0x1D0 SWAP2 SWAP1 PUSH2 0xF6E JUMP JUMPDEST PUSH2 0x98A JUMP JUMPDEST STOP JUMPDEST PUSH2 0x1DF PUSH2 0xB7C JUMP JUMPDEST PUSH1 0x40 MLOAD PUSH2 0x1EC SWAP2 SWAP1 PUSH2 0xF27 JUMP JUMPDEST PUSH1 0x40 MLOAD DUP1 SWAP2 SUB SWAP1 RETURN JUMPDEST PUSH1 0x4 PUSH1 0x1 SWAP1 SLOAD SWAP1 PUSH2 0x100 EXP SWAP1 DIV PUSH20 0xFFFFFFFFFFFFFFFFFFFFFFFFFFFFFFFFFFFFFFFF AND DUP2 JUMP JUMPDEST PUSH1 0x4 PUSH1 0x0 SWAP1 SLOAD SWAP1 PUSH2 0x100 EXP SWAP1 DIV PUSH1 0xFF AND DUP2 JUMP JUMPDEST PUSH1 0x0 DUP1 SLOAD SWAP1 PUSH2 0x100 EXP SWAP1 DIV PUSH20 0xFFFFFFFFFFFFFFFFFFFFFFFFFFFFFFFFFFFFFFFF AND PUSH20 0xFFFFFFFFFFFFFFFFFFFFFFFFFFFFFFFFFFFFFFFF AND CALLER PUSH20 0xFFFFFFFFFFFFFFFFFFFFFFFFFFFFFFFFFFFFFFFF AND EQ PUSH2 0x2BC JUMPI PUSH1 0x40 MLOAD PUSH32 0x8C379A000000000000000000000000000000000000000000000000000000000 DUP2 MSTORE PUSH1 0x4 ADD PUSH2 0x2B3 SWAP1 PUSH2 0x100D JUMP JUMPDEST PUSH1 0x40 MLOAD DUP1 SWAP2 SUB SWAP1 REVERT JUMPDEST PUSH1 0x1 PUSH1 0x2 DUP2 GT ISZERO PUSH2 0x2D0 JUMPI PUSH2 0x2CF PUSH2 0xC8C JUMP JUMPDEST JUMPDEST PUSH1 0x4 PUSH1 0x0 SWAP1 SLOAD SWAP1 PUSH2 0x100 EXP SWAP1 DIV PUSH1 0xFF AND PUSH1 0x2 DUP2 GT ISZERO PUSH2 0x2F2 JUMPI PUSH2 0x2F1 PUSH2 0xC8C JUMP JUMPDEST JUMPDEST EQ PUSH2 0x332 JUMPI PUSH1 0x40 MLOAD PUSH32 0x8C379A000000000000000000000000000000000000000000000000000000000 DUP2 MSTORE PUSH1 0x4 ADD PUSH2 0x329 SWAP1 PUSH2 0x1079 JUMP JUMPDEST PUSH1 0x40 MLOAD DUP1 SWAP2 SUB SWAP1 REVERT JUMPDEST PUSH1 0x0 PUSH20 0xFFFFFFFFFFFFFFFFFFFFFFFFFFFFFFFFFFFFFFFF AND PUSH1 0x4 PUSH1 0x1 SWAP1 SLOAD SWAP1 PUSH2 0x100 EXP SWAP1 DIV PUSH20 0xFFFFFFFFFFFFFFFFFFFFFFFFFFFFFFFFFFFFFFFF AND PUSH20 0xFFFFFFFFFFFFFFFFFFFFFFFFFFFFFFFFFFFFFFFF AND SUB PUSH2 0x3C3 JUMPI PUSH1 0x40 MLOAD PUSH32 0x8C379A000000000000000000000000000000000000000000000000000000000 DUP2 MSTORE PUSH1 0x4 ADD PUSH2 0x3BA SWAP1 PUSH2 0x1079 JUMP JUMPDEST PUSH1 0x40 MLOAD DUP1 SWAP2 SUB SWAP1 REVERT JUMPDEST PUSH1 0x2 PUSH1 0x4 PUSH1 0x0 PUSH2 0x100 EXP DUP2 SLOAD DUP2 PUSH1 0xFF MUL NOT AND SWAP1 DUP4 PUSH1 0x2 DUP2 GT ISZERO PUSH2 0x3E9 JUMPI PUSH2 0x3E8 PUSH2 0xC8C JUMP JUMPDEST JUMPDEST MUL OR SWAP1 SSTORE POP PUSH32 0xA7CE9489B811CD79BB8695D6AD4051484C96AEA68805FFA76EEA626F7121F800 PUSH1 0x4 PUSH1 0x1 SWAP1 SLOAD SWAP1 PUSH2 0x100 EXP SWAP1 DIV PUSH20 0xFFFFFFFFFFFFFFFFFFFFFFFFFFFFFFFFFFFFFFFF AND PUSH1 0x40 MLOAD PUSH2 0x43F SWAP2 SWAP1 PUSH2 0xC71 JUMP JUMPDEST PUSH1 0x40 MLOAD DUP1 SWAP2 SUB SWAP1 LOG1 JUMP JUMPDEST PUSH1 0x60 PUSH1 0x5 DUP1 SLOAD DUP1 PUSH1 0x20 MUL PUSH1 0x20 ADD PUSH1 0x40 MLOAD SWAP1 DUP2 ADD PUSH1 0x40 MSTORE DUP1 SWAP3 SWAP2 SWAP1 DUP2 DUP2 MSTORE PUSH1 0x20 ADD DUP3 DUP1 SLOAD DUP1 ISZERO PUSH2 0x4CD JUMPI PUSH1 0x20 MUL DUP3 ADD SWAP2 SWAP1 PUSH1 0x0 MSTORE PUSH1 0x20 PUSH1 0x0 KECCAK256 SWAP1 JUMPDEST DUP2 PUSH1 0x0 SWAP1 SLOAD SWAP1 PUSH2 0x100 EXP SWAP1 DIV PUSH20 0xFFFFFFFFFFFFFFFFFFFFFFFFFFFFFFFFFFFFFFFF AND PUSH20 0xFFFFFFFFFFFFFFFFFFFFFFFFFFFFFFFFFFFFFFFF AND DUP2 MSTORE PUSH1 0x20 ADD SWAP1 PUSH1 0x1 ADD SWAP1 DUP1 DUP4 GT PUSH2 0x483 JUMPI JUMPDEST POP POP POP POP POP SWAP1 POP SWAP1 JUMP JUMPDEST PUSH1 0x5 DUP2 DUP2 SLOAD DUP2 LT PUSH2 0x4E7 JUMPI PUSH1 0x0 DUP1 REVERT JUMPDEST SWAP1 PUSH1 0x0 MSTORE PUSH1 0x20 PUSH1 0x0 KECCAK256 ADD PUSH1 0x0 SWAP2 POP SLOAD SWAP1 PUSH2 0x100 EXP SWAP1 DIV PUSH20 0xFFFFFFFFFFFFFFFFFFFFFFFFFFFFFFFFFFFFFFFF AND DUP2 JUMP JUMPDEST PUSH1 0x1 DUP1 SLOAD PUSH2 0x523 SWAP1 PUSH2 0x10C8 JUMP JUMPDEST DUP1 PUSH1 0x1F ADD PUSH1 0x20 DUP1 SWAP2 DIV MUL PUSH1 0x20 ADD PUSH1 0x40 MLOAD SWAP1 DUP2 ADD PUSH1 0x40 MSTORE DUP1 SWAP3 SWAP2 SWAP1 DUP2 DUP2 MSTORE PUSH1 0x20 ADD DUP3 DUP1 SLOAD PUSH2 0x54F SWAP1 PUSH2 0x10C8 JUMP JUMPDEST DUP1 ISZERO PUSH2 0x59C JUMPI DUP1 PUSH1 0x1F LT PUSH2 0x571 JUMPI PUSH2 0x100 DUP1 DUP4 SLOAD DIV MUL DUP4 MSTORE SWAP2 PUSH1 0x20 ADD SWAP2 PUSH2 0x59C JUMP JUMPDEST DUP3 ADD SWAP2 SWAP1 PUSH1 0x0 MSTORE PUSH1 0x20 PUSH1 0x0 KECCAK256 SWAP1 JUMPDEST DUP2 SLOAD DUP2 MSTORE SWAP1 PUSH1 0x1 ADD SWAP1 PUSH1 0x20 ADD DUP1 DUP4 GT PUSH2 0x57F JUMPI DUP3 SWAP1 SUB PUSH1 0x1F AND DUP3 ADD SWAP2 JUMPDEST POP POP POP POP POP DUP2 JUMP JUMPDEST PUSH1 0x0 DUP1 SLOAD SWAP1 PUSH2 0x100 EXP SWAP1 DIV PUSH20 0xFFFFFFFFFFFFFFFFFFFFFFFFFFFFFFFFFFFFFFFF AND PUSH20 0xFFFFFFFFFFFFFFFFFFFFFFFFFFFFFFFFFFFFFFFF AND CALLER PUSH20 0xFFFFFFFFFFFFFFFFFFFFFFFFFFFFFFFFFFFFFFFF AND SUB PUSH2 0x632 JUMPI PUSH1 0x40 MLOAD PUSH32 0x8C379A000000000000000000000000000000000000000000000000000000000 DUP2 MSTORE PUSH1 0x4 ADD PUSH2 0x629 SWAP1 PUSH2 0x1145 JUMP JUMPDEST PUSH1 0x40 MLOAD DUP1 SWAP2 SUB SWAP1 REVERT JUMPDEST PUSH1 0x0 PUSH1 0x2 DUP2 GT ISZERO PUSH2 0x646 JUMPI PUSH2 0x645 PUSH2 0xC8C JUMP JUMPDEST JUMPDEST PUSH1 0x4 PUSH1 0x0 SWAP1 SLOAD SWAP1 PUSH2 0x100 EXP SWAP1 DIV PUSH1 0xFF AND PUSH1 0x2 DUP2 GT ISZERO PUSH2 0x668 JUMPI PUSH2 0x667 PUSH2 0xC8C JUMP JUMPDEST JUMPDEST EQ PUSH2 0x6A8 JUMPI PUSH1 0x40 MLOAD PUSH32 0x8C379A000000000000000000000000000000000000000000000000000000000 DUP2 MSTORE PUSH1 0x4 ADD PUSH2 0x69F SWAP1 PUSH2 0x11D7 JUMP JUMPDEST PUSH1 0x40 MLOAD DUP1 SWAP2 SUB SWAP1 REVERT JUMPDEST PUSH2 0x6B1 CALLER PUSH2 0xB82 JUMP JUMPDEST ISZERO PUSH2 0x6F1 JUMPI PUSH1 0x40 MLOAD PUSH32 0x8C379A000000000000000000000000000000000000000000000000000000000 DUP2 MSTORE PUSH1 0x4 ADD PUSH2 0x6E8 SWAP1 PUSH2 0x1243 JUMP JUMPDEST PUSH1 0x40 MLOAD DUP1 SWAP2 SUB SWAP1 REVERT JUMPDEST PUSH1 0x5 CALLER SWAP1 DUP1 PUSH1 0x1 DUP2 SLOAD ADD DUP1 DUP3 SSTORE DUP1 SWAP2 POP POP PUSH1 0x1 SWAP1 SUB SWAP1 PUSH1 0x0 MSTORE PUSH1 0x20 PUSH1 0x0 KECCAK256 ADD PUSH1 0x0 SWAP1 SWAP2 SWAP1 SWAP2 SWAP1 SWAP2 PUSH2 0x100 EXP DUP2 SLOAD DUP2 PUSH20 0xFFFFFFFFFFFFFFFFFFFFFFFFFFFFFFFFFFFFFFFF MUL NOT AND SWAP1 DUP4 PUSH20 0xFFFFFFFFFFFFFFFFFFFFFFFFFFFFFFFFFFFFFFFF AND MUL OR SWAP1 SSTORE POP PUSH32 0x83F970044E0C4E2D8A4922431CB57DF4CD6DC71F67B619EB184D105E3B6D917A CALLER PUSH1 0x40 MLOAD PUSH2 0x783 SWAP2 SWAP1 PUSH2 0xC71 JUMP JUMPDEST PUSH1 0x40 MLOAD DUP1 SWAP2 SUB SWAP1 LOG1 JUMP JUMPDEST PUSH1 0x0 DUP1 SLOAD SWAP1 PUSH2 0x100 EXP SWAP1 DIV PUSH20 0xFFFFFFFFFFFFFFFFFFFFFFFFFFFFFFFFFFFFFFFF AND DUP2 JUMP JUMPDEST PUSH1 0x2 SLOAD DUP2 JUMP JUMPDEST PUSH1 0x4 PUSH1 0x1 SWAP1 SLOAD SWAP1 PUSH2 0x100 EXP SWAP1 DIV PUSH20 0xFFFFFFFFFFFFFFFFFFFFFFFFFFFFFFFFFFFFFFFF AND PUSH20 0xFFFFFFFFFFFFFFFFFFFFFFFFFFFFFFFFFFFFFFFF AND CALLER PUSH20 0xFFFFFFFFFFFFFFFFFFFFFFFFFFFFFFFFFFFFFFFF AND EQ PUSH2 0x847 JUMPI PUSH1 0x40 MLOAD PUSH32 0x8C379A000000000000000000000000000000000000000000000000000000000 DUP2 MSTORE PUSH1 0x4 ADD PUSH2 0x83E SWAP1 PUSH2 0x12D5 JUMP JUMPDEST PUSH1 0x40 MLOAD DUP1 SWAP2 SUB SWAP1 REVERT JUMPDEST PUSH1 0x2 DUP1 DUP2 GT ISZERO PUSH2 0x85A JUMPI PUSH2 0x859 PUSH2 0xC8C JUMP JUMPDEST JUMPDEST PUSH1 0x4 PUSH1 0x0 SWAP1 SLOAD SWAP1 PUSH2 0x100 EXP SWAP1 DIV PUSH1 0xFF AND PUSH1 0x2 DUP2 GT ISZERO PUSH2 0x87C JUMPI PUSH2 0x87B PUSH2 0xC8C JUMP JUMPDEST JUMPDEST EQ PUSH2 0x8BC JUMPI PUSH1 0x40 MLOAD PUSH32 0x8C379A000000000000000000000000000000000000000000000000000000000 DUP2 MSTORE PUSH1 0x4 ADD PUSH2 0x8B3 SWAP1 PUSH2 0x1341 JUMP JUMPDEST PUSH1 0x40 MLOAD DUP1 SWAP2 SUB SWAP1 REVERT JUMPDEST PUSH1 0x0 PUSH1 0x2 SLOAD SWAP1 POP PUSH1 0x4 PUSH1 0x1 SWAP1 SLOAD SWAP1 PUSH2 0x100 EXP SWAP1 DIV PUSH20 0xFFFFFFFFFFFFFFFFFFFFFFFFFFFFFFFFFFFFFFFF AND PUSH20 0xFFFFFFFFFFFFFFFFFFFFFFFFFFFFFFFFFFFFFFFF AND PUSH2 0x8FC DUP3 SWAP1 DUP2 ISZERO MUL SWAP1 PUSH1 0x40 MLOAD PUSH1 0x0 PUSH1 0x40 MLOAD DUP1 DUP4 SUB DUP2 DUP6 DUP9 DUP9 CALL SWAP4 POP POP POP POP ISZERO DUP1 ISZERO PUSH2 0x92B JUMPI RETURNDATASIZE PUSH1 0x0 DUP1 RETURNDATACOPY RETURNDATASIZE PUSH1 0x0 REVERT JUMPDEST POP PUSH32 0x84511ECC081974F18E7F3E0DCC19DB078B55BBD3852DDD0DD85B3AEBB7BF94C2 PUSH1 0x4 PUSH1 0x1 SWAP1 SLOAD SWAP1 PUSH2 0x100 EXP SWAP1 DIV PUSH20 0xFFFFFFFFFFFFFFFFFFFFFFFFFFFFFFFFFFFFFFFF AND DUP3 PUSH1 0x40 MLOAD PUSH2 0x97F SWAP3 SWAP2 SWAP1 PUSH2 0x1361 JUMP JUMPDEST PUSH1 0x40 MLOAD DUP1 SWAP2 SUB SWAP1 LOG1 POP JUMP JUMPDEST PUSH1 0x0 DUP1 SLOAD SWAP1 PUSH2 0x100 EXP SWAP1 DIV PUSH20 0xFFFFFFFFFFFFFFFFFFFFFFFFFFFFFFFFFFFFFFFF AND PUSH20 0xFFFFFFFFFFFFFFFFFFFFFFFFFFFFFFFFFFFFFFFF AND CALLER PUSH20 0xFFFFFFFFFFFFFFFFFFFFFFFFFFFFFFFFFFFFFFFF AND EQ PUSH2 0xA18 JUMPI PUSH1 0x40 MLOAD PUSH32 0x8C379A000000000000000000000000000000000000000000000000000000000 DUP2 MSTORE PUSH1 0x4 ADD PUSH2 0xA0F SWAP1 PUSH2 0x100D JUMP JUMPDEST PUSH1 0x40 MLOAD DUP1 SWAP2 SUB SWAP1 REVERT JUMPDEST PUSH1 0x0 PUSH1 0x2 DUP2 GT ISZERO PUSH2 0xA2C JUMPI PUSH2 0xA2B PUSH2 0xC8C JUMP JUMPDEST JUMPDEST PUSH1 0x4 PUSH1 0x0 SWAP1 SLOAD SWAP1 PUSH2 0x100 EXP SWAP1 DIV PUSH1 0xFF AND PUSH1 0x2 DUP2 GT ISZERO PUSH2 0xA4E JUMPI PUSH2 0xA4D PUSH2 0xC8C JUMP JUMPDEST JUMPDEST EQ PUSH2 0xA8E JUMPI PUSH1 0x40 MLOAD PUSH32 0x8C379A000000000000000000000000000000000000000000000000000000000 DUP2 MSTORE PUSH1 0x4 ADD PUSH2 0xA85 SWAP1 PUSH2 0x13FC JUMP JUMPDEST PUSH1 0x40 MLOAD DUP1 SWAP2 SUB SWAP1 REVERT JUMPDEST PUSH2 0xA97 DUP2 PUSH2 0xB82 JUMP JUMPDEST PUSH2 0xAD6 JUMPI PUSH1 0x40 MLOAD PUSH32 0x8C379A000000000000000000000000000000000000000000000000000000000 DUP2 MSTORE PUSH1 0x4 ADD PUSH2 0xACD SWAP1 PUSH2 0x1468 JUMP JUMPDEST PUSH1 0x40 MLOAD DUP1 SWAP2 SUB SWAP1 REVERT JUMPDEST DUP1 PUSH1 0x4 PUSH1 0x1 PUSH2 0x100 EXP DUP2 SLOAD DUP2 PUSH20 0xFFFFFFFFFFFFFFFFFFFFFFFFFFFFFFFFFFFFFFFF MUL NOT AND SWAP1 DUP4 PUSH20 0xFFFFFFFFFFFFFFFFFFFFFFFFFFFFFFFFFFFFFFFF AND MUL OR SWAP1 SSTORE POP PUSH1 0x1 PUSH1 0x4 PUSH1 0x0 PUSH2 0x100 EXP DUP2 SLOAD DUP2 PUSH1 0xFF MUL NOT AND SWAP1 DUP4 PUSH1 0x2 DUP2 GT ISZERO PUSH2 0xB3D JUMPI PUSH2 0xB3C PUSH2 0xC8C JUMP JUMPDEST JUMPDEST MUL OR SWAP1 SSTORE POP PUSH32 0xD889EF5B807D75AFF859DFDA4C0A241A96844B7254EFFBCC4769891CA9C9A22 DUP2 PUSH1 0x40 MLOAD PUSH2 0xB71 SWAP2 SWAP1 PUSH2 0xC71 JUMP JUMPDEST PUSH1 0x40 MLOAD DUP1 SWAP2 SUB SWAP1 LOG1 POP JUMP JUMPDEST PUSH1 0x3 SLOAD DUP2 JUMP JUMPDEST PUSH1 0x0 DUP1 PUSH1 0x0 SWAP1 POP JUMPDEST PUSH1 0x5 DUP1 SLOAD SWAP1 POP DUP2 LT ISZERO PUSH2 0xC25 JUMPI DUP3 PUSH20 0xFFFFFFFFFFFFFFFFFFFFFFFFFFFFFFFFFFFFFFFF AND PUSH1 0x5 DUP3 DUP2 SLOAD DUP2 LT PUSH2 0xBC2 JUMPI PUSH2 0xBC1 PUSH2 0x1488 JUMP JUMPDEST JUMPDEST SWAP1 PUSH1 0x0 MSTORE PUSH1 0x20 PUSH1 0x0 KECCAK256 ADD PUSH1 0x0 SWAP1 SLOAD SWAP1 PUSH2 0x100 EXP SWAP1 DIV PUSH20 0xFFFFFFFFFFFFFFFFFFFFFFFFFFFFFFFFFFFFFFFF AND PUSH20 0xFFFFFFFFFFFFFFFFFFFFFFFFFFFFFFFFFFFFFFFF AND SUB PUSH2 0xC12 JUMPI PUSH1 0x1 SWAP2 POP POP PUSH2 0xC2B JUMP JUMPDEST DUP1 DUP1 PUSH2 0xC1D SWAP1 PUSH2 0x14E6 JUMP JUMPDEST SWAP2 POP POP PUSH2 0xB8A JUMP JUMPDEST POP PUSH1 0x0 SWAP1 POP JUMPDEST SWAP2 SWAP1 POP JUMP JUMPDEST PUSH1 0x0 PUSH20 0xFFFFFFFFFFFFFFFFFFFFFFFFFFFFFFFFFFFFFFFF DUP3 AND SWAP1 POP SWAP2 SWAP1 POP JUMP JUMPDEST PUSH1 0x0 PUSH2 0xC5B DUP3 PUSH2 0xC30 JUMP JUMPDEST SWAP1 POP SWAP2 SWAP1 POP JUMP JUMPDEST PUSH2 0xC6B DUP2 PUSH2 0xC50 JUMP JUMPDEST DUP3 MSTORE POP POP JUMP JUMPDEST PUSH1 0x0 PUSH1 0x20 DUP3 ADD SWAP1 POP PUSH2 0xC86 PUSH1 0x0 DUP4 ADD DUP5 PUSH2 0xC62 JUMP JUMPDEST SWAP3 SWAP2 POP POP JUMP JUMPDEST PUSH32 0x4E487B7100000000000000000000000000000000000000000000000000000000 PUSH1 0x0 MSTORE PUSH1 0x21 PUSH1 0x4 MSTORE PUSH1 0x24 PUSH1 0x0 REVERT JUMPDEST PUSH1 0x3 DUP2 LT PUSH2 0xCCC JUMPI PUSH2 0xCCB PUSH2 0xC8C JUMP JUMPDEST JUMPDEST POP JUMP JUMPDEST PUSH1 0x0 DUP2 SWAP1 POP PUSH2 0xCDD DUP3 PUSH2 0xCBB JUMP JUMPDEST SWAP2 SWAP1 POP JUMP JUMPDEST PUSH1 0x0 PUSH2 0xCED DUP3 PUSH2 0xCCF JUMP JUMPDEST SWAP1 POP SWAP2 SWAP1 POP JUMP JUMPDEST PUSH2 0xCFD DUP2 PUSH2 0xCE2 JUMP JUMPDEST DUP3 MSTORE POP POP JUMP JUMPDEST PUSH1 0x0 PUSH1 0x20 DUP3 ADD SWAP1 POP PUSH2 0xD18 PUSH1 0x0 DUP4 ADD DUP5 PUSH2 0xCF4 JUMP JUMPDEST SWAP3 SWAP2 POP POP JUMP JUMPDEST PUSH1 0x0 DUP2 MLOAD SWAP1 POP SWAP2 SWAP1 POP JUMP JUMPDEST PUSH1 0x0 DUP3 DUP3 MSTORE PUSH1 0x20 DUP3 ADD SWAP1 POP SWAP3 SWAP2 POP POP JUMP JUMPDEST PUSH1 0x0 DUP2 SWAP1 POP PUSH1 0x20 DUP3 ADD SWAP1 POP SWAP2 SWAP1 POP JUMP JUMPDEST PUSH2 0xD53 DUP2 PUSH2 0xC50 JUMP JUMPDEST DUP3 MSTORE POP POP JUMP JUMPDEST PUSH1 0x0 PUSH2 0xD65 DUP4 DUP4 PUSH2 0xD4A JUMP JUMPDEST PUSH1 0x20 DUP4 ADD SWAP1 POP SWAP3 SWAP2 POP POP JUMP JUMPDEST PUSH1 0x0 PUSH1 0x20 DUP3 ADD SWAP1 POP SWAP2 SWAP1 POP JUMP JUMPDEST PUSH1 0x0 PUSH2 0xD89 DUP3 PUSH2 0xD1E JUMP JUMPDEST PUSH2 0xD93 DUP2 DUP6 PUSH2 0xD29 JUMP JUMPDEST SWAP4 POP PUSH2 0xD9E DUP4 PUSH2 0xD3A JUMP JUMPDEST DUP1 PUSH1 0x0 JUMPDEST DUP4 DUP2 LT ISZERO PUSH2 0xDCF JUMPI DUP2 MLOAD PUSH2 0xDB6 DUP9 DUP3 PUSH2 0xD59 JUMP JUMPDEST SWAP8 POP PUSH2 0xDC1 DUP4 PUSH2 0xD71 JUMP JUMPDEST SWAP3 POP POP PUSH1 0x1 DUP2 ADD SWAP1 POP PUSH2 0xDA2 JUMP JUMPDEST POP DUP6 SWAP4 POP POP POP POP SWAP3 SWAP2 POP POP JUMP JUMPDEST PUSH1 0x0 PUSH1 0x20 DUP3 ADD SWAP1 POP DUP2 DUP2 SUB PUSH1 0x0 DUP4 ADD MSTORE PUSH2 0xDF6 DUP2 DUP5 PUSH2 0xD7E JUMP JUMPDEST SWAP1 POP SWAP3 SWAP2 POP POP JUMP JUMPDEST PUSH1 0x0 DUP1 REVERT JUMPDEST PUSH1 0x0 DUP2 SWAP1 POP SWAP2 SWAP1 POP JUMP JUMPDEST PUSH2 0xE16 DUP2 PUSH2 0xE03 JUMP JUMPDEST DUP2 EQ PUSH2 0xE21 JUMPI PUSH1 0x0 DUP1 REVERT JUMPDEST POP JUMP JUMPDEST PUSH1 0x0 DUP2 CALLDATALOAD SWAP1 POP PUSH2 0xE33 DUP2 PUSH2 0xE0D JUMP JUMPDEST SWAP3 SWAP2 POP POP JUMP JUMPDEST PUSH1 0x0 PUSH1 0x20 DUP3 DUP5 SUB SLT ISZERO PUSH2 0xE4F JUMPI PUSH2 0xE4E PUSH2 0xDFE JUMP JUMPDEST JUMPDEST PUSH1 0x0 PUSH2 0xE5D DUP5 DUP3 DUP6 ADD PUSH2 0xE24 JUMP JUMPDEST SWAP2 POP POP SWAP3 SWAP2 POP POP JUMP JUMPDEST PUSH1 0x0 DUP2 MLOAD SWAP1 POP SWAP2 SWAP1 POP JUMP JUMPDEST PUSH1 0x0 DUP3 DUP3 MSTORE PUSH1 0x20 DUP3 ADD SWAP1 POP SWAP3 SWAP2 POP POP JUMP JUMPDEST PUSH1 0x0 JUMPDEST DUP4 DUP2 LT ISZERO PUSH2 0xEA0 JUMPI DUP1 DUP3 ADD MLOAD DUP2 DUP5 ADD MSTORE PUSH1 0x20 DUP2 ADD SWAP1 POP PUSH2 0xE85 JUMP JUMPDEST PUSH1 0x0 DUP5 DUP5 ADD MSTORE POP POP POP POP JUMP JUMPDEST PUSH1 0x0 PUSH1 0x1F NOT PUSH1 0x1F DUP4 ADD AND SWAP1 POP SWAP2 SWAP1 POP JUMP JUMPDEST PUSH1 0x0 PUSH2 0xEC8 DUP3 PUSH2 0xE66 JUMP JUMPDEST PUSH2 0xED2 DUP2 DUP6 PUSH2 0xE71 JUMP JUMPDEST SWAP4 POP PUSH2 0xEE2 DUP2 DUP6 PUSH1 0x20 DUP7 ADD PUSH2 0xE82 JUMP JUMPDEST PUSH2 0xEEB DUP2 PUSH2 0xEAC JUMP JUMPDEST DUP5 ADD SWAP2 POP POP SWAP3 SWAP2 POP POP JUMP JUMPDEST PUSH1 0x0 PUSH1 0x20 DUP3 ADD SWAP1 POP DUP2 DUP2 SUB PUSH1 0x0 DUP4 ADD MSTORE PUSH2 0xF10 DUP2 DUP5 PUSH2 0xEBD JUMP JUMPDEST SWAP1 POP SWAP3 SWAP2 POP POP JUMP JUMPDEST PUSH2 0xF21 DUP2 PUSH2 0xE03 JUMP JUMPDEST DUP3 MSTORE POP POP JUMP JUMPDEST PUSH1 0x0 PUSH1 0x20 DUP3 ADD SWAP1 POP PUSH2 0xF3C PUSH1 0x0 DUP4 ADD DUP5 PUSH2 0xF18 JUMP JUMPDEST SWAP3 SWAP2 POP POP JUMP JUMPDEST PUSH2 0xF4B DUP2 PUSH2 0xC50 JUMP JUMPDEST DUP2 EQ PUSH2 0xF56 JUMPI PUSH1 0x0 DUP1 REVERT JUMPDEST POP JUMP JUMPDEST PUSH1 0x0 DUP2 CALLDATALOAD SWAP1 POP PUSH2 0xF68 DUP2 PUSH2 0xF42 JUMP JUMPDEST SWAP3 SWAP2 POP POP JUMP JUMPDEST PUSH1 0x0 PUSH1 0x20 DUP3 DUP5 SUB SLT ISZERO PUSH2 0xF84 JUMPI PUSH2 0xF83 PUSH2 0xDFE JUMP JUMPDEST JUMPDEST PUSH1 0x0 PUSH2 0xF92 DUP5 DUP3 DUP6 ADD PUSH2 0xF59 JUMP JUMPDEST SWAP2 POP POP SWAP3 SWAP2 POP POP JUMP JUMPDEST PUSH32 0x4F6E6C79206F776E65722063616E20706572666F726D20746869732061637469 PUSH1 0x0 DUP3 ADD MSTORE PUSH32 0x6F6E000000000000000000000000000000000000000000000000000000000000 PUSH1 0x20 DUP3 ADD MSTORE POP JUMP JUMPDEST PUSH1 0x0 PUSH2 0xFF7 PUSH1 0x22 DUP4 PUSH2 0xE71 JUMP JUMPDEST SWAP2 POP PUSH2 0x1002 DUP3 PUSH2 0xF9B JUMP JUMPDEST PUSH1 0x40 DUP3 ADD SWAP1 POP SWAP2 SWAP1 POP JUMP JUMPDEST PUSH1 0x0 PUSH1 0x20 DUP3 ADD SWAP1 POP DUP2 DUP2 SUB PUSH1 0x0 DUP4 ADD MSTORE PUSH2 0x1026 DUP2 PUSH2 0xFEA JUMP JUMPDEST SWAP1 POP SWAP2 SWAP1 POP JUMP JUMPDEST PUSH32 0x4E6F206170706C6963616E742073656C65637465640000000000000000000000 PUSH1 0x0 DUP3 ADD MSTORE POP JUMP JUMPDEST PUSH1 0x0 PUSH2 0x1063 PUSH1 0x15 DUP4 PUSH2 0xE71 JUMP JUMPDEST SWAP2 POP PUSH2 0x106E DUP3 PUSH2 0x102D JUMP JUMPDEST PUSH1 0x20 DUP3 ADD SWAP1 POP SWAP2 SWAP1 POP JUMP JUMPDEST PUSH1 0x0 PUSH1 0x20 DUP3 ADD SWAP1 POP DUP2 DUP2 SUB PUSH1 0x0 DUP4 ADD MSTORE PUSH2 0x1092 DUP2 PUSH2 0x1056 JUMP JUMPDEST SWAP1 POP SWAP2 SWAP1 POP JUMP JUMPDEST PUSH32 0x4E487B7100000000000000000000000000000000000000000000000000000000 PUSH1 0x0 MSTORE PUSH1 0x22 PUSH1 0x4 MSTORE PUSH1 0x24 PUSH1 0x0 REVERT JUMPDEST PUSH1 0x0 PUSH1 0x2 DUP3 DIV SWAP1 POP PUSH1 0x1 DUP3 AND DUP1 PUSH2 0x10E0 JUMPI PUSH1 0x7F DUP3 AND SWAP2 POP JUMPDEST PUSH1 0x20 DUP3 LT DUP2 SUB PUSH2 0x10F3 JUMPI PUSH2 0x10F2 PUSH2 0x1099 JUMP JUMPDEST JUMPDEST POP SWAP2 SWAP1 POP JUMP JUMPDEST PUSH32 0x4F776E65722063616E6E6F74206170706C790000000000000000000000000000 PUSH1 0x0 DUP3 ADD MSTORE POP JUMP JUMPDEST PUSH1 0x0 PUSH2 0x112F PUSH1 0x12 DUP4 PUSH2 0xE71 JUMP JUMPDEST SWAP2 POP PUSH2 0x113A DUP3 PUSH2 0x10F9 JUMP JUMPDEST PUSH1 0x20 DUP3 ADD SWAP1 POP SWAP2 SWAP1 POP JUMP JUMPDEST PUSH1 0x0 PUSH1 0x20 DUP3 ADD SWAP1 POP DUP2 DUP2 SUB PUSH1 0x0 DUP4 ADD MSTORE PUSH2 0x115E DUP2 PUSH2 0x1122 JUMP JUMPDEST SWAP1 POP SWAP2 SWAP1 POP JUMP JUMPDEST PUSH32 0x4A6F62206973206E6F7420616363657074696E67206170706C69636174696F6E PUSH1 0x0 DUP3 ADD MSTORE PUSH32 0x7300000000000000000000000000000000000000000000000000000000000000 PUSH1 0x20 DUP3 ADD MSTORE POP JUMP JUMPDEST PUSH1 0x0 PUSH2 0x11C1 PUSH1 0x21 DUP4 PUSH2 0xE71 JUMP JUMPDEST SWAP2 POP PUSH2 0x11CC DUP3 PUSH2 0x1165 JUMP JUMPDEST PUSH1 0x40 DUP3 ADD SWAP1 POP SWAP2 SWAP1 POP JUMP JUMPDEST PUSH1 0x0 PUSH1 0x20 DUP3 ADD SWAP1 POP DUP2 DUP2 SUB PUSH1 0x0 DUP4 ADD MSTORE PUSH2 0x11F0 DUP2 PUSH2 0x11B4 JUMP JUMPDEST SWAP1 POP SWAP2 SWAP1 POP JUMP JUMPDEST PUSH32 0x416C7265616479206170706C6965640000000000000000000000000000000000 PUSH1 0x0 DUP3 ADD MSTORE POP JUMP JUMPDEST PUSH1 0x0 PUSH2 0x122D PUSH1 0xF DUP4 PUSH2 0xE71 JUMP JUMPDEST SWAP2 POP PUSH2 0x1238 DUP3 PUSH2 0x11F7 JUMP JUMPDEST PUSH1 0x20 DUP3 ADD SWAP1 POP SWAP2 SWAP1 POP JUMP JUMPDEST PUSH1 0x0 PUSH1 0x20 DUP3 ADD SWAP1 POP DUP2 DUP2 SUB PUSH1 0x0 DUP4 ADD MSTORE PUSH2 0x125C DUP2 PUSH2 0x1220 JUMP JUMPDEST SWAP1 POP SWAP2 SWAP1 POP JUMP JUMPDEST PUSH32 0x4F6E6C79207468652073656C6563746564206170706C6963616E742063616E20 PUSH1 0x0 DUP3 ADD MSTORE PUSH32 0x706572666F726D207468697320616374696F6E00000000000000000000000000 PUSH1 0x20 DUP3 ADD MSTORE POP JUMP JUMPDEST PUSH1 0x0 PUSH2 0x12BF PUSH1 0x33 DUP4 PUSH2 0xE71 JUMP JUMPDEST SWAP2 POP PUSH2 0x12CA DUP3 PUSH2 0x1263 JUMP JUMPDEST PUSH1 0x40 DUP3 ADD SWAP1 POP SWAP2 SWAP1 POP JUMP JUMPDEST PUSH1 0x0 PUSH1 0x20 DUP3 ADD SWAP1 POP DUP2 DUP2 SUB PUSH1 0x0 DUP4 ADD MSTORE PUSH2 0x12EE DUP2 PUSH2 0x12B2 JUMP JUMPDEST SWAP1 POP SWAP2 SWAP1 POP JUMP JUMPDEST PUSH32 0x4A6F62206E6F7420636F6D706C65746564000000000000000000000000000000 PUSH1 0x0 DUP3 ADD MSTORE POP JUMP JUMPDEST PUSH1 0x0 PUSH2 0x132B PUSH1 0x11 DUP4 PUSH2 0xE71 JUMP JUMPDEST SWAP2 POP PUSH2 0x1336 DUP3 PUSH2 0x12F5 JUMP JUMPDEST PUSH1 0x20 DUP3 ADD SWAP1 POP SWAP2 SWAP1 POP JUMP JUMPDEST PUSH1 0x0 PUSH1 0x20 DUP3 ADD SWAP1 POP DUP2 DUP2 SUB PUSH1 0x0 DUP4 ADD MSTORE PUSH2 0x135A DUP2 PUSH2 0x131E JUMP JUMPDEST SWAP1 POP SWAP2 SWAP1 POP JUMP JUMPDEST PUSH1 0x0 PUSH1 0x40 DUP3 ADD SWAP1 POP PUSH2 0x1376 PUSH1 0x0 DUP4 ADD DUP6 PUSH2 0xC62 JUMP JUMPDEST PUSH2 0x1383 PUSH1 0x20 DUP4 ADD DUP5 PUSH2 0xF18 JUMP JUMPDEST SWAP4 SWAP3 POP POP POP JUMP JUMPDEST PUSH32 0x43616E27742073656C656374206170706C6963616E7420617420746869732073 PUSH1 0x0 DUP3 ADD MSTORE PUSH32 0x7461676500000000000000000000000000000000000000000000000000000000 PUSH1 0x20 DUP3 ADD MSTORE POP JUMP JUMPDEST PUSH1 0x0 PUSH2 0x13E6 PUSH1 0x24 DUP4 PUSH2 0xE71 JUMP JUMPDEST SWAP2 POP PUSH2 0x13F1 DUP3 PUSH2 0x138A JUMP JUMPDEST PUSH1 0x40 DUP3 ADD SWAP1 POP SWAP2 SWAP1 POP JUMP JUMPDEST PUSH1 0x0 PUSH1 0x20 DUP3 ADD SWAP1 POP DUP2 DUP2 SUB PUSH1 0x0 DUP4 ADD MSTORE PUSH2 0x1415 DUP2 PUSH2 0x13D9 JUMP JUMPDEST SWAP1 POP SWAP2 SWAP1 POP JUMP JUMPDEST PUSH32 0x4164647265737320686173206E6F74206170706C696564000000000000000000 PUSH1 0x0 DUP3 ADD MSTORE POP JUMP JUMPDEST PUSH1 0x0 PUSH2 0x1452 PUSH1 0x17 DUP4 PUSH2 0xE71 JUMP JUMPDEST SWAP2 POP PUSH2 0x145D DUP3 PUSH2 0x141C JUMP JUMPDEST PUSH1 0x20 DUP3 ADD SWAP1 POP SWAP2 SWAP1 POP JUMP JUMPDEST PUSH1 0x0 PUSH1 0x20 DUP3 ADD SWAP1 POP DUP2 DUP2 SUB PUSH1 0x0 DUP4 ADD MSTORE PUSH2 0x1481 DUP2 PUSH2 0x1445 JUMP JUMPDEST SWAP1 POP SWAP2 SWAP1 POP JUMP JUMPDEST PUSH32 0x4E487B7100000000000000000000000000000000000000000000000000000000 PUSH1 0x0 MSTORE PUSH1 0x32 PUSH1 0x4 MSTORE PUSH1 0x24 PUSH1 0x0 REVERT JUMPDEST PUSH32 0x4E487B7100000000000000000000000000000000000000000000000000000000 PUSH1 0x0 MSTORE PUSH1 0x11 PUSH1 0x4 MSTORE PUSH1 0x24 PUSH1 0x0 REVERT JUMPDEST PUSH1 0x0 PUSH2 0x14F1 DUP3 PUSH2 0xE03 JUMP JUMPDEST SWAP2 POP PUSH32 0xFFFFFFFFFFFFFFFFFFFFFFFFFFFFFFFFFFFFFFFFFFFFFFFFFFFFFFFFFFFFFFFF DUP3 SUB PUSH2 0x1523 JUMPI PUSH2 0x1522 PUSH2 0x14B7 JUMP JUMPDEST JUMPDEST PUSH1 0x1 DUP3 ADD SWAP1 POP SWAP2 SWAP1 POP JUMP INVALID LOG2 PUSH5 0x6970667358 0x22 SLT KECCAK256 0xC9 0xC2 0xDA GASLIMIT 0xC2 NOT SAR MSTORE8 ADDMOD MUL 0xD7 ADDMOD 0x5D 0xC6 0x4D 0x4F XOR SWAP1 0xBA 0xBD 0xE PUSH17 0x570440333E761960EDF964736F6C634300 ADDMOD SGT STOP CALLER "},"methodIdentifiers":{"applicants(uint256)":"63de5323","applyForJob()":"755d7bbd","completeJob()":"3086848f","description()":"7284e416","getApplicants()":"455772d2","numberOfDays()":"e9f6bd0b","owner()":"8da5cb5b","price()":"a035b1fe","selectApplicant(address)":"bfd1a5f6","selectedApplicant()":"04707a16","status()":"200d2ed2","withdrawPayment()":"a118babd"}}}}}