{
  "_format": "hh-sol-artifact-1",
  "contractName": "JobPlatform",
  "sourceName": "contracts/JobPlatform.sol",
  "abi": [
    {
      "anonymous": false,
      "inputs": [
        {
          "indexed": false,
          "internalType": "address",
          "name": "jobAddress",
          "type": "address"
        },
        {
          "indexed": false,
          "internalType": "address",
          "name": "owner",
          "type": "address"
        },
        {
          "indexed": false,
          "internalType": "string",
          "name": "description",
          "type": "string"
        },
        {
          "indexed": false,
          "internalType": "uint256",
          "name": "price",
          "type": "uint256"
        }
      ],
      "name": "JobCreated",
      "type": "event"
    },
    {
      "inputs": [
        {
          "internalType": "string",
          "name": "_description",
          "type": "string"
        },
        {
          "internalType": "uint256",
          "name": "_price",
          "type": "uint256"
        },
        {
          "internalType": "uint256",
          "name": "numberOfDays",
          "type": "uint256"
        }
      ],
      "name": "createJob",
      "outputs": [],
      "stateMutability": "nonpayable",
      "type": "function"
    },
    {
      "inputs": [
        {
          "internalType": "address",
          "name": "applicant",
          "type": "address"
        }
      ],
      "name": "getApplicantJobs",
      "outputs": [
        {
          "internalType": "contract Job[]",
          "name": "",
          "type": "address[]"
        }
      ],
      "stateMutability": "view",
      "type": "function"
    },
    {
      "inputs": [
        {
          "internalType": "address",
          "name": "employer",
          "type": "address"
        }
      ],
      "name": "getEmployerJobs",
      "outputs": [
        {
          "internalType": "contract Job[]",
          "name": "",
          "type": "address[]"
        }
      ],
      "stateMutability": "view",
      "type": "function"
    },
    {
      "inputs": [],
      "name": "getJobs",
      "outputs": [
        {
          "internalType": "contract Job[]",
          "name": "",
          "type": "address[]"
        }
      ],
      "stateMutability": "view",
      "type": "function"
    },
    {
      "inputs": [],
      "name": "getPendingJobs",
      "outputs": [
        {
          "internalType": "contract Job[]",
          "name": "",
          "type": "address[]"
        }
      ],
      "stateMutability": "view",
      "type": "function"
    }
  ],
  "bytecode": "0x608060405234801561001057600080fd5b5061198c806100206000396000f3fe60806040523480156200001157600080fd5b50600436106200005e5760003560e01c806317a85f5514620000635780635f58cb4f146200008557806368581ebd146200009c57806379c6271114620000a6578063d03e2c6414620000bf575b600080fd5b6200006d620000d6565b6040516200007c91906200080c565b60405180910390f35b6200006d6200009636600462000874565b6200032c565b6200006d620003a4565b620000bd620000b7366004620008b1565b62000408565b005b6200006d620000d036600462000874565b62000501565b60606000805b600054811015620001a757600160008281548110620000ff57620000ff62000995565b60009182526020918290200154604080516302734eab60e51b815290516001600160a01b0390921692634e69d560926004808401938290030181865afa1580156200014e573d6000803e3d6000fd5b505050506040513d601f19601f82011682018060405250810190620001749190620009ab565b60038111156200018857620001886200097f565b036200019e57816200019a81620009ce565b9250505b600101620000dc565b5060008167ffffffffffffffff811115620001c657620001c66200089b565b604051908082528060200260200182016040528015620001f0578160200160208202803683370190505b5090506000805b60005481101562000323576001600082815481106200021a576200021a62000995565b60009182526020918290200154604080516302734eab60e51b815290516001600160a01b0390921692634e69d560926004808401938290030181865afa15801562000269573d6000803e3d6000fd5b505050506040513d601f19601f820116820180604052508101906200028f9190620009ab565b6003811115620002a357620002a36200097f565b036200031a5760008181548110620002bf57620002bf62000995565b9060005260206000200160009054906101000a90046001600160a01b0316838381518110620002f257620002f262000995565b6001600160a01b0390921660209283029190910190910152816200031681620009ce565b9250505b600101620001f7565b50909392505050565b6001600160a01b0381166000908152600160209081526040918290208054835181840281018401909452808452606093928301828280156200039857602002820191906000526020600020905b81546001600160a01b0316815260019091019060200180831162000379575b50505050509050919050565b60606000805480602002602001604051908101604052809291908181526020018280548015620003fe57602002820191906000526020600020905b81546001600160a01b03168152600190910190602001808311620003df575b5050505050905090565b6000338484846040516200041c90620007fe565b6200042b949392919062000a3e565b604051809103906000f08015801562000448573d6000803e3d6000fd5b5060008054600181810183557f290decd9548b62a8d60345a988386fc84ba6bc95484008f6362f93160ef3e56390910180546001600160a01b0385166001600160a01b03199182168117909255338085526020848152604080872080549687018155875295209093018054909116909117905590519192507fa70c538334e61fe5b5b7786228f6868375a53521e9befcd1771a0082c865967391620004f39184918890889062000a77565b60405180910390a150505050565b60606000805b6000548110156200067b57836001600160a01b03166000828154811062000532576200053262000995565b6000918252602091829020015460408051634e4f902960e11b815290516001600160a01b0390921692639c9f2052926004808401938290030181865afa15801562000581573d6000803e3d6000fd5b505050506040513d601f19601f82011682018060405250810190620005a7919062000ab6565b6001600160a01b03161480156200065c5750600360008281548110620005d157620005d162000995565b60009182526020918290200154604080516302734eab60e51b815290516001600160a01b0390921692634e69d560926004808401938290030181865afa15801562000620573d6000803e3d6000fd5b505050506040513d601f19601f82011682018060405250810190620006469190620009ab565b60038111156200065a576200065a6200097f565b145b156200067257816200066e81620009ce565b9250505b60010162000507565b5060008167ffffffffffffffff8111156200069a576200069a6200089b565b604051908082528060200260200182016040528015620006c4578160200160208202803683370190505b5090506000805b600054811015620007f457856001600160a01b031660008281548110620006f657620006f662000995565b6000918252602091829020015460408051634e4f902960e11b815290516001600160a01b0390921692639c9f2052926004808401938290030181865afa15801562000745573d6000803e3d6000fd5b505050506040513d601f19601f820116820180604052508101906200076b919062000ab6565b6001600160a01b031603620007eb576000818154811062000790576200079062000995565b9060005260206000200160009054906101000a90046001600160a01b0316838381518110620007c357620007c362000995565b6001600160a01b039092166020928302919091019091015281620007e781620009ce565b9250505b600101620006cb565b5090949350505050565b610e808062000ad783390190565b6020808252825182820181905260009190848201906040850190845b818110156200084f5783516001600160a01b03168352928401929184019160010162000828565b50909695505050505050565b6001600160a01b03811681146200087157600080fd5b50565b6000602082840312156200088757600080fd5b813562000894816200085b565b9392505050565b634e487b7160e01b600052604160045260246000fd5b600080600060608486031215620008c757600080fd5b833567ffffffffffffffff80821115620008e057600080fd5b818601915086601f830112620008f557600080fd5b8135818111156200090a576200090a6200089b565b604051601f8201601f19908116603f011681019083821181831017156200093557620009356200089b565b816040528281528960208487010111156200094f57600080fd5b82602086016020830137600060208483010152809750505050505060208401359150604084013590509250925092565b634e487b7160e01b600052602160045260246000fd5b634e487b7160e01b600052603260045260246000fd5b600060208284031215620009be57600080fd5b8151600481106200089457600080fd5b600060018201620009ef57634e487b7160e01b600052601160045260246000fd5b5060010190565b6000815180845260005b8181101562000a1e5760208185018101518683018201520162000a00565b506000602082860101526020601f19601f83011685010191505092915050565b6001600160a01b038516815260806020820181905260009062000a6490830186620009f6565b6040830194909452506060015292915050565b6001600160a01b0385811682528416602082015260806040820181905260009062000aa590830185620009f6565b905082606083015295945050505050565b60006020828403121562000ac957600080fd5b815162000894816200085b56fe60806040523480156200001157600080fd5b5060405162000e8038038062000e8083398101604081905262000034916200008f565b600080546001600160a01b0319166001600160a01b03861617905560016200005d848262000226565b5060029190915560035550506004805460ff19169055620002f2565b634e487b7160e01b600052604160045260246000fd5b60008060008060808587031215620000a657600080fd5b84516001600160a01b0381168114620000be57600080fd5b602086810151919550906001600160401b0380821115620000de57600080fd5b818801915088601f830112620000f357600080fd5b81518181111562000108576200010862000079565b604051601f8201601f19908116603f0116810190838211818310171562000133576200013362000079565b816040528281528b868487010111156200014c57600080fd5b600093505b8284101562000170578484018601518185018701529285019262000151565b6000928101909501919091525050506040860151606090960151949790965092505050565b600181811c90821680620001aa57607f821691505b602082108103620001cb57634e487b7160e01b600052602260045260246000fd5b50919050565b601f82111562000221576000816000526020600020601f850160051c81016020861015620001fc5750805b601f850160051c820191505b818110156200021d5782815560010162000208565b5050505b505050565b81516001600160401b0381111562000242576200024262000079565b6200025a8162000253845462000195565b84620001d1565b602080601f831160018114620002925760008415620002795750858301515b600019600386901b1c1916600185901b1785556200021d565b600085815260208120601f198616915b82811015620002c357888601518255948401946001909101908401620002a2565b5085821015620002e25787850151600019600388901b60f8161c191681555b5050505050600190811b01905550565b610b7e80620003026000396000f3fe6080604052600436106100a75760003560e01c8063893d20e811610064578063893d20e81461016057806398d5fdca146101925780639c9f2052146101a7578063a118babd146101ca578063bfd1a5f6146101df578063ef47243d146101ff57600080fd5b806310f34602146100ac5780631a092541146100d05780633086848f146100f2578063455772d2146101095780634e69d5601461012b578063755d7bbd1461014b575b600080fd5b3480156100b857600080fd5b506003545b6040519081526020015b60405180910390f35b3480156100dc57600080fd5b506100e5610207565b6040516100c791906109ac565b3480156100fe57600080fd5b50610107610299565b005b34801561011557600080fd5b5061011e6103d2565b6040516100c791906109fb565b34801561013757600080fd5b5060045460ff166040516100c79190610a5e565b34801561015757600080fd5b50610107610433565b34801561016c57600080fd5b506000546001600160a01b03165b6040516001600160a01b0390911681526020016100c7565b34801561019e57600080fd5b506002546100bd565b3480156101b357600080fd5b5060045461010090046001600160a01b031661017a565b3480156101d657600080fd5b506101076105af565b3480156101eb57600080fd5b506101076101fa366004610a86565b610714565b610107610865565b60606001805461021690610ab6565b80601f016020809104026020016040519081016040528092919081815260200182805461024290610ab6565b801561028f5780601f106102645761010080835404028352916020019161028f565b820191906000526020600020905b81548152906001019060200180831161027257829003601f168201915b5050505050905090565b6000546001600160a01b031633146102cc5760405162461bcd60e51b81526004016102c390610af0565b60405180910390fd5b600260045460ff1660038111156102e5576102e5610a48565b1461032a5760405162461bcd60e51b8152602060048201526015602482015274139bc8185c1c1b1a58d85b9d081cd95b1958dd1959605a1b60448201526064016102c3565b60045461010090046001600160a01b031661037f5760405162461bcd60e51b8152602060048201526015602482015274139bc8185c1c1b1a58d85b9d081cd95b1958dd1959605a1b60448201526064016102c3565b6004805460ff1916600317908190556040516101009091046001600160a01b031681527fa7ce9489b811cd79bb8695d6ad4051484c96aea68805ffa76eea626f7121f800906020015b60405180910390a1565b6060600580548060200260200160405190810160405280929190818152602001828054801561028f57602002820191906000526020600020905b81546001600160a01b0316815260019091019060200180831161040c575050505050905090565b6000546001600160a01b031633036104825760405162461bcd60e51b81526020600482015260126024820152714f776e65722063616e6e6f74206170706c7960701b60448201526064016102c3565b600160045460ff16600381111561049b5761049b610a48565b146104f25760405162461bcd60e51b815260206004820152602160248201527f4a6f62206973206e6f7420616363657074696e67206170706c69636174696f6e6044820152607360f81b60648201526084016102c3565b6104fb3361094d565b1561053a5760405162461bcd60e51b815260206004820152600f60248201526e105b1c9958591e48185c1c1b1a5959608a1b60448201526064016102c3565b600580546001810182556000919091527f036b6384b5eca791c62761152d0c79bb0604c104a5fb6f4eb0703f3154bb3db00180546001600160a01b031916339081179091556040519081527f83f970044e0c4e2d8a4922431cb57df4cd6dc71f67b619eb184d105e3b6d917a906020016103c8565b60045461010090046001600160a01b0316331461062a5760405162461bcd60e51b815260206004820152603360248201527f4f6e6c79207468652073656c6563746564206170706c6963616e742063616e206044820152723832b93337b936903a3434b99030b1ba34b7b760691b60648201526084016102c3565b600360045460ff16600381111561064357610643610a48565b146106845760405162461bcd60e51b8152602060048201526011602482015270129bd8881b9bdd0818dbdb5c1b195d1959607a1b60448201526064016102c3565b6002546004546040516101009091046001600160a01b0316906108fc8315029083906000818181858888f193505050501580156106c5573d6000803e3d6000fd5b50600454604080516101009092046001600160a01b03168252602082018390527f84511ecc081974f18e7f3e0dcc19db078b55bbd3852ddd0dd85b3aebb7bf94c291015b60405180910390a150565b6000546001600160a01b0316331461073e5760405162461bcd60e51b81526004016102c390610af0565b600160045460ff16600381111561075757610757610a48565b146107b05760405162461bcd60e51b8152602060048201526024808201527f43616e27742073656c656374206170706c6963616e74206174207468697320736044820152637461676560e01b60648201526084016102c3565b6107b98161094d565b6108055760405162461bcd60e51b815260206004820152601760248201527f4164647265737320686173206e6f74206170706c69656400000000000000000060448201526064016102c3565b6004805460ff196001600160a01b0384166101008102919091166001600160a81b0319909216919091176002179091556040519081527f0d889ef5b807d75aff859dfda4c0a241a96844b7254effbcc4769891ca9c9a2290602001610709565b6000546001600160a01b0316331461088f5760405162461bcd60e51b81526004016102c390610af0565b60025434146108e05760405162461bcd60e51b815260206004820152601e60248201527f4d7573742066756e64206a6f622077697468206578616374207072696365000060448201526064016102c3565b600060045460ff1660038111156108f9576108f9610a48565b1461093e5760405162461bcd60e51b8152602060048201526015602482015274129bd8881a5cc8185b1c9958591e48199d5b991959605a1b60448201526064016102c3565b6004805460ff19166001179055565b6000805b6005548110156109a357826001600160a01b03166005828154811061097857610978610b32565b6000918252602090912001546001600160a01b03160361099b5750600192915050565b600101610951565b50600092915050565b60006020808352835180602085015260005b818110156109da578581018301518582016040015282016109be565b506000604082860101526040601f19601f8301168501019250505092915050565b6020808252825182820181905260009190848201906040850190845b81811015610a3c5783516001600160a01b031683529284019291840191600101610a17565b50909695505050505050565b634e487b7160e01b600052602160045260246000fd5b6020810160048310610a8057634e487b7160e01b600052602160045260246000fd5b91905290565b600060208284031215610a9857600080fd5b81356001600160a01b0381168114610aaf57600080fd5b9392505050565b600181811c90821680610aca57607f821691505b602082108103610aea57634e487b7160e01b600052602260045260246000fd5b50919050565b60208082526022908201527f4f6e6c79206f776e65722063616e20706572666f726d2074686973206163746960408201526137b760f11b606082015260800190565b634e487b7160e01b600052603260045260246000fdfea26469706673582212204f565d47de30caccf82ef1f88b2c1cb29d7427d2657f882e988b35cdb96ff98964736f6c63430008180033a26469706673582212205f0b5b6b18175c54411f1e91fa820bb7004046d30b91faa9eed571fab19f8c3364736f6c63430008180033",
  "linkReferences": {},
  "deployedLinkReferences": {}
}