{
  "_format": "hh-sol-artifact-1",
  "contractName": "JobPlatform",
  "sourceName": "contracts/JobPlatform.sol",
  "abi": [
    {
      "anonymous": false,
      "inputs": [
        {
          "indexed": false,
          "internalType": "address",
          "name": "jobAddress",
          "type": "address"
        },
        {
          "indexed": false,
          "internalType": "address",
          "name": "owner",
          "type": "address"
        },
        {
          "indexed": false,
          "internalType": "string",
          "name": "description",
          "type": "string"
        },
        {
          "indexed": false,
          "internalType": "uint256",
          "name": "price",
          "type": "uint256"
        }
      ],
      "name": "JobCreated",
      "type": "event"
    },
    {
      "inputs": [
        {
          "internalType": "string",
          "name": "_description",
          "type": "string"
        },
        {
          "internalType": "uint256",
          "name": "_price",
          "type": "uint256"
        },
        {
          "internalType": "uint256",
          "name": "numberOfDays",
          "type": "uint256"
        }
      ],
      "name": "createJob",
      "outputs": [],
      "stateMutability": "payable",
      "type": "function"
    },
    {
      "inputs": [
        {
          "internalType": "address",
          "name": "applicant",
          "type": "address"
        }
      ],
      "name": "getApplicantJobs",
      "outputs": [
        {
          "internalType": "contract Job[]",
          "name": "",
          "type": "address[]"
        }
      ],
      "stateMutability": "view",
      "type": "function"
    },
    {
      "inputs": [
        {
          "internalType": "address",
          "name": "employer",
          "type": "address"
        }
      ],
      "name": "getEmployerJobs",
      "outputs": [
        {
          "internalType": "contract Job[]",
          "name": "",
          "type": "address[]"
        }
      ],
      "stateMutability": "view",
      "type": "function"
    },
    {
      "inputs": [],
      "name": "getJobs",
      "outputs": [
        {
          "internalType": "contract Job[]",
          "name": "",
          "type": "address[]"
        }
      ],
      "stateMutability": "view",
      "type": "function"
    },
    {
      "inputs": [],
      "name": "getPendingJobs",
      "outputs": [
        {
          "internalType": "contract Job[]",
          "name": "",
          "type": "address[]"
        }
      ],
      "stateMutability": "view",
      "type": "function"
    }
  ],
  "bytecode": "0x608060405234801561001057600080fd5b50613080806100206000396000f3fe608060405260043610620000505760003560e01c806317a85f5514620000555780635f58cb4f146200008557806368581ebd14620000c957806379c6271114620000f9578063d03e2c641462000119575b600080fd5b3480156200006257600080fd5b506200006d6200015d565b6040516200007c919062000d29565b60405180910390f35b3480156200009257600080fd5b50620000b16004803603810190620000ab919062000da6565b62000489565b604051620000c0919062000d29565b60405180910390f35b348015620000d657600080fd5b50620000e162000558565b604051620000f0919062000d29565b60405180910390f35b62000117600480360381019062000111919062000f75565b620005e8565b005b3480156200012657600080fd5b506200014560048036038101906200013f919062000da6565b620007ba565b60405162000154919062000d29565b60405180910390f35b60606000805b6000805490508110156200027d576000600281111562000188576200018762000ff0565b5b600082815481106200019f576200019e6200101f565b5b9060005260206000200160009054906101000a900473ffffffffffffffffffffffffffffffffffffffff1673ffffffffffffffffffffffffffffffffffffffff1663200d2ed26040518163ffffffff1660e01b8152600401602060405180830381865afa15801562000215573d6000803e3d6000fd5b505050506040513d601f19601f820116820180604052508101906200023b919062001076565b600281111562000250576200024f62000ff0565b5b03620002675781806200026390620010d7565b9250505b80806200027490620010d7565b91505062000163565b5060008167ffffffffffffffff8111156200029d576200029c62000df3565b5b604051908082528060200260200182016040528015620002cc5781602001602082028036833780820191505090505b5090506000805b6000805490508110156200047f5760006002811115620002f857620002f762000ff0565b5b600082815481106200030f576200030e6200101f565b5b9060005260206000200160009054906101000a900473ffffffffffffffffffffffffffffffffffffffff1673ffffffffffffffffffffffffffffffffffffffff1663200d2ed26040518163ffffffff1660e01b8152600401602060405180830381865afa15801562000385573d6000803e3d6000fd5b505050506040513d601f19601f82011682018060405250810190620003ab919062001076565b6002811115620003c057620003bf62000ff0565b5b03620004695760008181548110620003dd57620003dc6200101f565b5b9060005260206000200160009054906101000a900473ffffffffffffffffffffffffffffffffffffffff168383815181106200041e576200041d6200101f565b5b602002602001019073ffffffffffffffffffffffffffffffffffffffff16908173ffffffffffffffffffffffffffffffffffffffff168152505081806200046590620010d7565b9250505b80806200047690620010d7565b915050620002d3565b5081935050505090565b6060600160008373ffffffffffffffffffffffffffffffffffffffff1673ffffffffffffffffffffffffffffffffffffffff1681526020019081526020016000208054806020026020016040519081016040528092919081815260200182805480156200054c57602002820191906000526020600020905b8160009054906101000a900473ffffffffffffffffffffffffffffffffffffffff1673ffffffffffffffffffffffffffffffffffffffff168152602001906001019080831162000501575b50505050509050919050565b60606000805480602002602001604051908101604052809291908181526020018280548015620005de57602002820191906000526020600020905b8160009054906101000a900473ffffffffffffffffffffffffffffffffffffffff1673ffffffffffffffffffffffffffffffffffffffff168152602001906001019080831162000593575b5050505050905090565b8134146200062d576040517f08c379a0000000000000000000000000000000000000000000000000000000008152600401620006249062001185565b60405180910390fd5b60003433858585604051620006429062000bd3565b62000651949392919062001241565b6040518091039082f09050801580156200066f573d6000803e3d6000fd5b5090506000819080600181540180825580915050600190039060005260206000200160009091909190916101000a81548173ffffffffffffffffffffffffffffffffffffffff021916908373ffffffffffffffffffffffffffffffffffffffff160217905550600160003373ffffffffffffffffffffffffffffffffffffffff1673ffffffffffffffffffffffffffffffffffffffff168152602001908152602001600020819080600181540180825580915050600190039060005260206000200160009091909190916101000a81548173ffffffffffffffffffffffffffffffffffffffff021916908373ffffffffffffffffffffffffffffffffffffffff1602179055507fa70c538334e61fe5b5b7786228f6868375a53521e9befcd1771a0082c865967381338686604051620007ac949392919062001295565b60405180910390a150505050565b60606000805b600080549050811015620009c4578373ffffffffffffffffffffffffffffffffffffffff1660008281548110620007fc57620007fb6200101f565b5b9060005260206000200160009054906101000a900473ffffffffffffffffffffffffffffffffffffffff1673ffffffffffffffffffffffffffffffffffffffff166304707a166040518163ffffffff1660e01b8152600401602060405180830381865afa15801562000872573d6000803e3d6000fd5b505050506040513d601f19601f8201168201806040525081019062000898919062001300565b73ffffffffffffffffffffffffffffffffffffffff16148015620009975750600280811115620008cd57620008cc62000ff0565b5b60008281548110620008e457620008e36200101f565b5b9060005260206000200160009054906101000a900473ffffffffffffffffffffffffffffffffffffffff1673ffffffffffffffffffffffffffffffffffffffff1663200d2ed26040518163ffffffff1660e01b8152600401602060405180830381865afa1580156200095a573d6000803e3d6000fd5b505050506040513d601f19601f8201168201806040525081019062000980919062001076565b600281111562000995576200099462000ff0565b5b145b15620009ae578180620009aa90620010d7565b9250505b8080620009bb90620010d7565b915050620007c0565b5060008167ffffffffffffffff811115620009e457620009e362000df3565b5b60405190808252806020026020018201604052801562000a135781602001602082028036833780820191505090505b5090506000805b60008054905081101562000bc7578573ffffffffffffffffffffffffffffffffffffffff166000828154811062000a565762000a556200101f565b5b9060005260206000200160009054906101000a900473ffffffffffffffffffffffffffffffffffffffff1673ffffffffffffffffffffffffffffffffffffffff166304707a166040518163ffffffff1660e01b8152600401602060405180830381865afa15801562000acc573d6000803e3d6000fd5b505050506040513d601f19601f8201168201806040525081019062000af2919062001300565b73ffffffffffffffffffffffffffffffffffffffff160362000bb1576000818154811062000b255762000b246200101f565b5b9060005260206000200160009054906101000a900473ffffffffffffffffffffffffffffffffffffffff1683838151811062000b665762000b656200101f565b5b602002602001019073ffffffffffffffffffffffffffffffffffffffff16908173ffffffffffffffffffffffffffffffffffffffff1681525050818062000bad90620010d7565b9250505b808062000bbe90620010d7565b91505062000a1a565b50819350505050919050565b611d18806200133383390190565b600081519050919050565b600082825260208201905092915050565b6000819050602082019050919050565b600073ffffffffffffffffffffffffffffffffffffffff82169050919050565b6000819050919050565b600062000c5862000c5262000c4c8462000c0d565b62000c2d565b62000c0d565b9050919050565b600062000c6c8262000c37565b9050919050565b600062000c808262000c5f565b9050919050565b62000c928162000c73565b82525050565b600062000ca6838362000c87565b60208301905092915050565b6000602082019050919050565b600062000ccc8262000be1565b62000cd8818562000bec565b935062000ce58362000bfd565b8060005b8381101562000d1c57815162000d00888262000c98565b975062000d0d8362000cb2565b92505060018101905062000ce9565b5085935050505092915050565b6000602082019050818103600083015262000d45818462000cbf565b905092915050565b6000604051905090565b600080fd5b600080fd5b600062000d6e8262000c0d565b9050919050565b62000d808162000d61565b811462000d8c57600080fd5b50565b60008135905062000da08162000d75565b92915050565b60006020828403121562000dbf5762000dbe62000d57565b5b600062000dcf8482850162000d8f565b91505092915050565b600080fd5b600080fd5b6000601f19601f8301169050919050565b7f4e487b7100000000000000000000000000000000000000000000000000000000600052604160045260246000fd5b62000e2d8262000de2565b810181811067ffffffffffffffff8211171562000e4f5762000e4e62000df3565b5b80604052505050565b600062000e6462000d4d565b905062000e72828262000e22565b919050565b600067ffffffffffffffff82111562000e955762000e9462000df3565b5b62000ea08262000de2565b9050602081019050919050565b82818337600083830152505050565b600062000ed362000ecd8462000e77565b62000e58565b90508281526020810184848401111562000ef25762000ef162000ddd565b5b62000eff84828562000ead565b509392505050565b600082601f83011262000f1f5762000f1e62000dd8565b5b813562000f3184826020860162000ebc565b91505092915050565b6000819050919050565b62000f4f8162000f3a565b811462000f5b57600080fd5b50565b60008135905062000f6f8162000f44565b92915050565b60008060006060848603121562000f915762000f9062000d57565b5b600084013567ffffffffffffffff81111562000fb25762000fb162000d5c565b5b62000fc08682870162000f07565b935050602062000fd38682870162000f5e565b925050604062000fe68682870162000f5e565b9150509250925092565b7f4e487b7100000000000000000000000000000000000000000000000000000000600052602160045260246000fd5b7f4e487b7100000000000000000000000000000000000000000000000000000000600052603260045260246000fd5b600381106200105c57600080fd5b50565b60008151905062001070816200104e565b92915050565b6000602082840312156200108f576200108e62000d57565b5b60006200109f848285016200105f565b91505092915050565b7f4e487b7100000000000000000000000000000000000000000000000000000000600052601160045260246000fd5b6000620010e48262000f3a565b91507fffffffffffffffffffffffffffffffffffffffffffffffffffffffffffffffff8203620011195762001118620010a8565b5b600182019050919050565b600082825260208201905092915050565b7f4d7573742066756e64206a6f6220776974682065786163742070726963650000600082015250565b60006200116d601e8362001124565b91506200117a8262001135565b602082019050919050565b60006020820190508181036000830152620011a0816200115e565b9050919050565b620011b28162000d61565b82525050565b600081519050919050565b60005b83811015620011e3578082015181840152602081019050620011c6565b60008484015250505050565b6000620011fc82620011b8565b62001208818562001124565b93506200121a818560208601620011c3565b620012258162000de2565b840191505092915050565b6200123b8162000f3a565b82525050565b6000608082019050620012586000830187620011a7565b81810360208301526200126c8186620011ef565b90506200127d604083018562001230565b6200128c606083018462001230565b95945050505050565b6000608082019050620012ac6000830187620011a7565b620012bb6020830186620011a7565b8181036040830152620012cf8185620011ef565b9050620012e0606083018462001230565b95945050505050565b600081519050620012fa8162000d75565b92915050565b60006020828403121562001319576200131862000d57565b5b60006200132984828501620012e9565b9150509291505056fe608060405260405162001d1838038062001d18833981810160405281019062000029919062000339565b8134146200006e576040517f08c379a000000000000000000000000000000000000000000000000000000000815260040162000065906200042b565b60405180910390fd5b836000806101000a81548173ffffffffffffffffffffffffffffffffffffffff021916908373ffffffffffffffffffffffffffffffffffffffff1602179055508260019081620000bf91906200068e565b5081600281905550806003819055506000600460006101000a81548160ff02191690836002811115620000f757620000f662000775565b5b021790555050505050620007a4565b6000604051905090565b600080fd5b600080fd5b600073ffffffffffffffffffffffffffffffffffffffff82169050919050565b600062000147826200011a565b9050919050565b62000159816200013a565b81146200016557600080fd5b50565b60008151905062000179816200014e565b92915050565b600080fd5b600080fd5b6000601f19601f8301169050919050565b7f4e487b7100000000000000000000000000000000000000000000000000000000600052604160045260246000fd5b620001d48262000189565b810181811067ffffffffffffffff82111715620001f657620001f56200019a565b5b80604052505050565b60006200020b62000106565b9050620002198282620001c9565b919050565b600067ffffffffffffffff8211156200023c576200023b6200019a565b5b620002478262000189565b9050602081019050919050565b60005b838110156200027457808201518184015260208101905062000257565b60008484015250505050565b60006200029762000291846200021e565b620001ff565b905082815260208101848484011115620002b657620002b562000184565b5b620002c384828562000254565b509392505050565b600082601f830112620002e357620002e26200017f565b5b8151620002f584826020860162000280565b91505092915050565b6000819050919050565b6200031381620002fe565b81146200031f57600080fd5b50565b600081519050620003338162000308565b92915050565b6000806000806080858703121562000356576200035562000110565b5b6000620003668782880162000168565b945050602085015167ffffffffffffffff8111156200038a576200038962000115565b5b6200039887828801620002cb565b9350506040620003ab8782880162000322565b9250506060620003be8782880162000322565b91505092959194509250565b600082825260208201905092915050565b7f4d7573742066756e64206a6f6220776974682065786163742070726963650000600082015250565b600062000413601e83620003ca565b91506200042082620003db565b602082019050919050565b60006020820190508181036000830152620004468162000404565b9050919050565b600081519050919050565b7f4e487b7100000000000000000000000000000000000000000000000000000000600052602260045260246000fd5b60006002820490506001821680620004a057607f821691505b602082108103620004b657620004b562000458565b5b50919050565b60008190508160005260206000209050919050565b60006020601f8301049050919050565b600082821b905092915050565b600060088302620005207fffffffffffffffffffffffffffffffffffffffffffffffffffffffffffffffff82620004e1565b6200052c8683620004e1565b95508019841693508086168417925050509392505050565b6000819050919050565b60006200056f620005696200056384620002fe565b62000544565b620002fe565b9050919050565b6000819050919050565b6200058b836200054e565b620005a36200059a8262000576565b848454620004ee565b825550505050565b600090565b620005ba620005ab565b620005c781848462000580565b505050565b5b81811015620005ef57620005e3600082620005b0565b600181019050620005cd565b5050565b601f8211156200063e576200060881620004bc565b6200061384620004d1565b8101602085101562000623578190505b6200063b6200063285620004d1565b830182620005cc565b50505b505050565b600082821c905092915050565b6000620006636000198460080262000643565b1980831691505092915050565b60006200067e838362000650565b9150826002028217905092915050565b62000699826200044d565b67ffffffffffffffff811115620006b557620006b46200019a565b5b620006c1825462000487565b620006ce828285620005f3565b600060209050601f831160018114620007065760008415620006f1578287015190505b620006fd858262000670565b8655506200076d565b601f1984166200071686620004bc565b60005b82811015620007405784890151825560018201915060208501945060208101905062000719565b868310156200076057848901516200075c601f89168262000650565b8355505b6001600288020188555050505b505050505050565b7f4e487b7100000000000000000000000000000000000000000000000000000000600052602160045260246000fd5b61156480620007b46000396000f3fe608060405234801561001057600080fd5b50600436106100b45760003560e01c8063755d7bbd11610071578063755d7bbd1461016b5780638da5cb5b14610175578063a035b1fe14610193578063a118babd146101b1578063bfd1a5f6146101bb578063e9f6bd0b146101d7576100b4565b806304707a16146100b9578063200d2ed2146100d75780633086848f146100f5578063455772d2146100ff57806363de53231461011d5780637284e4161461014d575b600080fd5b6100c16101f5565b6040516100ce9190610c71565b60405180910390f35b6100df61021b565b6040516100ec9190610d03565b60405180910390f35b6100fd61022e565b005b610107610449565b6040516101149190610ddc565b60405180910390f35b61013760048036038101906101329190610e39565b6104d7565b6040516101449190610c71565b60405180910390f35b610155610516565b6040516101629190610ef6565b60405180910390f35b6101736105a4565b005b61017d61078d565b60405161018a9190610c71565b60405180910390f35b61019b6107b1565b6040516101a89190610f27565b60405180910390f35b6101b96107b7565b005b6101d560048036038101906101d09190610f6e565b61098a565b005b6101df610b7c565b6040516101ec9190610f27565b60405180910390f35b600460019054906101000a900473ffffffffffffffffffffffffffffffffffffffff1681565b600460009054906101000a900460ff1681565b60008054906101000a900473ffffffffffffffffffffffffffffffffffffffff1673ffffffffffffffffffffffffffffffffffffffff163373ffffffffffffffffffffffffffffffffffffffff16146102bc576040517f08c379a00000000000000000000000000000000000000000000000000000000081526004016102b39061100d565b60405180910390fd5b600160028111156102d0576102cf610c8c565b5b600460009054906101000a900460ff1660028111156102f2576102f1610c8c565b5b14610332576040517f08c379a000000000000000000000000000000000000000000000000000000000815260040161032990611079565b60405180910390fd5b600073ffffffffffffffffffffffffffffffffffffffff16600460019054906101000a900473ffffffffffffffffffffffffffffffffffffffff1673ffffffffffffffffffffffffffffffffffffffff16036103c3576040517f08c379a00000000000000000000000000000000000000000000000000000000081526004016103ba90611079565b60405180910390fd5b6002600460006101000a81548160ff021916908360028111156103e9576103e8610c8c565b5b02179055507fa7ce9489b811cd79bb8695d6ad4051484c96aea68805ffa76eea626f7121f800600460019054906101000a900473ffffffffffffffffffffffffffffffffffffffff1660405161043f9190610c71565b60405180910390a1565b606060058054806020026020016040519081016040528092919081815260200182805480156104cd57602002820191906000526020600020905b8160009054906101000a900473ffffffffffffffffffffffffffffffffffffffff1673ffffffffffffffffffffffffffffffffffffffff1681526020019060010190808311610483575b5050505050905090565b600581815481106104e757600080fd5b906000526020600020016000915054906101000a900473ffffffffffffffffffffffffffffffffffffffff1681565b60018054610523906110c8565b80601f016020809104026020016040519081016040528092919081815260200182805461054f906110c8565b801561059c5780601f106105715761010080835404028352916020019161059c565b820191906000526020600020905b81548152906001019060200180831161057f57829003601f168201915b505050505081565b60008054906101000a900473ffffffffffffffffffffffffffffffffffffffff1673ffffffffffffffffffffffffffffffffffffffff163373ffffffffffffffffffffffffffffffffffffffff1603610632576040517f08c379a000000000000000000000000000000000000000000000000000000000815260040161062990611145565b60405180910390fd5b6000600281111561064657610645610c8c565b5b600460009054906101000a900460ff16600281111561066857610667610c8c565b5b146106a8576040517f08c379a000000000000000000000000000000000000000000000000000000000815260040161069f906111d7565b60405180910390fd5b6106b133610b82565b156106f1576040517f08c379a00000000000000000000000000000000000000000000000000000000081526004016106e890611243565b60405180910390fd5b6005339080600181540180825580915050600190039060005260206000200160009091909190916101000a81548173ffffffffffffffffffffffffffffffffffffffff021916908373ffffffffffffffffffffffffffffffffffffffff1602179055507f83f970044e0c4e2d8a4922431cb57df4cd6dc71f67b619eb184d105e3b6d917a336040516107839190610c71565b60405180910390a1565b60008054906101000a900473ffffffffffffffffffffffffffffffffffffffff1681565b60025481565b600460019054906101000a900473ffffffffffffffffffffffffffffffffffffffff1673ffffffffffffffffffffffffffffffffffffffff163373ffffffffffffffffffffffffffffffffffffffff1614610847576040517f08c379a000000000000000000000000000000000000000000000000000000000815260040161083e906112d5565b60405180910390fd5b60028081111561085a57610859610c8c565b5b600460009054906101000a900460ff16600281111561087c5761087b610c8c565b5b146108bc576040517f08c379a00000000000000000000000000000000000000000000000000000000081526004016108b390611341565b60405180910390fd5b60006002549050600460019054906101000a900473ffffffffffffffffffffffffffffffffffffffff1673ffffffffffffffffffffffffffffffffffffffff166108fc829081150290604051600060405180830381858888f1935050505015801561092b573d6000803e3d6000fd5b507f84511ecc081974f18e7f3e0dcc19db078b55bbd3852ddd0dd85b3aebb7bf94c2600460019054906101000a900473ffffffffffffffffffffffffffffffffffffffff168260405161097f929190611361565b60405180910390a150565b60008054906101000a900473ffffffffffffffffffffffffffffffffffffffff1673ffffffffffffffffffffffffffffffffffffffff163373ffffffffffffffffffffffffffffffffffffffff1614610a18576040517f08c379a0000000000000000000000000000000000000000000000000000000008152600401610a0f9061100d565b60405180910390fd5b60006002811115610a2c57610a2b610c8c565b5b600460009054906101000a900460ff166002811115610a4e57610a4d610c8c565b5b14610a8e576040517f08c379a0000000000000000000000000000000000000000000000000000000008152600401610a85906113fc565b60405180910390fd5b610a9781610b82565b610ad6576040517f08c379a0000000000000000000000000000000000000000000000000000000008152600401610acd90611468565b60405180910390fd5b80600460016101000a81548173ffffffffffffffffffffffffffffffffffffffff021916908373ffffffffffffffffffffffffffffffffffffffff1602179055506001600460006101000a81548160ff02191690836002811115610b3d57610b3c610c8c565b5b02179055507f0d889ef5b807d75aff859dfda4c0a241a96844b7254effbcc4769891ca9c9a2281604051610b719190610c71565b60405180910390a150565b60035481565b600080600090505b600580549050811015610c25578273ffffffffffffffffffffffffffffffffffffffff1660058281548110610bc257610bc1611488565b5b9060005260206000200160009054906101000a900473ffffffffffffffffffffffffffffffffffffffff1673ffffffffffffffffffffffffffffffffffffffff1603610c12576001915050610c2b565b8080610c1d906114e6565b915050610b8a565b50600090505b919050565b600073ffffffffffffffffffffffffffffffffffffffff82169050919050565b6000610c5b82610c30565b9050919050565b610c6b81610c50565b82525050565b6000602082019050610c866000830184610c62565b92915050565b7f4e487b7100000000000000000000000000000000000000000000000000000000600052602160045260246000fd5b60038110610ccc57610ccb610c8c565b5b50565b6000819050610cdd82610cbb565b919050565b6000610ced82610ccf565b9050919050565b610cfd81610ce2565b82525050565b6000602082019050610d186000830184610cf4565b92915050565b600081519050919050565b600082825260208201905092915050565b6000819050602082019050919050565b610d5381610c50565b82525050565b6000610d658383610d4a565b60208301905092915050565b6000602082019050919050565b6000610d8982610d1e565b610d938185610d29565b9350610d9e83610d3a565b8060005b83811015610dcf578151610db68882610d59565b9750610dc183610d71565b925050600181019050610da2565b5085935050505092915050565b60006020820190508181036000830152610df68184610d7e565b905092915050565b600080fd5b6000819050919050565b610e1681610e03565b8114610e2157600080fd5b50565b600081359050610e3381610e0d565b92915050565b600060208284031215610e4f57610e4e610dfe565b5b6000610e5d84828501610e24565b91505092915050565b600081519050919050565b600082825260208201905092915050565b60005b83811015610ea0578082015181840152602081019050610e85565b60008484015250505050565b6000601f19601f8301169050919050565b6000610ec882610e66565b610ed28185610e71565b9350610ee2818560208601610e82565b610eeb81610eac565b840191505092915050565b60006020820190508181036000830152610f108184610ebd565b905092915050565b610f2181610e03565b82525050565b6000602082019050610f3c6000830184610f18565b92915050565b610f4b81610c50565b8114610f5657600080fd5b50565b600081359050610f6881610f42565b92915050565b600060208284031215610f8457610f83610dfe565b5b6000610f9284828501610f59565b91505092915050565b7f4f6e6c79206f776e65722063616e20706572666f726d2074686973206163746960008201527f6f6e000000000000000000000000000000000000000000000000000000000000602082015250565b6000610ff7602283610e71565b915061100282610f9b565b604082019050919050565b6000602082019050818103600083015261102681610fea565b9050919050565b7f4e6f206170706c6963616e742073656c65637465640000000000000000000000600082015250565b6000611063601583610e71565b915061106e8261102d565b602082019050919050565b6000602082019050818103600083015261109281611056565b9050919050565b7f4e487b7100000000000000000000000000000000000000000000000000000000600052602260045260246000fd5b600060028204905060018216806110e057607f821691505b6020821081036110f3576110f2611099565b5b50919050565b7f4f776e65722063616e6e6f74206170706c790000000000000000000000000000600082015250565b600061112f601283610e71565b915061113a826110f9565b602082019050919050565b6000602082019050818103600083015261115e81611122565b9050919050565b7f4a6f62206973206e6f7420616363657074696e67206170706c69636174696f6e60008201527f7300000000000000000000000000000000000000000000000000000000000000602082015250565b60006111c1602183610e71565b91506111cc82611165565b604082019050919050565b600060208201905081810360008301526111f0816111b4565b9050919050565b7f416c7265616479206170706c6965640000000000000000000000000000000000600082015250565b600061122d600f83610e71565b9150611238826111f7565b602082019050919050565b6000602082019050818103600083015261125c81611220565b9050919050565b7f4f6e6c79207468652073656c6563746564206170706c6963616e742063616e2060008201527f706572666f726d207468697320616374696f6e00000000000000000000000000602082015250565b60006112bf603383610e71565b91506112ca82611263565b604082019050919050565b600060208201905081810360008301526112ee816112b2565b9050919050565b7f4a6f62206e6f7420636f6d706c65746564000000000000000000000000000000600082015250565b600061132b601183610e71565b9150611336826112f5565b602082019050919050565b6000602082019050818103600083015261135a8161131e565b9050919050565b60006040820190506113766000830185610c62565b6113836020830184610f18565b9392505050565b7f43616e27742073656c656374206170706c6963616e742061742074686973207360008201527f7461676500000000000000000000000000000000000000000000000000000000602082015250565b60006113e6602483610e71565b91506113f18261138a565b604082019050919050565b60006020820190508181036000830152611415816113d9565b9050919050565b7f4164647265737320686173206e6f74206170706c696564000000000000000000600082015250565b6000611452601783610e71565b915061145d8261141c565b602082019050919050565b6000602082019050818103600083015261148181611445565b9050919050565b7f4e487b7100000000000000000000000000000000000000000000000000000000600052603260045260246000fd5b7f4e487b7100000000000000000000000000000000000000000000000000000000600052601160045260246000fd5b60006114f182610e03565b91507fffffffffffffffffffffffffffffffffffffffffffffffffffffffffffffffff8203611523576115226114b7565b5b60018201905091905056fea2646970667358221220c9c2da45c2191d530802d7085dc64d4f1890babd0e70570440333e761960edf964736f6c63430008130033a2646970667358221220cc18f1e53dfd02dcecb47c80f2d8f4ff58ceba7ec39dbab7ac04b497af6f057664736f6c63430008130033",
  "linkReferences": {},
  "deployedLinkReferences": {}
}