{
  "_format": "hh-sol-artifact-1",
  "contractName": "JobPlatform",
  "sourceName": "contracts/JobPlatform.sol",
  "abi": [
    {
      "anonymous": false,
      "inputs": [
        {
          "indexed": false,
          "internalType": "address",
          "name": "jobAddress",
          "type": "address"
        },
        {
          "indexed": false,
          "internalType": "address",
          "name": "owner",
          "type": "address"
        },
        {
          "indexed": false,
          "internalType": "string",
          "name": "description",
          "type": "string"
        },
        {
          "indexed": false,
          "internalType": "uint256",
          "name": "price",
          "type": "uint256"
        }
      ],
      "name": "JobCreated",
      "type": "event"
    },
    {
      "inputs": [
        {
          "internalType": "string",
          "name": "_description",
          "type": "string"
        },
        {
          "internalType": "uint256",
          "name": "_price",
          "type": "uint256"
        },
        {
          "internalType": "uint256",
          "name": "numberOfDays",
          "type": "uint256"
        }
      ],
      "name": "createJob",
      "outputs": [],
      "stateMutability": "nonpayable",
      "type": "function"
    },
    {
      "inputs": [
        {
          "internalType": "address",
          "name": "applicant",
          "type": "address"
        }
      ],
      "name": "getApplicantJobs",
      "outputs": [
        {
          "internalType": "contract Job[]",
          "name": "",
          "type": "address[]"
        }
      ],
      "stateMutability": "view",
      "type": "function"
    },
    {
      "inputs": [
        {
          "internalType": "address",
          "name": "employer",
          "type": "address"
        }
      ],
      "name": "getEmployerJobs",
      "outputs": [
        {
          "internalType": "contract Job[]",
          "name": "",
          "type": "address[]"
        }
      ],
      "stateMutability": "view",
      "type": "function"
    },
    {
      "inputs": [],
      "name": "getJobs",
      "outputs": [
        {
          "internalType": "contract Job[]",
          "name": "",
          "type": "address[]"
        }
      ],
      "stateMutability": "view",
      "type": "function"
    },
    {
      "inputs": [],
      "name": "getPaymentWithdrownJobs",
      "outputs": [
        {
          "internalType": "contract Job[]",
          "name": "",
          "type": "address[]"
        }
      ],
      "stateMutability": "view",
      "type": "function"
    },
    {
      "inputs": [],
      "name": "getPendingJobs",
      "outputs": [
        {
          "internalType": "contract Job[]",
          "name": "",
          "type": "address[]"
        }
      ],
      "stateMutability": "view",
      "type": "function"
    }
  ],
  "bytecode": "0x608060405234801561001057600080fd5b50611d2c806100206000396000f3fe60806040523480156200001157600080fd5b50600436106200006a5760003560e01c806317a85f55146200006f5780635f58cb4f146200009157806368581ebd14620000a857806379c6271114620000b257806384fe6c0d14620000cb578063d03e2c6414620000d5575b600080fd5b62000079620000ec565b60405162000088919062000a3d565b60405180910390f35b62000079620000a236600462000aa5565b62000340565b62000079620003b8565b620000c9620000c336600462000ae2565b6200041c565b005b6200007962000515565b62000079620000e636600462000aa5565b62000734565b60606000805b600054811015620001bd5760016000828154811062000115576200011562000bc6565b60009182526020918290200154604080516302734eab60e51b815290516001600160a01b0390921692634e69d560926004808401938290030181865afa15801562000164573d6000803e3d6000fd5b505050506040513d601f19601f820116820180604052508101906200018a919062000bdc565b60048111156200019e576200019e62000bb0565b03620001b45781620001b08162000bff565b9250505b600101620000f2565b5060008167ffffffffffffffff811115620001dc57620001dc62000acc565b60405190808252806020026020018201604052801562000206578160200160208202803683370190505b5090506000805b8381101562000337576001600082815481106200022e576200022e62000bc6565b60009182526020918290200154604080516302734eab60e51b815290516001600160a01b0390921692634e69d560926004808401938290030181865afa1580156200027d573d6000803e3d6000fd5b505050506040513d601f19601f82011682018060405250810190620002a3919062000bdc565b6004811115620002b757620002b762000bb0565b036200032e5760008181548110620002d357620002d362000bc6565b9060005260206000200160009054906101000a90046001600160a01b031683838151811062000306576200030662000bc6565b6001600160a01b0390921660209283029190910190910152816200032a8162000bff565b9250505b6001016200020d565b50909392505050565b6001600160a01b038116600090815260016020908152604091829020805483518184028101840190945280845260609392830182828015620003ac57602002820191906000526020600020905b81546001600160a01b031681526001909101906020018083116200038d575b50505050509050919050565b606060008054806020026020016040519081016040528092919081815260200182805480156200041257602002820191906000526020600020905b81546001600160a01b03168152600190910190602001808311620003f3575b5050505050905090565b600033848484604051620004309062000a2f565b6200043f949392919062000c6f565b604051809103906000f0801580156200045c573d6000803e3d6000fd5b5060008054600181810183557f290decd9548b62a8d60345a988386fc84ba6bc95484008f6362f93160ef3e56390910180546001600160a01b0385166001600160a01b03199182168117909255338085526020848152604080872080549687018155875295209093018054909116909117905590519192507fa70c538334e61fe5b5b7786228f6868375a53521e9befcd1771a0082c865967391620005079184918890889062000ca8565b60405180910390a150505050565b60606000805b600054811015620005d057600081815481106200053c576200053c62000bc6565b600091825260209182902001546040805163dd3f1b5560e01b815290516001600160a01b039092169263dd3f1b55926004808401938290030181865afa1580156200058b573d6000803e3d6000fd5b505050506040513d601f19601f82011682018060405250810190620005b1919062000ce7565b15620005c75781620005c38162000bff565b9250505b6001016200051b565b5060008167ffffffffffffffff811115620005ef57620005ef62000acc565b60405190808252806020026020018201604052801562000619578160200160208202803683370190505b5090506000805b838110156200033757600081815481106200063f576200063f62000bc6565b600091825260209182902001546040805163dd3f1b5560e01b815290516001600160a01b039092169263dd3f1b55926004808401938290030181865afa1580156200068e573d6000803e3d6000fd5b505050506040513d601f19601f82011682018060405250810190620006b4919062000ce7565b156200072b5760008181548110620006d057620006d062000bc6565b9060005260206000200160009054906101000a90046001600160a01b031683838151811062000703576200070362000bc6565b6001600160a01b039092166020928302919091019091015281620007278162000bff565b9250505b60010162000620565b60606000805b600054811015620008ae57836001600160a01b03166000828154811062000765576200076562000bc6565b6000918252602091829020015460408051634e4f902960e11b815290516001600160a01b0390921692639c9f2052926004808401938290030181865afa158015620007b4573d6000803e3d6000fd5b505050506040513d601f19601f82011682018060405250810190620007da919062000d0b565b6001600160a01b03161480156200088f575060036000828154811062000804576200080462000bc6565b60009182526020918290200154604080516302734eab60e51b815290516001600160a01b0390921692634e69d560926004808401938290030181865afa15801562000853573d6000803e3d6000fd5b505050506040513d601f19601f8201168201806040525081019062000879919062000bdc565b60048111156200088d576200088d62000bb0565b145b15620008a55781620008a18162000bff565b9250505b6001016200073a565b5060008167ffffffffffffffff811115620008cd57620008cd62000acc565b604051908082528060200260200182016040528015620008f7578160200160208202803683370190505b5090506000805b8381101562000a2557856001600160a01b03166000828154811062000927576200092762000bc6565b6000918252602091829020015460408051634e4f902960e11b815290516001600160a01b0390921692639c9f2052926004808401938290030181865afa15801562000976573d6000803e3d6000fd5b505050506040513d601f19601f820116820180604052508101906200099c919062000d0b565b6001600160a01b03160362000a1c5760008181548110620009c157620009c162000bc6565b9060005260206000200160009054906101000a90046001600160a01b0316838381518110620009f457620009f462000bc6565b6001600160a01b03909216602092830291909101909101528162000a188162000bff565b9250505b600101620008fe565b5090949350505050565b610fcb8062000d2c83390190565b6020808252825182820181905260009190848201906040850190845b8181101562000a805783516001600160a01b03168352928401929184019160010162000a59565b50909695505050505050565b6001600160a01b038116811462000aa257600080fd5b50565b60006020828403121562000ab857600080fd5b813562000ac58162000a8c565b9392505050565b634e487b7160e01b600052604160045260246000fd5b60008060006060848603121562000af857600080fd5b833567ffffffffffffffff8082111562000b1157600080fd5b818601915086601f83011262000b2657600080fd5b81358181111562000b3b5762000b3b62000acc565b604051601f8201601f19908116603f0116810190838211818310171562000b665762000b6662000acc565b8160405282815289602084870101111562000b8057600080fd5b82602086016020830137600060208483010152809750505050505060208401359150604084013590509250925092565b634e487b7160e01b600052602160045260246000fd5b634e487b7160e01b600052603260045260246000fd5b60006020828403121562000bef57600080fd5b81516005811062000ac557600080fd5b60006001820162000c2057634e487b7160e01b600052601160045260246000fd5b5060010190565b6000815180845260005b8181101562000c4f5760208185018101518683018201520162000c31565b506000602082860101526020601f19601f83011685010191505092915050565b6001600160a01b038516815260806020820181905260009062000c959083018662000c27565b6040830194909452506060015292915050565b6001600160a01b0385811682528416602082015260806040820181905260009062000cd69083018562000c27565b905082606083015295945050505050565b60006020828403121562000cfa57600080fd5b8151801515811462000ac557600080fd5b60006020828403121562000d1e57600080fd5b815162000ac58162000a8c56fe60806040523480156200001157600080fd5b5060405162000fcb38038062000fcb83398101604081905262000034916200008f565b600080546001600160a01b0319166001600160a01b03861617905560016200005d848262000226565b5060029190915560035550506004805460ff19169055620002f2565b634e487b7160e01b600052604160045260246000fd5b60008060008060808587031215620000a657600080fd5b84516001600160a01b0381168114620000be57600080fd5b602086810151919550906001600160401b0380821115620000de57600080fd5b818801915088601f830112620000f357600080fd5b81518181111562000108576200010862000079565b604051601f8201601f19908116603f0116810190838211818310171562000133576200013362000079565b816040528281528b868487010111156200014c57600080fd5b600093505b8284101562000170578484018601518185018701529285019262000151565b6000928101909501919091525050506040860151606090960151949790965092505050565b600181811c90821680620001aa57607f821691505b602082108103620001cb57634e487b7160e01b600052602260045260246000fd5b50919050565b601f82111562000221576000816000526020600020601f850160051c81016020861015620001fc5750805b601f850160051c820191505b818110156200021d5782815560010162000208565b5050505b505050565b81516001600160401b0381111562000242576200024262000079565b6200025a8162000253845462000195565b84620001d1565b602080601f831160018114620002925760008415620002795750858301515b600019600386901b1c1916600185901b1785556200021d565b600085815260208120601f198616915b82811015620002c357888601518255948401946001909101908401620002a2565b5085821015620002e25787850151600019600388901b60f8161c191681555b5050505050600190811b01905550565b610cc980620003026000396000f3fe6080604052600436106100c25760003560e01c8063893d20e81161007f578063a118babd11610059578063a118babd146101e5578063bfd1a5f6146101fa578063dd3f1b551461021a578063ef47243d1461023f57600080fd5b8063893d20e81461017b57806398d5fdca146101ad5780639c9f2052146101c257600080fd5b806310f34602146100c75780631a092541146100eb5780633086848f1461010d578063455772d2146101245780634e69d56014610146578063755d7bbd14610166575b600080fd5b3480156100d357600080fd5b506003545b6040519081526020015b60405180910390f35b3480156100f757600080fd5b50610100610247565b6040516100e29190610af7565b34801561011957600080fd5b506101226102d9565b005b34801561013057600080fd5b50610139610478565b6040516100e29190610b46565b34801561015257600080fd5b5060045460ff166040516100e29190610ba9565b34801561017257600080fd5b506101226104d9565b34801561018757600080fd5b506000546001600160a01b03165b6040516001600160a01b0390911681526020016100e2565b3480156101b957600080fd5b506002546100d8565b3480156101ce57600080fd5b5060045461010090046001600160a01b0316610195565b3480156101f157600080fd5b50610122610655565b34801561020657600080fd5b50610122610215366004610bd1565b61083f565b34801561022657600080fd5b5061022f610990565b60405190151581526020016100e2565b6101226109b0565b60606001805461025690610c01565b80601f016020809104026020016040519081016040528092919081815260200182805461028290610c01565b80156102cf5780601f106102a4576101008083540402835291602001916102cf565b820191906000526020600020905b8154815290600101906020018083116102b257829003601f168201915b5050505050905090565b6000546001600160a01b0316331461030c5760405162461bcd60e51b815260040161030390610c3b565b60405180910390fd5b60036004805460ff169081111561032557610325610b93565b036103725760405162461bcd60e51b815260206004820152601c60248201527f546865206a6f6220697320616c726561647920636f6d706c65746564000000006044820152606401610303565b60026004805460ff169081111561038b5761038b610b93565b146103d05760405162461bcd60e51b8152602060048201526015602482015274139bc8185c1c1b1a58d85b9d081cd95b1958dd1959605a1b6044820152606401610303565b60045461010090046001600160a01b03166104255760405162461bcd60e51b8152602060048201526015602482015274139bc8185c1c1b1a58d85b9d081cd95b1958dd1959605a1b6044820152606401610303565b6004805460ff1916600317908190556040516101009091046001600160a01b031681527fa7ce9489b811cd79bb8695d6ad4051484c96aea68805ffa76eea626f7121f800906020015b60405180910390a1565b606060058054806020026020016040519081016040528092919081815260200182805480156102cf57602002820191906000526020600020905b81546001600160a01b031681526001909101906020018083116104b2575050505050905090565b6000546001600160a01b031633036105285760405162461bcd60e51b81526020600482015260126024820152714f776e65722063616e6e6f74206170706c7960701b6044820152606401610303565b60016004805460ff169081111561054157610541610b93565b146105985760405162461bcd60e51b815260206004820152602160248201527f4a6f62206973206e6f7420616363657074696e67206170706c69636174696f6e6044820152607360f81b6064820152608401610303565b6105a133610a98565b156105e05760405162461bcd60e51b815260206004820152600f60248201526e105b1c9958591e48185c1c1b1a5959608a1b6044820152606401610303565b600580546001810182556000919091527f036b6384b5eca791c62761152d0c79bb0604c104a5fb6f4eb0703f3154bb3db00180546001600160a01b031916339081179091556040519081527f83f970044e0c4e2d8a4922431cb57df4cd6dc71f67b619eb184d105e3b6d917a9060200161046e565b60045461010090046001600160a01b031633146106d05760405162461bcd60e51b815260206004820152603360248201527f4f6e6c79207468652073656c6563746564206170706c6963616e742063616e206044820152723832b93337b936903a3434b99030b1ba34b7b760691b6064820152608401610303565b6004805460ff16818111156106e7576106e7610b93565b0361074a5760405162461bcd60e51b815260206004820152602d60248201527f546865207061796d656e7420666f722074686973206a6f6220697320616c726560448201526c30b23c903bb4ba34323930bbb760991b6064820152608401610303565b60036004805460ff169081111561076357610763610b93565b146107a45760405162461bcd60e51b8152602060048201526011602482015270129bd8881b9bdd0818dbdb5c1b195d1959607a1b6044820152606401610303565b6002546004546040516101009091046001600160a01b0316906108fc8315029083906000818181858888f193505050501580156107e5573d6000803e3d6000fd5b506004805460ff1916811790819055604080516101009092046001600160a01b03168252602082018390527f84511ecc081974f18e7f3e0dcc19db078b55bbd3852ddd0dd85b3aebb7bf94c291015b60405180910390a150565b6000546001600160a01b031633146108695760405162461bcd60e51b815260040161030390610c3b565b60016004805460ff169081111561088257610882610b93565b146108db5760405162461bcd60e51b8152602060048201526024808201527f43616e27742073656c656374206170706c6963616e74206174207468697320736044820152637461676560e01b6064820152608401610303565b6108e481610a98565b6109305760405162461bcd60e51b815260206004820152601760248201527f4164647265737320686173206e6f74206170706c6965640000000000000000006044820152606401610303565b6004805460ff196001600160a01b0384166101008102919091166001600160a81b0319909216919091176002179091556040519081527f0d889ef5b807d75aff859dfda4c0a241a96844b7254effbcc4769891ca9c9a2290602001610834565b6000600480805460ff16908111156109aa576109aa610b93565b14905090565b6000546001600160a01b031633146109da5760405162461bcd60e51b815260040161030390610c3b565b6002543414610a2b5760405162461bcd60e51b815260206004820152601e60248201527f4d7573742066756e64206a6f62207769746820657861637420707269636500006044820152606401610303565b60006004805460ff1690811115610a4457610a44610b93565b14610a895760405162461bcd60e51b8152602060048201526015602482015274129bd8881a5cc8185b1c9958591e48199d5b991959605a1b6044820152606401610303565b6004805460ff19166001179055565b6000805b600554811015610aee57826001600160a01b031660058281548110610ac357610ac3610c7d565b6000918252602090912001546001600160a01b031603610ae65750600192915050565b600101610a9c565b50600092915050565b60006020808352835180602085015260005b81811015610b2557858101830151858201604001528201610b09565b506000604082860101526040601f19601f8301168501019250505092915050565b6020808252825182820181905260009190848201906040850190845b81811015610b875783516001600160a01b031683529284019291840191600101610b62565b50909695505050505050565b634e487b7160e01b600052602160045260246000fd5b6020810160058310610bcb57634e487b7160e01b600052602160045260246000fd5b91905290565b600060208284031215610be357600080fd5b81356001600160a01b0381168114610bfa57600080fd5b9392505050565b600181811c90821680610c1557607f821691505b602082108103610c3557634e487b7160e01b600052602260045260246000fd5b50919050565b60208082526022908201527f4f6e6c79206f776e65722063616e20706572666f726d2074686973206163746960408201526137b760f11b606082015260800190565b634e487b7160e01b600052603260045260246000fdfea26469706673582212205b4eeb6cbb7c2f5437b66e5b3d6e455eef98ede53e153fbb6b1cadcc5564338f64736f6c63430008180033a2646970667358221220324f64def0f8e16380dbbb1467f1f4251ef21e89fd0cf52355b9e87e079e229b64736f6c63430008180033",
  "linkReferences": {},
  "deployedLinkReferences": {}
}