{
  "_format": "hh-sol-artifact-1",
  "contractName": "Job",
  "sourceName": "contracts/Job.sol",
  "abi": [
    {
      "inputs": [
        {
          "internalType": "address",
          "name": "_owner",
          "type": "address"
        },
        {
          "internalType": "string",
          "name": "_description",
          "type": "string"
        },
        {
          "internalType": "uint256",
          "name": "_price",
          "type": "uint256"
        },
        {
          "internalType": "uint256",
          "name": "_numberOfDays",
          "type": "uint256"
        }
      ],
      "stateMutability": "nonpayable",
      "type": "constructor"
    },
    {
      "anonymous": false,
      "inputs": [
        {
          "indexed": false,
          "internalType": "address",
          "name": "applicant",
          "type": "address"
        }
      ],
      "name": "ApplicantSelected",
      "type": "event"
    },
    {
      "anonymous": false,
      "inputs": [
        {
          "indexed": false,
          "internalType": "address",
          "name": "applicant",
          "type": "address"
        }
      ],
      "name": "Applied",
      "type": "event"
    },
    {
      "anonymous": false,
      "inputs": [
        {
          "indexed": false,
          "internalType": "address",
          "name": "applicant",
          "type": "address"
        }
      ],
      "name": "JobCompleted",
      "type": "event"
    },
    {
      "anonymous": false,
      "inputs": [
        {
          "indexed": false,
          "internalType": "address",
          "name": "to",
          "type": "address"
        },
        {
          "indexed": false,
          "internalType": "uint256",
          "name": "amount",
          "type": "uint256"
        }
      ],
      "name": "PaymentWithdrawn",
      "type": "event"
    },
    {
      "inputs": [],
      "name": "applyForJob",
      "outputs": [],
      "stateMutability": "nonpayable",
      "type": "function"
    },
    {
      "inputs": [],
      "name": "completeJob",
      "outputs": [],
      "stateMutability": "nonpayable",
      "type": "function"
    },
    {
      "inputs": [],
      "name": "fundJob",
      "outputs": [],
      "stateMutability": "payable",
      "type": "function"
    },
    {
      "inputs": [],
      "name": "getApplicants",
      "outputs": [
        {
          "internalType": "address[]",
          "name": "",
          "type": "address[]"
        }
      ],
      "stateMutability": "view",
      "type": "function"
    },
    {
      "inputs": [],
      "name": "getDescription",
      "outputs": [
        {
          "internalType": "string",
          "name": "",
          "type": "string"
        }
      ],
      "stateMutability": "view",
      "type": "function"
    },
    {
      "inputs": [],
      "name": "getNumberOfDays",
      "outputs": [
        {
          "internalType": "uint256",
          "name": "",
          "type": "uint256"
        }
      ],
      "stateMutability": "view",
      "type": "function"
    },
    {
      "inputs": [],
      "name": "getOwner",
      "outputs": [
        {
          "internalType": "address",
          "name": "",
          "type": "address"
        }
      ],
      "stateMutability": "view",
      "type": "function"
    },
    {
      "inputs": [],
      "name": "getPrice",
      "outputs": [
        {
          "internalType": "uint256",
          "name": "",
          "type": "uint256"
        }
      ],
      "stateMutability": "view",
      "type": "function"
    },
    {
      "inputs": [],
      "name": "getSelectedApplicant",
      "outputs": [
        {
          "internalType": "address",
          "name": "",
          "type": "address"
        }
      ],
      "stateMutability": "view",
      "type": "function"
    },
    {
      "inputs": [],
      "name": "getStatus",
      "outputs": [
        {
          "internalType": "enum Job.Status",
          "name": "",
          "type": "uint8"
        }
      ],
      "stateMutability": "view",
      "type": "function"
    },
    {
      "inputs": [
        {
          "internalType": "address",
          "name": "applicant",
          "type": "address"
        }
      ],
      "name": "selectApplicant",
      "outputs": [],
      "stateMutability": "nonpayable",
      "type": "function"
    },
    {
      "inputs": [],
      "name": "withdrawPayment",
      "outputs": [],
      "stateMutability": "nonpayable",
      "type": "function"
    }
  ],
  "bytecode": "0x60806040523480156200001157600080fd5b5060405162000e8038038062000e8083398101604081905262000034916200008f565b600080546001600160a01b0319166001600160a01b03861617905560016200005d848262000226565b5060029190915560035550506004805460ff19169055620002f2565b634e487b7160e01b600052604160045260246000fd5b60008060008060808587031215620000a657600080fd5b84516001600160a01b0381168114620000be57600080fd5b602086810151919550906001600160401b0380821115620000de57600080fd5b818801915088601f830112620000f357600080fd5b81518181111562000108576200010862000079565b604051601f8201601f19908116603f0116810190838211818310171562000133576200013362000079565b816040528281528b868487010111156200014c57600080fd5b600093505b8284101562000170578484018601518185018701529285019262000151565b6000928101909501919091525050506040860151606090960151949790965092505050565b600181811c90821680620001aa57607f821691505b602082108103620001cb57634e487b7160e01b600052602260045260246000fd5b50919050565b601f82111562000221576000816000526020600020601f850160051c81016020861015620001fc5750805b601f850160051c820191505b818110156200021d5782815560010162000208565b5050505b505050565b81516001600160401b0381111562000242576200024262000079565b6200025a8162000253845462000195565b84620001d1565b602080601f831160018114620002925760008415620002795750858301515b600019600386901b1c1916600185901b1785556200021d565b600085815260208120601f198616915b82811015620002c357888601518255948401946001909101908401620002a2565b5085821015620002e25787850151600019600388901b60f8161c191681555b5050505050600190811b01905550565b610b7e80620003026000396000f3fe6080604052600436106100a75760003560e01c8063893d20e811610064578063893d20e81461016057806398d5fdca146101925780639c9f2052146101a7578063a118babd146101ca578063bfd1a5f6146101df578063ef47243d146101ff57600080fd5b806310f34602146100ac5780631a092541146100d05780633086848f146100f2578063455772d2146101095780634e69d5601461012b578063755d7bbd1461014b575b600080fd5b3480156100b857600080fd5b506003545b6040519081526020015b60405180910390f35b3480156100dc57600080fd5b506100e5610207565b6040516100c791906109ac565b3480156100fe57600080fd5b50610107610299565b005b34801561011557600080fd5b5061011e6103d2565b6040516100c791906109fb565b34801561013757600080fd5b5060045460ff166040516100c79190610a5e565b34801561015757600080fd5b50610107610433565b34801561016c57600080fd5b506000546001600160a01b03165b6040516001600160a01b0390911681526020016100c7565b34801561019e57600080fd5b506002546100bd565b3480156101b357600080fd5b5060045461010090046001600160a01b031661017a565b3480156101d657600080fd5b506101076105af565b3480156101eb57600080fd5b506101076101fa366004610a86565b610714565b610107610865565b60606001805461021690610ab6565b80601f016020809104026020016040519081016040528092919081815260200182805461024290610ab6565b801561028f5780601f106102645761010080835404028352916020019161028f565b820191906000526020600020905b81548152906001019060200180831161027257829003601f168201915b5050505050905090565b6000546001600160a01b031633146102cc5760405162461bcd60e51b81526004016102c390610af0565b60405180910390fd5b600260045460ff1660038111156102e5576102e5610a48565b1461032a5760405162461bcd60e51b8152602060048201526015602482015274139bc8185c1c1b1a58d85b9d081cd95b1958dd1959605a1b60448201526064016102c3565b60045461010090046001600160a01b031661037f5760405162461bcd60e51b8152602060048201526015602482015274139bc8185c1c1b1a58d85b9d081cd95b1958dd1959605a1b60448201526064016102c3565b6004805460ff1916600317908190556040516101009091046001600160a01b031681527fa7ce9489b811cd79bb8695d6ad4051484c96aea68805ffa76eea626f7121f800906020015b60405180910390a1565b6060600580548060200260200160405190810160405280929190818152602001828054801561028f57602002820191906000526020600020905b81546001600160a01b0316815260019091019060200180831161040c575050505050905090565b6000546001600160a01b031633036104825760405162461bcd60e51b81526020600482015260126024820152714f776e65722063616e6e6f74206170706c7960701b60448201526064016102c3565b600160045460ff16600381111561049b5761049b610a48565b146104f25760405162461bcd60e51b815260206004820152602160248201527f4a6f62206973206e6f7420616363657074696e67206170706c69636174696f6e6044820152607360f81b60648201526084016102c3565b6104fb3361094d565b1561053a5760405162461bcd60e51b815260206004820152600f60248201526e105b1c9958591e48185c1c1b1a5959608a1b60448201526064016102c3565b600580546001810182556000919091527f036b6384b5eca791c62761152d0c79bb0604c104a5fb6f4eb0703f3154bb3db00180546001600160a01b031916339081179091556040519081527f83f970044e0c4e2d8a4922431cb57df4cd6dc71f67b619eb184d105e3b6d917a906020016103c8565b60045461010090046001600160a01b0316331461062a5760405162461bcd60e51b815260206004820152603360248201527f4f6e6c79207468652073656c6563746564206170706c6963616e742063616e206044820152723832b93337b936903a3434b99030b1ba34b7b760691b60648201526084016102c3565b600360045460ff16600381111561064357610643610a48565b146106845760405162461bcd60e51b8152602060048201526011602482015270129bd8881b9bdd0818dbdb5c1b195d1959607a1b60448201526064016102c3565b6002546004546040516101009091046001600160a01b0316906108fc8315029083906000818181858888f193505050501580156106c5573d6000803e3d6000fd5b50600454604080516101009092046001600160a01b03168252602082018390527f84511ecc081974f18e7f3e0dcc19db078b55bbd3852ddd0dd85b3aebb7bf94c291015b60405180910390a150565b6000546001600160a01b0316331461073e5760405162461bcd60e51b81526004016102c390610af0565b600160045460ff16600381111561075757610757610a48565b146107b05760405162461bcd60e51b8152602060048201526024808201527f43616e27742073656c656374206170706c6963616e74206174207468697320736044820152637461676560e01b60648201526084016102c3565b6107b98161094d565b6108055760405162461bcd60e51b815260206004820152601760248201527f4164647265737320686173206e6f74206170706c69656400000000000000000060448201526064016102c3565b6004805460ff196001600160a01b0384166101008102919091166001600160a81b0319909216919091176002179091556040519081527f0d889ef5b807d75aff859dfda4c0a241a96844b7254effbcc4769891ca9c9a2290602001610709565b6000546001600160a01b0316331461088f5760405162461bcd60e51b81526004016102c390610af0565b60025434146108e05760405162461bcd60e51b815260206004820152601e60248201527f4d7573742066756e64206a6f622077697468206578616374207072696365000060448201526064016102c3565b600060045460ff1660038111156108f9576108f9610a48565b1461093e5760405162461bcd60e51b8152602060048201526015602482015274129bd8881a5cc8185b1c9958591e48199d5b991959605a1b60448201526064016102c3565b6004805460ff19166001179055565b6000805b6005548110156109a357826001600160a01b03166005828154811061097857610978610b32565b6000918252602090912001546001600160a01b03160361099b5750600192915050565b600101610951565b50600092915050565b60006020808352835180602085015260005b818110156109da578581018301518582016040015282016109be565b506000604082860101526040601f19601f8301168501019250505092915050565b6020808252825182820181905260009190848201906040850190845b81811015610a3c5783516001600160a01b031683529284019291840191600101610a17565b50909695505050505050565b634e487b7160e01b600052602160045260246000fd5b6020810160048310610a8057634e487b7160e01b600052602160045260246000fd5b91905290565b600060208284031215610a9857600080fd5b81356001600160a01b0381168114610aaf57600080fd5b9392505050565b600181811c90821680610aca57607f821691505b602082108103610aea57634e487b7160e01b600052602260045260246000fd5b50919050565b60208082526022908201527f4f6e6c79206f776e65722063616e20706572666f726d2074686973206163746960408201526137b760f11b606082015260800190565b634e487b7160e01b600052603260045260246000fdfea26469706673582212206f62969618646fefa9776f37d27aba0370738043f8b54bd264c3b9f90ac4ef2164736f6c63430008180033",
  "linkReferences": {},
  "deployedLinkReferences": {}
}